{
  "_format": "hh-sol-artifact-1",
  "contractName": "RENTS",
  "sourceName": "contracts/rents/Template.sol",
  "abi": [
    {
      "anonymous": false,
      "inputs": [
        {
          "indexed": false,
          "internalType": "address",
          "name": "from",
          "type": "address"
        },
        {
          "indexed": false,
          "internalType": "address",
          "name": "to",
          "type": "address"
        },
        {
          "indexed": false,
          "internalType": "address",
          "name": "currency",
          "type": "address"
        },
        {
          "indexed": false,
          "internalType": "uint256[]",
          "name": "ids",
          "type": "uint256[]"
        },
        {
          "indexed": false,
          "internalType": "uint256[]",
          "name": "amounts",
          "type": "uint256[]"
        },
        {
          "indexed": false,
          "internalType": "enum Payable.PaymentTypes",
          "name": "paymentType",
          "type": "uint8"
        }
      ],
      "name": "NewPayment",
      "type": "event"
    },
    {
      "anonymous": false,
      "inputs": [
        {
          "indexed": true,
          "internalType": "uint256",
          "name": "id",
          "type": "uint256"
        },
        {
          "components": [
            {
              "internalType": "address",
              "name": "owner",
              "type": "address"
            },
            {
              "internalType": "address",
              "name": "currency",
              "type": "address"
            },
            {
              "internalType": "address",
              "name": "client",
              "type": "address"
            },
            {
              "internalType": "address[]",
              "name": "nftAddresses",
              "type": "address[]"
            },
            {
              "internalType": "uint256[]",
              "name": "nftIds",
              "type": "uint256[]"
            },
            {
              "internalType": "uint256[]",
              "name": "nftAmounts",
              "type": "uint256[]"
            },
            {
              "internalType": "uint256",
              "name": "returningTime",
              "type": "uint256"
            },
            {
              "internalType": "uint256",
              "name": "valability",
              "type": "uint256"
            },
            {
              "internalType": "uint256",
              "name": "expiration",
              "type": "uint256"
            },
            {
              "internalType": "uint256",
              "name": "price",
              "type": "uint256"
            },
            {
              "internalType": "uint256",
              "name": "fee",
              "type": "uint256"
            },
            {
              "internalType": "uint32[]",
              "name": "nftTypes",
              "type": "uint32[]"
            },
            {
              "internalType": "enum RENTSPARAMS.Status",
              "name": "status",
              "type": "uint8"
            }
          ],
          "indexed": false,
          "internalType": "struct RENTSPARAMS.Rent",
          "name": "rent",
          "type": "tuple"
        }
      ],
      "name": "NewRent",
      "type": "event"
    },
    {
      "anonymous": false,
      "inputs": [
        {
          "indexed": true,
          "internalType": "address",
          "name": "previousOwner",
          "type": "address"
        },
        {
          "indexed": true,
          "internalType": "address",
          "name": "newOwner",
          "type": "address"
        }
      ],
      "name": "OwnershipTransferred",
      "type": "event"
    },
    {
      "anonymous": false,
      "inputs": [
        {
          "indexed": true,
          "internalType": "uint256",
          "name": "id",
          "type": "uint256"
        },
        {
          "components": [
            {
              "internalType": "address",
              "name": "owner",
              "type": "address"
            },
            {
              "internalType": "address",
              "name": "currency",
              "type": "address"
            },
            {
              "internalType": "address",
              "name": "client",
              "type": "address"
            },
            {
              "internalType": "address[]",
              "name": "nftAddresses",
              "type": "address[]"
            },
            {
              "internalType": "uint256[]",
              "name": "nftIds",
              "type": "uint256[]"
            },
            {
              "internalType": "uint256[]",
              "name": "nftAmounts",
              "type": "uint256[]"
            },
            {
              "internalType": "uint256",
              "name": "returningTime",
              "type": "uint256"
            },
            {
              "internalType": "uint256",
              "name": "valability",
              "type": "uint256"
            },
            {
              "internalType": "uint256",
              "name": "expiration",
              "type": "uint256"
            },
            {
              "internalType": "uint256",
              "name": "price",
              "type": "uint256"
            },
            {
              "internalType": "uint256",
              "name": "fee",
              "type": "uint256"
            },
            {
              "internalType": "uint32[]",
              "name": "nftTypes",
              "type": "uint32[]"
            },
            {
              "internalType": "enum RENTSPARAMS.Status",
              "name": "status",
              "type": "uint8"
            }
          ],
          "indexed": false,
          "internalType": "struct RENTSPARAMS.Rent",
          "name": "rent",
          "type": "tuple"
        }
      ],
      "name": "RentCancelled",
      "type": "event"
    },
    {
      "anonymous": false,
      "inputs": [
        {
          "indexed": true,
          "internalType": "uint256",
          "name": "id",
          "type": "uint256"
        },
        {
          "components": [
            {
              "internalType": "address",
              "name": "owner",
              "type": "address"
            },
            {
              "internalType": "address",
              "name": "currency",
              "type": "address"
            },
            {
              "internalType": "address",
              "name": "client",
              "type": "address"
            },
            {
              "internalType": "address[]",
              "name": "nftAddresses",
              "type": "address[]"
            },
            {
              "internalType": "uint256[]",
              "name": "nftIds",
              "type": "uint256[]"
            },
            {
              "internalType": "uint256[]",
              "name": "nftAmounts",
              "type": "uint256[]"
            },
            {
              "internalType": "uint256",
              "name": "returningTime",
              "type": "uint256"
            },
            {
              "internalType": "uint256",
              "name": "valability",
              "type": "uint256"
            },
            {
              "internalType": "uint256",
              "name": "expiration",
              "type": "uint256"
            },
            {
              "internalType": "uint256",
              "name": "price",
              "type": "uint256"
            },
            {
              "internalType": "uint256",
              "name": "fee",
              "type": "uint256"
            },
            {
              "internalType": "uint32[]",
              "name": "nftTypes",
              "type": "uint32[]"
            },
            {
              "internalType": "enum RENTSPARAMS.Status",
              "name": "status",
              "type": "uint8"
            }
          ],
          "indexed": false,
          "internalType": "struct RENTSPARAMS.Rent",
          "name": "rent",
          "type": "tuple"
        }
      ],
      "name": "RentDone",
      "type": "event"
    },
    {
      "anonymous": false,
      "inputs": [
        {
          "indexed": true,
          "internalType": "uint256",
          "name": "id",
          "type": "uint256"
        },
        {
          "components": [
            {
              "internalType": "address",
              "name": "owner",
              "type": "address"
            },
            {
              "internalType": "address",
              "name": "currency",
              "type": "address"
            },
            {
              "internalType": "address",
              "name": "client",
              "type": "address"
            },
            {
              "internalType": "address[]",
              "name": "nftAddresses",
              "type": "address[]"
            },
            {
              "internalType": "uint256[]",
              "name": "nftIds",
              "type": "uint256[]"
            },
            {
              "internalType": "uint256[]",
              "name": "nftAmounts",
              "type": "uint256[]"
            },
            {
              "internalType": "uint256",
              "name": "returningTime",
              "type": "uint256"
            },
            {
              "internalType": "uint256",
              "name": "valability",
              "type": "uint256"
            },
            {
              "internalType": "uint256",
              "name": "expiration",
              "type": "uint256"
            },
            {
              "internalType": "uint256",
              "name": "price",
              "type": "uint256"
            },
            {
              "internalType": "uint256",
              "name": "fee",
              "type": "uint256"
            },
            {
              "internalType": "uint32[]",
              "name": "nftTypes",
              "type": "uint32[]"
            },
            {
              "internalType": "enum RENTSPARAMS.Status",
              "name": "status",
              "type": "uint8"
            }
          ],
          "indexed": false,
          "internalType": "struct RENTSPARAMS.Rent",
          "name": "rent",
          "type": "tuple"
        }
      ],
      "name": "RentOngoing",
      "type": "event"
    },
    {
      "inputs": [
        {
          "internalType": "uint256",
          "name": "rentId",
          "type": "uint256"
        }
      ],
      "name": "cancel",
      "outputs": [],
      "stateMutability": "nonpayable",
      "type": "function"
    },
    {
      "inputs": [
        {
          "internalType": "address",
          "name": "sender",
          "type": "address"
        },
        {
          "internalType": "address[]",
          "name": "nftAddressArray",
          "type": "address[]"
        },
        {
          "internalType": "uint256[]",
          "name": "nftTokenIdArray",
          "type": "uint256[]"
        },
        {
          "internalType": "uint32[]",
          "name": "nftTokenTypeArray",
          "type": "uint32[]"
        }
      ],
      "name": "checkItemsApproval",
      "outputs": [],
      "stateMutability": "view",
      "type": "function"
    },
    {
      "inputs": [
        {
          "internalType": "address",
          "name": "from",
          "type": "address"
        },
        {
          "internalType": "address",
          "name": "currency",
          "type": "address"
        }
      ],
      "name": "checkTokensApproval",
      "outputs": [
        {
          "internalType": "uint256",
          "name": "",
          "type": "uint256"
        }
      ],
      "stateMutability": "view",
      "type": "function"
    },
    {
      "inputs": [
        {
          "internalType": "address[]",
          "name": "_nftAddresses",
          "type": "address[]"
        },
        {
          "internalType": "uint256[]",
          "name": "_nftIds",
          "type": "uint256[]"
        },
        {
          "internalType": "uint256[]",
          "name": "_nftAmounts",
          "type": "uint256[]"
        },
        {
          "internalType": "uint32[]",
          "name": "_nftTypes",
          "type": "uint32[]"
        },
        {
          "internalType": "uint256",
          "name": "_valability",
          "type": "uint256"
        },
        {
          "internalType": "uint256",
          "name": "_price",
          "type": "uint256"
        },
        {
          "internalType": "uint256",
          "name": "_fee",
          "type": "uint256"
        },
        {
          "internalType": "address",
          "name": "_currency",
          "type": "address"
        }
      ],
      "name": "create",
      "outputs": [],
      "stateMutability": "nonpayable",
      "type": "function"
    },
    {
      "inputs": [],
      "name": "discounts",
      "outputs": [
        {
          "internalType": "address",
          "name": "",
          "type": "address"
        }
      ],
      "stateMutability": "view",
      "type": "function"
    },
    {
      "inputs": [],
      "name": "fee",
      "outputs": [
        {
          "internalType": "uint256",
          "name": "",
          "type": "uint256"
        }
      ],
      "stateMutability": "view",
      "type": "function"
    },
    {
      "inputs": [
        {
          "internalType": "uint256",
          "name": "rentId",
          "type": "uint256"
        }
      ],
      "name": "finish",
      "outputs": [],
      "stateMutability": "nonpayable",
      "type": "function"
    },
    {
      "inputs": [
        {
          "internalType": "uint256",
          "name": "rentId",
          "type": "uint256"
        }
      ],
      "name": "get",
      "outputs": [
        {
          "components": [
            {
              "internalType": "address",
              "name": "owner",
              "type": "address"
            },
            {
              "internalType": "address",
              "name": "currency",
              "type": "address"
            },
            {
              "internalType": "address",
              "name": "client",
              "type": "address"
            },
            {
              "internalType": "address[]",
              "name": "nftAddresses",
              "type": "address[]"
            },
            {
              "internalType": "uint256[]",
              "name": "nftIds",
              "type": "uint256[]"
            },
            {
              "internalType": "uint256[]",
              "name": "nftAmounts",
              "type": "uint256[]"
            },
            {
              "internalType": "uint256",
              "name": "returningTime",
              "type": "uint256"
            },
            {
              "internalType": "uint256",
              "name": "valability",
              "type": "uint256"
            },
            {
              "internalType": "uint256",
              "name": "expiration",
              "type": "uint256"
            },
            {
              "internalType": "uint256",
              "name": "price",
              "type": "uint256"
            },
            {
              "internalType": "uint256",
              "name": "fee",
              "type": "uint256"
            },
            {
              "internalType": "uint32[]",
              "name": "nftTypes",
              "type": "uint32[]"
            },
            {
              "internalType": "enum RENTSPARAMS.Status",
              "name": "status",
              "type": "uint8"
            }
          ],
          "internalType": "struct RENTSPARAMS.Rent",
          "name": "",
          "type": "tuple"
        }
      ],
      "stateMutability": "view",
      "type": "function"
    },
    {
      "inputs": [],
      "name": "id",
      "outputs": [
        {
          "internalType": "uint256",
          "name": "",
          "type": "uint256"
        }
      ],
      "stateMutability": "view",
      "type": "function"
    },
    {
      "inputs": [],
      "name": "methods",
      "outputs": [
        {
          "internalType": "address",
          "name": "",
          "type": "address"
        }
      ],
      "stateMutability": "view",
      "type": "function"
    },
    {
      "inputs": [
        {
          "internalType": "address",
          "name": "",
          "type": "address"
        },
        {
          "internalType": "address",
          "name": "",
          "type": "address"
        },
        {
          "internalType": "uint256[]",
          "name": "",
          "type": "uint256[]"
        },
        {
          "internalType": "uint256[]",
          "name": "",
          "type": "uint256[]"
        },
        {
          "internalType": "bytes",
          "name": "",
          "type": "bytes"
        }
      ],
      "name": "onERC1155BatchReceived",
      "outputs": [
        {
          "internalType": "bytes4",
          "name": "",
          "type": "bytes4"
        }
      ],
      "stateMutability": "nonpayable",
      "type": "function"
    },
    {
      "inputs": [
        {
          "internalType": "address",
          "name": "",
          "type": "address"
        },
        {
          "internalType": "address",
          "name": "",
          "type": "address"
        },
        {
          "internalType": "uint256",
          "name": "",
          "type": "uint256"
        },
        {
          "internalType": "uint256",
          "name": "",
          "type": "uint256"
        },
        {
          "internalType": "bytes",
          "name": "",
          "type": "bytes"
        }
      ],
      "name": "onERC1155Received",
      "outputs": [
        {
          "internalType": "bytes4",
          "name": "",
          "type": "bytes4"
        }
      ],
      "stateMutability": "nonpayable",
      "type": "function"
    },
    {
      "inputs": [
        {
          "internalType": "address",
          "name": "",
          "type": "address"
        },
        {
          "internalType": "address",
          "name": "",
          "type": "address"
        },
        {
          "internalType": "uint256",
          "name": "",
          "type": "uint256"
        },
        {
          "internalType": "bytes",
          "name": "",
          "type": "bytes"
        }
      ],
      "name": "onERC721Received",
      "outputs": [
        {
          "internalType": "bytes4",
          "name": "",
          "type": "bytes4"
        }
      ],
      "stateMutability": "nonpayable",
      "type": "function"
    },
    {
      "inputs": [
        {
          "internalType": "address",
          "name": "buyer",
          "type": "address"
        },
        {
          "internalType": "uint256",
          "name": "rentId",
          "type": "uint256"
        }
      ],
      "name": "operationDiscountCosts",
      "outputs": [
        {
          "internalType": "uint256",
          "name": "discount",
          "type": "uint256"
        },
        {
          "internalType": "uint256",
          "name": "operationFee",
          "type": "uint256"
        },
        {
          "internalType": "uint256",
          "name": "operationFeeDiscount",
          "type": "uint256"
        },
        {
          "internalType": "uint256",
          "name": "bmarketFee",
          "type": "uint256"
        },
        {
          "internalType": "uint256",
          "name": "totalToPay",
          "type": "uint256"
        }
      ],
      "stateMutability": "view",
      "type": "function"
    },
    {
      "inputs": [],
      "name": "owner",
      "outputs": [
        {
          "internalType": "address",
          "name": "",
          "type": "address"
        }
      ],
      "stateMutability": "view",
      "type": "function"
    },
    {
      "inputs": [
        {
          "internalType": "address",
          "name": "from",
          "type": "address"
        },
        {
          "internalType": "address",
          "name": "to",
          "type": "address"
        },
        {
          "internalType": "address",
          "name": "currency",
          "type": "address"
        },
        {
          "internalType": "uint256[]",
          "name": "ids",
          "type": "uint256[]"
        },
        {
          "internalType": "uint256[]",
          "name": "amounts",
          "type": "uint256[]"
        },
        {
          "internalType": "enum Payable.PaymentTypes",
          "name": "paymentType",
          "type": "uint8"
        }
      ],
      "name": "pay",
      "outputs": [],
      "stateMutability": "payable",
      "type": "function"
    },
    {
      "inputs": [],
      "name": "renounceOwnership",
      "outputs": [],
      "stateMutability": "nonpayable",
      "type": "function"
    },
    {
      "inputs": [
        {
          "internalType": "uint256",
          "name": "rentId",
          "type": "uint256"
        }
      ],
      "name": "rent",
      "outputs": [],
      "stateMutability": "payable",
      "type": "function"
    },
    {
      "inputs": [
        {
          "internalType": "uint256",
          "name": "",
          "type": "uint256"
        }
      ],
      "name": "rents",
      "outputs": [
        {
          "internalType": "address",
          "name": "owner",
          "type": "address"
        },
        {
          "internalType": "address",
          "name": "currency",
          "type": "address"
        },
        {
          "internalType": "address",
          "name": "client",
          "type": "address"
        },
        {
          "internalType": "uint256",
          "name": "returningTime",
          "type": "uint256"
        },
        {
          "internalType": "uint256",
          "name": "valability",
          "type": "uint256"
        },
        {
          "internalType": "uint256",
          "name": "expiration",
          "type": "uint256"
        },
        {
          "internalType": "uint256",
          "name": "price",
          "type": "uint256"
        },
        {
          "internalType": "uint256",
          "name": "fee",
          "type": "uint256"
        },
        {
          "internalType": "enum RENTSPARAMS.Status",
          "name": "status",
          "type": "uint8"
        }
      ],
      "stateMutability": "view",
      "type": "function"
    },
    {
      "inputs": [
        {
          "internalType": "uint256",
          "name": "_fee",
          "type": "uint256"
        },
        {
          "internalType": "address",
          "name": "_discounts",
          "type": "address"
        },
        {
          "internalType": "address",
          "name": "_methods",
          "type": "address"
        }
      ],
      "name": "setParams",
      "outputs": [],
      "stateMutability": "nonpayable",
      "type": "function"
    },
    {
      "inputs": [
        {
          "internalType": "bytes4",
          "name": "interfaceId",
          "type": "bytes4"
        }
      ],
      "name": "supportsInterface",
      "outputs": [
        {
          "internalType": "bool",
          "name": "",
          "type": "bool"
        }
      ],
      "stateMutability": "view",
      "type": "function"
    },
    {
      "inputs": [
        {
          "internalType": "uint256",
          "name": "rentId",
          "type": "uint256"
        }
      ],
      "name": "terminate",
      "outputs": [],
      "stateMutability": "nonpayable",
      "type": "function"
    },
    {
      "inputs": [
        {
          "internalType": "address",
          "name": "newOwner",
          "type": "address"
        }
      ],
      "name": "transferOwnership",
      "outputs": [],
      "stateMutability": "nonpayable",
      "type": "function"
    },
    {
      "inputs": [
        {
          "internalType": "address",
          "name": "from",
          "type": "address"
        },
        {
          "internalType": "address",
          "name": "to",
          "type": "address"
        },
        {
          "internalType": "address[]",
          "name": "nftAddresses",
          "type": "address[]"
        },
        {
          "internalType": "uint256[]",
          "name": "nftIds",
          "type": "uint256[]"
        },
        {
          "internalType": "uint256[]",
          "name": "nftAmounts",
          "type": "uint256[]"
        },
        {
          "internalType": "uint32[]",
          "name": "nftTypes",
          "type": "uint32[]"
        }
      ],
      "name": "transferTokens",
      "outputs": [],
      "stateMutability": "nonpayable",
      "type": "function"
    }
  ],
  "bytecode": "0x6080604052601460035534801561001557600080fd5b50600160005561002433610029565b61007b565b600180546001600160a01b038381166001600160a01b0319831681179093556040519116919082907f8be0079c531659141344cd1fd0a4f28419497f9722a3daafe3b4186f6b6457e090600090a35050565b61201a8061008a6000396000f3fe60806040526004361061014b5760003560e01c8063a125ea04116100b6578063d353a1cb1161006f578063d353a1cb14610249578063ddca3f431461044a578063f23a6e6114610460578063f2fde38b1461048c578063f36dd01a146104ac578063f376d798146104cc57600080fd5b8063a125ea0414610387578063af640d0f146103a7578063bb9a581a146103cb578063bc197c81146103eb578063bdd3dc8e14610417578063c01f59c21461043757600080fd5b80637456be7d116101085780637456be7d1461028057806375af65d11461028e5780637a828b28146102495780638da5cb5b146102ae5780639507d39a146102cc578063a05d098c146102f957600080fd5b806301ffc9a714610150578063150b7a021461018557806329907a91146101c957806340283e2a1461020157806340e58ee514610249578063715018a61461026b575b600080fd5b34801561015c57600080fd5b5061017061016b3660046113b5565b6104ec565b60405190151581526020015b60405180910390f35b34801561019157600080fd5b506101b06101a03660046114b9565b630a85bd0160e11b949350505050565b6040516001600160e01b0319909116815260200161017c565b3480156101d557600080fd5b506005546101e9906001600160a01b031681565b6040516001600160a01b03909116815260200161017c565b34801561020d57600080fd5b5061022161021c366004611524565b610523565b604080519586526020860194909452928401919091526060830152608082015260a00161017c565b34801561025557600080fd5b50610269610264366004611550565b610612565b005b34801561027757600080fd5b50610269610696565b610269610264366004611550565b34801561029a57600080fd5b506004546101e9906001600160a01b031681565b3480156102ba57600080fd5b506001546001600160a01b03166101e9565b3480156102d857600080fd5b506102ec6102e7366004611550565b6106aa565b60405161017c9190611654565b34801561030557600080fd5b50610372610314366004611550565b600660208190526000918252604090912080546001820154600283015493830154600784015460088501546009860154600a870154600c909701546001600160a01b0396871698958716979590961695939492939192909160ff1689565b60405161017c9998979695949392919061177a565b34801561039357600080fd5b506102696103a236600461193c565b6108f1565b3480156103b357600080fd5b506103bd60025481565b60405190815260200161017c565b3480156103d757600080fd5b506102696103e63660046119ca565b610a95565b3480156103f757600080fd5b506101b0610406366004611a96565b63bc197c8160e01b95945050505050565b34801561042357600080fd5b506103bd610432366004611b43565b610c9f565b610269610445366004611b7c565b610d1a565b34801561045657600080fd5b506103bd60035481565b34801561046c57600080fd5b506101b061047b366004611c2e565b63f23a6e6160e01b95945050505050565b34801561049857600080fd5b506102696104a7366004611c96565b6110ac565b3480156104b857600080fd5b506102696104c7366004611cfe565b611127565b3480156104d857600080fd5b506102696104e7366004611e02565b6111a4565b60006001600160e01b03198216630271189760e51b148061051d57506301ffc9a760e01b6001600160e01b03198316145b92915050565b6004805460405163ad6a874560e01b81526001600160a01b03858116938201939093526000928392839283928392169063ad6a874590602401602060405180830381865afa158015610579573d6000803e3d6000fd5b505050506040513d601f19601f8201168201806040525081019061059d9190611e44565b6003546000888152600660205260409020600a01549196506105be91611e73565b9350846001146105d7576105d28585611e73565b6105da565b60005b92506105e68385611e95565b6000878152600660205260409020600a0154909250610606908490611e95565b90509295509295909350565b61061a61121d565b6005546040516000916001600160a01b03169061063a9083903690611ea8565b600060405180830381855af49150503d8060008114610675576040519150601f19603f3d011682016040523d82523d6000602084013e61067a565b606091505b505090508061068857600080fd5b506106936001600055565b50565b61069e611276565b6106a860006112d0565b565b6106b2611322565b60008281526006602090815260409182902082516101a08101845281546001600160a01b039081168252600183015481168285015260028301541681850152600382018054855181860281018601909652808652919492936060860193929083018282801561074a57602002820191906000526020600020905b81546001600160a01b0316815260019091019060200180831161072c575b50505050508152602001600482018054806020026020016040519081016040528092919081815260200182805480156107a257602002820191906000526020600020905b81548152602001906001019080831161078e575b50505050508152602001600582018054806020026020016040519081016040528092919081815260200182805480156107fa57602002820191906000526020600020905b8154815260200190600101908083116107e6575b5050505050815260200160068201548152602001600782015481526020016008820154815260200160098201548152602001600a8201548152602001600b82018054806020026020016040519081016040528092919081815260200182805480156108b057602002820191906000526020600020906000905b82829054906101000a900463ffffffff1663ffffffff16815260200190600401906020826003010492830192600103820291508084116108735790505b5050509183525050600c82015460209091019060ff1660038111156108d7576108d7611613565b60038111156108e8576108e8611613565b90525092915050565b60005b8351811015610a8e5781818151811061090f5761090f611eb8565b602002602001015163ffffffff166000036109e757306001600160a01b031684828151811061094057610940611eb8565b60200260200101516001600160a01b031663081812fc85848151811061096857610968611eb8565b60200260200101516040518263ffffffff1660e01b815260040161098e91815260200190565b602060405180830381865afa1580156109ab573d6000803e3d6000fd5b505050506040513d601f19601f820116820180604052508101906109cf9190611ece565b6001600160a01b0316146109e257600080fd5b610a7e565b8381815181106109f9576109f9611eb8565b602090810291909101015160405163e985e9c560e01b81526001600160a01b0387811660048301523060248301529091169063e985e9c590604401602060405180830381865afa158015610a51573d6000803e3d6000fd5b505050506040513d601f19601f82011682018060405250810190610a759190611eeb565b610a7e57600080fd5b610a8781611f0d565b90506108f4565b5050505050565b8351835181148015610aa75750808251145b610ab057600080fd5b60005b81811015610c9557828181518110610acd57610acd611eb8565b602002602001015163ffffffff16600003610b9557858181518110610af457610af4611eb8565b60200260200101516001600160a01b03166342842e0e8989888581518110610b1e57610b1e611eb8565b60209081029190910101516040516001600160e01b031960e086901b1681526001600160a01b0393841660048201529290911660248301526044820152606401600060405180830381600087803b158015610b7857600080fd5b505af1158015610b8c573d6000803e3d6000fd5b50505050610c85565b858181518110610ba757610ba7611eb8565b60200260200101516001600160a01b031663f242432a8989888581518110610bd157610bd1611eb8565b6020026020010151888681518110610beb57610beb611eb8565b60200260200101516040518563ffffffff1660e01b8152600401610c5294939291906001600160a01b0394851681529290931660208301526040820152606081019190915260a060808201819052600490820152630307830360e41b60c082015260e00190565b600060405180830381600087803b158015610c6c57600080fd5b505af1158015610c80573d6000803e3d6000fd5b505050505b610c8e81611f0d565b9050610ab3565b5050505050505050565b604051636eb1769f60e11b81526001600160a01b0383811660048301523060248301526000919083169063dd62ed3e90604401602060405180830381865afa158015610cef573d6000803e3d6000fd5b505050506040513d601f19601f82011682018060405250810190610d139190611e44565b9392505050565b610d2261121d565b610d2a611276565b6000816003811115610d3e57610d3e611613565b03610ddf57836001600160a01b03166342842e0e878786600081518110610d6757610d67611eb8565b60209081029190910101516040516001600160e01b031960e086901b1681526001600160a01b03938416600482015292909116602483015260448201526064015b600060405180830381600087803b158015610dc257600080fd5b505af1158015610dd6573d6000803e3d6000fd5b50505050611059565b6001816003811115610df357610df3611613565b03610e2a57604051631759616b60e11b81526001600160a01b03851690632eb2c2d690610da8908990899088908890600401611f26565b6002816003811115610e3e57610e3e611613565b03610f65576001600160a01b0386163014610f0957836001600160a01b03166323b872dd878785600081518110610e7757610e77611eb8565b60209081029190910101516040516001600160e01b031960e086901b1681526001600160a01b03938416600482015292909116602483015260448201526064015b6020604051808303816000875af1158015610ed7573d6000803e3d6000fd5b505050506040513d601f19601f82011682018060405250810190610efb9190611eeb565b610f0457600080fd5b611059565b836001600160a01b031663a9059cbb8684600081518110610f2c57610f2c611eb8565b60200260200101516040518363ffffffff1660e01b8152600401610eb89291906001600160a01b03929092168252602082015260400190565b6003816003811115610f7957610f79611613565b03611059576001600160a01b0385163b1561100e576000856001600160a01b031683600081518110610fad57610fad611eb8565b602002602001015160405160006040518083038185875af1925050503d8060008114610ff5576040519150601f19603f3d011682016040523d82523d6000602084013e610ffa565b606091505b505090508061100857600080fd5b50611059565b846001600160a01b03166108fc8360008151811061102e5761102e611eb8565b60200260200101519081150290604051600060405180830381858888f1935050505061105957600080fd5b7f4f74c37cf0470b045087a8c6291e730e0623175419cdc46c332bb8a15f8de99e86868686868660405161109296959493929190611f81565b60405180910390a16110a46001600055565b505050505050565b6110b4611276565b6001600160a01b03811661111e5760405162461bcd60e51b815260206004820152602660248201527f4f776e61626c653a206e6577206f776e657220697320746865207a65726f206160448201526564647265737360d01b60648201526084015b60405180910390fd5b610693816112d0565b6005546040516000916001600160a01b0316906111479083903690611ea8565b600060405180830381855af49150503d8060008114611182576040519150601f19603f3d011682016040523d82523d6000602084013e611187565b606091505b505090508061119557600080fd5b50505050505050505050505050565b6111ac611276565b6000816001600160a01b03166000366040516111c9929190611ea8565b600060405180830381855af49150503d8060008114611204576040519150601f19603f3d011682016040523d82523d6000602084013e611209565b606091505b505090508061121757600080fd5b50505050565b60026000540361126f5760405162461bcd60e51b815260206004820152601f60248201527f5265656e7472616e637947756172643a207265656e7472616e742063616c6c006044820152606401611115565b6002600055565b6001546001600160a01b031633146106a85760405162461bcd60e51b815260206004820181905260248201527f4f776e61626c653a2063616c6c6572206973206e6f7420746865206f776e65726044820152606401611115565b600180546001600160a01b038381166001600160a01b0319831681179093556040519116919082907f8be0079c531659141344cd1fd0a4f28419497f9722a3daafe3b4186f6b6457e090600090a35050565b604051806101a0016040528060006001600160a01b0316815260200160006001600160a01b0316815260200160006001600160a01b03168152602001606081526020016060815260200160608152602001600081526020016000815260200160008152602001600081526020016000815260200160608152602001600060038111156113b0576113b0611613565b905290565b6000602082840312156113c757600080fd5b81356001600160e01b031981168114610d1357600080fd5b6001600160a01b038116811461069357600080fd5b80356113ff816113df565b919050565b634e487b7160e01b600052604160045260246000fd5b604051601f8201601f191681016001600160401b038111828210171561144257611442611404565b604052919050565b600082601f83011261145b57600080fd5b81356001600160401b0381111561147457611474611404565b611487601f8201601f191660200161141a565b81815284602083860101111561149c57600080fd5b816020850160208301376000918101602001919091529392505050565b600080600080608085870312156114cf57600080fd5b84356114da816113df565b935060208501356114ea816113df565b92506040850135915060608501356001600160401b0381111561150c57600080fd5b6115188782880161144a565b91505092959194509250565b6000806040838503121561153757600080fd5b8235611542816113df565b946020939093013593505050565b60006020828403121561156257600080fd5b5035919050565b600081518084526020808501945080840160005b838110156115a25781516001600160a01b03168752958201959082019060010161157d565b509495945050505050565b600081518084526020808501945080840160005b838110156115a2578151875295820195908201906001016115c1565b600081518084526020808501945080840160005b838110156115a257815163ffffffff16875295820195908201906001016115f1565b634e487b7160e01b600052602160045260246000fd5b6004811061069357634e487b7160e01b600052602160045260246000fd5b61165081611629565b9052565b6020815261166e6020820183516001600160a01b03169052565b6000602083015161168a60408401826001600160a01b03169052565b5060408301516001600160a01b03811660608401525060608301516101a08060808501526116bc6101c0850183611569565b91506080850151601f19808685030160a08701526116da84836115ad565b935060a08701519150808685030160c08701526116f784836115ad565b60c088015160e088810191909152880151610100808901919091528801516101208089019190915288015161014080890191909152880151610160808901919091528801518782038301610180808a0191909152919550925061175a85846115dd565b9450808801519250505061177082860182611647565b5090949350505050565b6001600160a01b038a81168252898116602083015288166040820152606081018790526080810186905260a0810185905260c0810184905260e0810183905261012081016117c783611629565b826101008301529a9950505050505050505050565b60006001600160401b038211156117f5576117f5611404565b5060051b60200190565b600082601f83011261181057600080fd5b81356020611825611820836117dc565b61141a565b82815260059290921b8401810191818101908684111561184457600080fd5b8286015b8481101561186857803561185b816113df565b8352918301918301611848565b509695505050505050565b600082601f83011261188457600080fd5b81356020611894611820836117dc565b82815260059290921b840181019181810190868411156118b357600080fd5b8286015b8481101561186857803583529183019183016118b7565b600082601f8301126118df57600080fd5b813560206118ef611820836117dc565b82815260059290921b8401810191818101908684111561190e57600080fd5b8286015b8481101561186857803563ffffffff8116811461192f5760008081fd5b8352918301918301611912565b6000806000806080858703121561195257600080fd5b843561195d816113df565b935060208501356001600160401b038082111561197957600080fd5b611985888389016117ff565b9450604087013591508082111561199b57600080fd5b6119a788838901611873565b935060608701359150808211156119bd57600080fd5b50611518878288016118ce565b60008060008060008060c087890312156119e357600080fd5b6119ec876113f4565b95506119fa602088016113f4565b945060408701356001600160401b0380821115611a1657600080fd5b611a228a838b016117ff565b95506060890135915080821115611a3857600080fd5b611a448a838b01611873565b94506080890135915080821115611a5a57600080fd5b611a668a838b01611873565b935060a0890135915080821115611a7c57600080fd5b50611a8989828a016118ce565b9150509295509295509295565b600080600080600060a08688031215611aae57600080fd5b8535611ab9816113df565b94506020860135611ac9816113df565b935060408601356001600160401b0380821115611ae557600080fd5b611af189838a01611873565b94506060880135915080821115611b0757600080fd5b611b1389838a01611873565b93506080880135915080821115611b2957600080fd5b50611b368882890161144a565b9150509295509295909350565b60008060408385031215611b5657600080fd5b8235611b61816113df565b91506020830135611b71816113df565b809150509250929050565b60008060008060008060c08789031215611b9557600080fd5b8635611ba0816113df565b95506020870135611bb0816113df565b94506040870135611bc0816113df565b935060608701356001600160401b0380821115611bdc57600080fd5b611be88a838b01611873565b94506080890135915080821115611bfe57600080fd5b50611c0b89828a01611873565b92505060a087013560048110611c2057600080fd5b809150509295509295509295565b600080600080600060a08688031215611c4657600080fd5b8535611c51816113df565b94506020860135611c61816113df565b9350604086013592506060860135915060808601356001600160401b03811115611c8a57600080fd5b611b368882890161144a565b600060208284031215611ca857600080fd5b8135610d13816113df565b60008083601f840112611cc557600080fd5b5081356001600160401b03811115611cdc57600080fd5b6020830191508360208260051b8501011115611cf757600080fd5b9250929050565b6000806000806000806000806000806000806101008d8f031215611d2157600080fd5b6001600160401b038d351115611d3657600080fd5b611d438e8e358f01611cb3565b909c509a506001600160401b0360208e01351115611d6057600080fd5b611d708e60208f01358f01611cb3565b909a5098506001600160401b0360408e01351115611d8d57600080fd5b611d9d8e60408f01358f01611cb3565b90985096506001600160401b0360608e01351115611dba57600080fd5b611dca8e60608f01358f01611cb3565b909650945060808d0135935060a08d0135925060c08d01359150611df060e08e016113f4565b90509295989b509295989b509295989b565b600080600060608486031215611e1757600080fd5b833592506020840135611e29816113df565b91506040840135611e39816113df565b809150509250925092565b600060208284031215611e5657600080fd5b5051919050565b634e487b7160e01b600052601160045260246000fd5b600082611e9057634e487b7160e01b600052601260045260246000fd5b500490565b8181038181111561051d5761051d611e5d565b8183823760009101908152919050565b634e487b7160e01b600052603260045260246000fd5b600060208284031215611ee057600080fd5b8151610d13816113df565b600060208284031215611efd57600080fd5b81518015158114610d1357600080fd5b600060018201611f1f57611f1f611e5d565b5060010190565b6001600160a01b0385811682528416602082015260a060408201819052600090611f52908301856115ad565b8281036060840152611f6481856115ad565b838103608090940193909352505060008152602001949350505050565b6001600160a01b03878116825286811660208301528516604082015260c060608201819052600090611fb5908301866115ad565b8281036080840152611fc781866115ad565b915050611fd383611629565b8260a083015297965050505050505056fea264697066735822122046575a0204a4cdb15beda86547600b2338aa954f70fb57f7a9463aecd353d8a464736f6c63430008110033",
  "linkReferences": {},
  "deployedLinkReferences": {}
}