{
  "_format": "hh-sol-artifact-1",
  "contractName": "RENTSPARAMS",
  "sourceName": "contracts/rents/Params.sol",
  "abi": [
    {
      "anonymous": false,
      "inputs": [
        {
          "indexed": false,
          "internalType": "address",
          "name": "from",
          "type": "address"
        },
        {
          "indexed": false,
          "internalType": "address",
          "name": "to",
          "type": "address"
        },
        {
          "indexed": false,
          "internalType": "address",
          "name": "currency",
          "type": "address"
        },
        {
          "indexed": false,
          "internalType": "uint256[]",
          "name": "ids",
          "type": "uint256[]"
        },
        {
          "indexed": false,
          "internalType": "uint256[]",
          "name": "amounts",
          "type": "uint256[]"
        },
        {
          "indexed": false,
          "internalType": "enum Payable.PaymentTypes",
          "name": "paymentType",
          "type": "uint8"
        }
      ],
      "name": "NewPayment",
      "type": "event"
    },
    {
      "anonymous": false,
      "inputs": [
        {
          "indexed": true,
          "internalType": "uint256",
          "name": "id",
          "type": "uint256"
        },
        {
          "components": [
            {
              "internalType": "address",
              "name": "owner",
              "type": "address"
            },
            {
              "internalType": "address",
              "name": "currency",
              "type": "address"
            },
            {
              "internalType": "address",
              "name": "client",
              "type": "address"
            },
            {
              "internalType": "address[]",
              "name": "nftAddresses",
              "type": "address[]"
            },
            {
              "internalType": "uint256[]",
              "name": "nftIds",
              "type": "uint256[]"
            },
            {
              "internalType": "uint256[]",
              "name": "nftAmounts",
              "type": "uint256[]"
            },
            {
              "internalType": "uint256",
              "name": "returningTime",
              "type": "uint256"
            },
            {
              "internalType": "uint256",
              "name": "valability",
              "type": "uint256"
            },
            {
              "internalType": "uint256",
              "name": "expiration",
              "type": "uint256"
            },
            {
              "internalType": "uint256",
              "name": "price",
              "type": "uint256"
            },
            {
              "internalType": "uint256",
              "name": "fee",
              "type": "uint256"
            },
            {
              "internalType": "uint32[]",
              "name": "nftTypes",
              "type": "uint32[]"
            },
            {
              "internalType": "enum RENTSPARAMS.Status",
              "name": "status",
              "type": "uint8"
            }
          ],
          "indexed": false,
          "internalType": "struct RENTSPARAMS.Rent",
          "name": "rent",
          "type": "tuple"
        }
      ],
      "name": "NewRent",
      "type": "event"
    },
    {
      "anonymous": false,
      "inputs": [
        {
          "indexed": true,
          "internalType": "address",
          "name": "previousOwner",
          "type": "address"
        },
        {
          "indexed": true,
          "internalType": "address",
          "name": "newOwner",
          "type": "address"
        }
      ],
      "name": "OwnershipTransferred",
      "type": "event"
    },
    {
      "anonymous": false,
      "inputs": [
        {
          "indexed": true,
          "internalType": "uint256",
          "name": "id",
          "type": "uint256"
        },
        {
          "components": [
            {
              "internalType": "address",
              "name": "owner",
              "type": "address"
            },
            {
              "internalType": "address",
              "name": "currency",
              "type": "address"
            },
            {
              "internalType": "address",
              "name": "client",
              "type": "address"
            },
            {
              "internalType": "address[]",
              "name": "nftAddresses",
              "type": "address[]"
            },
            {
              "internalType": "uint256[]",
              "name": "nftIds",
              "type": "uint256[]"
            },
            {
              "internalType": "uint256[]",
              "name": "nftAmounts",
              "type": "uint256[]"
            },
            {
              "internalType": "uint256",
              "name": "returningTime",
              "type": "uint256"
            },
            {
              "internalType": "uint256",
              "name": "valability",
              "type": "uint256"
            },
            {
              "internalType": "uint256",
              "name": "expiration",
              "type": "uint256"
            },
            {
              "internalType": "uint256",
              "name": "price",
              "type": "uint256"
            },
            {
              "internalType": "uint256",
              "name": "fee",
              "type": "uint256"
            },
            {
              "internalType": "uint32[]",
              "name": "nftTypes",
              "type": "uint32[]"
            },
            {
              "internalType": "enum RENTSPARAMS.Status",
              "name": "status",
              "type": "uint8"
            }
          ],
          "indexed": false,
          "internalType": "struct RENTSPARAMS.Rent",
          "name": "rent",
          "type": "tuple"
        }
      ],
      "name": "RentCancelled",
      "type": "event"
    },
    {
      "anonymous": false,
      "inputs": [
        {
          "indexed": true,
          "internalType": "uint256",
          "name": "id",
          "type": "uint256"
        },
        {
          "components": [
            {
              "internalType": "address",
              "name": "owner",
              "type": "address"
            },
            {
              "internalType": "address",
              "name": "currency",
              "type": "address"
            },
            {
              "internalType": "address",
              "name": "client",
              "type": "address"
            },
            {
              "internalType": "address[]",
              "name": "nftAddresses",
              "type": "address[]"
            },
            {
              "internalType": "uint256[]",
              "name": "nftIds",
              "type": "uint256[]"
            },
            {
              "internalType": "uint256[]",
              "name": "nftAmounts",
              "type": "uint256[]"
            },
            {
              "internalType": "uint256",
              "name": "returningTime",
              "type": "uint256"
            },
            {
              "internalType": "uint256",
              "name": "valability",
              "type": "uint256"
            },
            {
              "internalType": "uint256",
              "name": "expiration",
              "type": "uint256"
            },
            {
              "internalType": "uint256",
              "name": "price",
              "type": "uint256"
            },
            {
              "internalType": "uint256",
              "name": "fee",
              "type": "uint256"
            },
            {
              "internalType": "uint32[]",
              "name": "nftTypes",
              "type": "uint32[]"
            },
            {
              "internalType": "enum RENTSPARAMS.Status",
              "name": "status",
              "type": "uint8"
            }
          ],
          "indexed": false,
          "internalType": "struct RENTSPARAMS.Rent",
          "name": "rent",
          "type": "tuple"
        }
      ],
      "name": "RentDone",
      "type": "event"
    },
    {
      "anonymous": false,
      "inputs": [
        {
          "indexed": true,
          "internalType": "uint256",
          "name": "id",
          "type": "uint256"
        },
        {
          "components": [
            {
              "internalType": "address",
              "name": "owner",
              "type": "address"
            },
            {
              "internalType": "address",
              "name": "currency",
              "type": "address"
            },
            {
              "internalType": "address",
              "name": "client",
              "type": "address"
            },
            {
              "internalType": "address[]",
              "name": "nftAddresses",
              "type": "address[]"
            },
            {
              "internalType": "uint256[]",
              "name": "nftIds",
              "type": "uint256[]"
            },
            {
              "internalType": "uint256[]",
              "name": "nftAmounts",
              "type": "uint256[]"
            },
            {
              "internalType": "uint256",
              "name": "returningTime",
              "type": "uint256"
            },
            {
              "internalType": "uint256",
              "name": "valability",
              "type": "uint256"
            },
            {
              "internalType": "uint256",
              "name": "expiration",
              "type": "uint256"
            },
            {
              "internalType": "uint256",
              "name": "price",
              "type": "uint256"
            },
            {
              "internalType": "uint256",
              "name": "fee",
              "type": "uint256"
            },
            {
              "internalType": "uint32[]",
              "name": "nftTypes",
              "type": "uint32[]"
            },
            {
              "internalType": "enum RENTSPARAMS.Status",
              "name": "status",
              "type": "uint8"
            }
          ],
          "indexed": false,
          "internalType": "struct RENTSPARAMS.Rent",
          "name": "rent",
          "type": "tuple"
        }
      ],
      "name": "RentOngoing",
      "type": "event"
    },
    {
      "inputs": [
        {
          "internalType": "address",
          "name": "sender",
          "type": "address"
        },
        {
          "internalType": "address[]",
          "name": "nftAddressArray",
          "type": "address[]"
        },
        {
          "internalType": "uint256[]",
          "name": "nftTokenIdArray",
          "type": "uint256[]"
        },
        {
          "internalType": "uint32[]",
          "name": "nftTokenTypeArray",
          "type": "uint32[]"
        }
      ],
      "name": "checkItemsApproval",
      "outputs": [],
      "stateMutability": "view",
      "type": "function"
    },
    {
      "inputs": [
        {
          "internalType": "address",
          "name": "from",
          "type": "address"
        },
        {
          "internalType": "address",
          "name": "currency",
          "type": "address"
        }
      ],
      "name": "checkTokensApproval",
      "outputs": [
        {
          "internalType": "uint256",
          "name": "",
          "type": "uint256"
        }
      ],
      "stateMutability": "view",
      "type": "function"
    },
    {
      "inputs": [],
      "name": "discounts",
      "outputs": [
        {
          "internalType": "address",
          "name": "",
          "type": "address"
        }
      ],
      "stateMutability": "view",
      "type": "function"
    },
    {
      "inputs": [],
      "name": "fee",
      "outputs": [
        {
          "internalType": "uint256",
          "name": "",
          "type": "uint256"
        }
      ],
      "stateMutability": "view",
      "type": "function"
    },
    {
      "inputs": [],
      "name": "id",
      "outputs": [
        {
          "internalType": "uint256",
          "name": "",
          "type": "uint256"
        }
      ],
      "stateMutability": "view",
      "type": "function"
    },
    {
      "inputs": [],
      "name": "methods",
      "outputs": [
        {
          "internalType": "address",
          "name": "",
          "type": "address"
        }
      ],
      "stateMutability": "view",
      "type": "function"
    },
    {
      "inputs": [
        {
          "internalType": "address",
          "name": "",
          "type": "address"
        },
        {
          "internalType": "address",
          "name": "",
          "type": "address"
        },
        {
          "internalType": "uint256[]",
          "name": "",
          "type": "uint256[]"
        },
        {
          "internalType": "uint256[]",
          "name": "",
          "type": "uint256[]"
        },
        {
          "internalType": "bytes",
          "name": "",
          "type": "bytes"
        }
      ],
      "name": "onERC1155BatchReceived",
      "outputs": [
        {
          "internalType": "bytes4",
          "name": "",
          "type": "bytes4"
        }
      ],
      "stateMutability": "nonpayable",
      "type": "function"
    },
    {
      "inputs": [
        {
          "internalType": "address",
          "name": "",
          "type": "address"
        },
        {
          "internalType": "address",
          "name": "",
          "type": "address"
        },
        {
          "internalType": "uint256",
          "name": "",
          "type": "uint256"
        },
        {
          "internalType": "uint256",
          "name": "",
          "type": "uint256"
        },
        {
          "internalType": "bytes",
          "name": "",
          "type": "bytes"
        }
      ],
      "name": "onERC1155Received",
      "outputs": [
        {
          "internalType": "bytes4",
          "name": "",
          "type": "bytes4"
        }
      ],
      "stateMutability": "nonpayable",
      "type": "function"
    },
    {
      "inputs": [
        {
          "internalType": "address",
          "name": "",
          "type": "address"
        },
        {
          "internalType": "address",
          "name": "",
          "type": "address"
        },
        {
          "internalType": "uint256",
          "name": "",
          "type": "uint256"
        },
        {
          "internalType": "bytes",
          "name": "",
          "type": "bytes"
        }
      ],
      "name": "onERC721Received",
      "outputs": [
        {
          "internalType": "bytes4",
          "name": "",
          "type": "bytes4"
        }
      ],
      "stateMutability": "nonpayable",
      "type": "function"
    },
    {
      "inputs": [],
      "name": "owner",
      "outputs": [
        {
          "internalType": "address",
          "name": "",
          "type": "address"
        }
      ],
      "stateMutability": "view",
      "type": "function"
    },
    {
      "inputs": [
        {
          "internalType": "address",
          "name": "from",
          "type": "address"
        },
        {
          "internalType": "address",
          "name": "to",
          "type": "address"
        },
        {
          "internalType": "address",
          "name": "currency",
          "type": "address"
        },
        {
          "internalType": "uint256[]",
          "name": "ids",
          "type": "uint256[]"
        },
        {
          "internalType": "uint256[]",
          "name": "amounts",
          "type": "uint256[]"
        },
        {
          "internalType": "enum Payable.PaymentTypes",
          "name": "paymentType",
          "type": "uint8"
        }
      ],
      "name": "pay",
      "outputs": [],
      "stateMutability": "payable",
      "type": "function"
    },
    {
      "inputs": [],
      "name": "renounceOwnership",
      "outputs": [],
      "stateMutability": "nonpayable",
      "type": "function"
    },
    {
      "inputs": [
        {
          "internalType": "uint256",
          "name": "",
          "type": "uint256"
        }
      ],
      "name": "rents",
      "outputs": [
        {
          "internalType": "address",
          "name": "owner",
          "type": "address"
        },
        {
          "internalType": "address",
          "name": "currency",
          "type": "address"
        },
        {
          "internalType": "address",
          "name": "client",
          "type": "address"
        },
        {
          "internalType": "uint256",
          "name": "returningTime",
          "type": "uint256"
        },
        {
          "internalType": "uint256",
          "name": "valability",
          "type": "uint256"
        },
        {
          "internalType": "uint256",
          "name": "expiration",
          "type": "uint256"
        },
        {
          "internalType": "uint256",
          "name": "price",
          "type": "uint256"
        },
        {
          "internalType": "uint256",
          "name": "fee",
          "type": "uint256"
        },
        {
          "internalType": "enum RENTSPARAMS.Status",
          "name": "status",
          "type": "uint8"
        }
      ],
      "stateMutability": "view",
      "type": "function"
    },
    {
      "inputs": [
        {
          "internalType": "bytes4",
          "name": "interfaceId",
          "type": "bytes4"
        }
      ],
      "name": "supportsInterface",
      "outputs": [
        {
          "internalType": "bool",
          "name": "",
          "type": "bool"
        }
      ],
      "stateMutability": "view",
      "type": "function"
    },
    {
      "inputs": [
        {
          "internalType": "address",
          "name": "newOwner",
          "type": "address"
        }
      ],
      "name": "transferOwnership",
      "outputs": [],
      "stateMutability": "nonpayable",
      "type": "function"
    },
    {
      "inputs": [
        {
          "internalType": "address",
          "name": "from",
          "type": "address"
        },
        {
          "internalType": "address",
          "name": "to",
          "type": "address"
        },
        {
          "internalType": "address[]",
          "name": "nftAddresses",
          "type": "address[]"
        },
        {
          "internalType": "uint256[]",
          "name": "nftIds",
          "type": "uint256[]"
        },
        {
          "internalType": "uint256[]",
          "name": "nftAmounts",
          "type": "uint256[]"
        },
        {
          "internalType": "uint32[]",
          "name": "nftTypes",
          "type": "uint32[]"
        }
      ],
      "name": "transferTokens",
      "outputs": [],
      "stateMutability": "nonpayable",
      "type": "function"
    }
  ],
  "bytecode": "0x6080604052601460035534801561001557600080fd5b50600160005561002433610029565b61007b565b600180546001600160a01b038381166001600160a01b0319831681179093556040519116919082907f8be0079c531659141344cd1fd0a4f28419497f9722a3daafe3b4186f6b6457e090600090a35050565b6115fc8061008a6000396000f3fe6080604052600436106100f35760003560e01c8063af640d0f1161008a578063c01f59c211610059578063c01f59c21461033c578063ddca3f431461034f578063f23a6e6114610365578063f2fde38b1461039157600080fd5b8063af640d0f146102ac578063bb9a581a146102d0578063bc197c81146102f0578063bdd3dc8e1461031c57600080fd5b806375af65d1116100c657806375af65d1146101c05780638da5cb5b146101e0578063a05d098c146101fe578063a125ea041461028c57600080fd5b806301ffc9a7146100f8578063150b7a021461012d57806329907a9114610171578063715018a6146101a9575b600080fd5b34801561010457600080fd5b50610118610113366004610d3a565b6103b1565b60405190151581526020015b60405180910390f35b34801561013957600080fd5b50610158610148366004610e40565b630a85bd0160e11b949350505050565b6040516001600160e01b03199091168152602001610124565b34801561017d57600080fd5b50600554610191906001600160a01b031681565b6040516001600160a01b039091168152602001610124565b3480156101b557600080fd5b506101be6103e8565b005b3480156101cc57600080fd5b50600454610191906001600160a01b031681565b3480156101ec57600080fd5b506001546001600160a01b0316610191565b34801561020a57600080fd5b50610277610219366004610eac565b600660208190526000918252604090912080546001820154600283015493830154600784015460088501546009860154600a870154600c909701546001600160a01b0396871698958716979590961695939492939192909160ff1689565b60405161012499989796959493929190610ef9565b34801561029857600080fd5b506101be6102a73660046110bc565b6103fc565b3480156102b857600080fd5b506102c260025481565b604051908152602001610124565b3480156102dc57600080fd5b506101be6102eb36600461114b565b6105a0565b3480156102fc57600080fd5b5061015861030b366004611218565b63bc197c8160e01b95945050505050565b34801561032857600080fd5b506102c26103373660046112c6565b6107aa565b6101be61034a3660046112ff565b610825565b34801561035b57600080fd5b506102c260035481565b34801561037157600080fd5b506101586103803660046113b2565b63f23a6e6160e01b95945050505050565b34801561039d57600080fd5b506101be6103ac36600461141b565b610bb7565b60006001600160e01b03198216630271189760e51b14806103e257506301ffc9a760e01b6001600160e01b03198316145b92915050565b6103f0610c35565b6103fa6000610c8f565b565b60005b83518110156105995781818151811061041a5761041a611438565b602002602001015163ffffffff166000036104f257306001600160a01b031684828151811061044b5761044b611438565b60200260200101516001600160a01b031663081812fc85848151811061047357610473611438565b60200260200101516040518263ffffffff1660e01b815260040161049991815260200190565b602060405180830381865afa1580156104b6573d6000803e3d6000fd5b505050506040513d601f19601f820116820180604052508101906104da919061144e565b6001600160a01b0316146104ed57600080fd5b610589565b83818151811061050457610504611438565b602090810291909101015160405163e985e9c560e01b81526001600160a01b0387811660048301523060248301529091169063e985e9c590604401602060405180830381865afa15801561055c573d6000803e3d6000fd5b505050506040513d601f19601f82011682018060405250810190610580919061146b565b61058957600080fd5b6105928161148d565b90506103ff565b5050505050565b83518351811480156105b25750808251145b6105bb57600080fd5b60005b818110156107a0578281815181106105d8576105d8611438565b602002602001015163ffffffff166000036106a0578581815181106105ff576105ff611438565b60200260200101516001600160a01b03166342842e0e898988858151811061062957610629611438565b60209081029190910101516040516001600160e01b031960e086901b1681526001600160a01b0393841660048201529290911660248301526044820152606401600060405180830381600087803b15801561068357600080fd5b505af1158015610697573d6000803e3d6000fd5b50505050610790565b8581815181106106b2576106b2611438565b60200260200101516001600160a01b031663f242432a89898885815181106106dc576106dc611438565b60200260200101518886815181106106f6576106f6611438565b60200260200101516040518563ffffffff1660e01b815260040161075d94939291906001600160a01b0394851681529290931660208301526040820152606081019190915260a060808201819052600490820152630307830360e41b60c082015260e00190565b600060405180830381600087803b15801561077757600080fd5b505af115801561078b573d6000803e3d6000fd5b505050505b6107998161148d565b90506105be565b5050505050505050565b604051636eb1769f60e11b81526001600160a01b0383811660048301523060248301526000919083169063dd62ed3e90604401602060405180830381865afa1580156107fa573d6000803e3d6000fd5b505050506040513d601f19601f8201168201806040525081019061081e91906114b4565b9392505050565b61082d610ce1565b610835610c35565b600081600381111561084957610849610ec5565b036108ea57836001600160a01b03166342842e0e87878660008151811061087257610872611438565b60209081029190910101516040516001600160e01b031960e086901b1681526001600160a01b03938416600482015292909116602483015260448201526064015b600060405180830381600087803b1580156108cd57600080fd5b505af11580156108e1573d6000803e3d6000fd5b50505050610b64565b60018160038111156108fe576108fe610ec5565b0361093557604051631759616b60e11b81526001600160a01b03851690632eb2c2d6906108b3908990899088908890600401611508565b600281600381111561094957610949610ec5565b03610a70576001600160a01b0386163014610a1457836001600160a01b03166323b872dd87878560008151811061098257610982611438565b60209081029190910101516040516001600160e01b031960e086901b1681526001600160a01b03938416600482015292909116602483015260448201526064015b6020604051808303816000875af11580156109e2573d6000803e3d6000fd5b505050506040513d601f19601f82011682018060405250810190610a06919061146b565b610a0f57600080fd5b610b64565b836001600160a01b031663a9059cbb8684600081518110610a3757610a37611438565b60200260200101516040518363ffffffff1660e01b81526004016109c39291906001600160a01b03929092168252602082015260400190565b6003816003811115610a8457610a84610ec5565b03610b64576001600160a01b0385163b15610b19576000856001600160a01b031683600081518110610ab857610ab8611438565b602002602001015160405160006040518083038185875af1925050503d8060008114610b00576040519150601f19603f3d011682016040523d82523d6000602084013e610b05565b606091505b5050905080610b1357600080fd5b50610b64565b846001600160a01b03166108fc83600081518110610b3957610b39611438565b60200260200101519081150290604051600060405180830381858888f19350505050610b6457600080fd5b7f4f74c37cf0470b045087a8c6291e730e0623175419cdc46c332bb8a15f8de99e868686868686604051610b9d96959493929190611563565b60405180910390a1610baf6001600055565b505050505050565b610bbf610c35565b6001600160a01b038116610c295760405162461bcd60e51b815260206004820152602660248201527f4f776e61626c653a206e6577206f776e657220697320746865207a65726f206160448201526564647265737360d01b60648201526084015b60405180910390fd5b610c3281610c8f565b50565b6001546001600160a01b031633146103fa5760405162461bcd60e51b815260206004820181905260248201527f4f776e61626c653a2063616c6c6572206973206e6f7420746865206f776e65726044820152606401610c20565b600180546001600160a01b038381166001600160a01b0319831681179093556040519116919082907f8be0079c531659141344cd1fd0a4f28419497f9722a3daafe3b4186f6b6457e090600090a35050565b600260005403610d335760405162461bcd60e51b815260206004820152601f60248201527f5265656e7472616e637947756172643a207265656e7472616e742063616c6c006044820152606401610c20565b6002600055565b600060208284031215610d4c57600080fd5b81356001600160e01b03198116811461081e57600080fd5b6001600160a01b0381168114610c3257600080fd5b8035610d8481610d64565b919050565b634e487b7160e01b600052604160045260246000fd5b604051601f8201601f1916810167ffffffffffffffff81118282101715610dc857610dc8610d89565b604052919050565b600082601f830112610de157600080fd5b813567ffffffffffffffff811115610dfb57610dfb610d89565b610e0e601f8201601f1916602001610d9f565b818152846020838601011115610e2357600080fd5b816020850160208301376000918101602001919091529392505050565b60008060008060808587031215610e5657600080fd5b8435610e6181610d64565b93506020850135610e7181610d64565b925060408501359150606085013567ffffffffffffffff811115610e9457600080fd5b610ea087828801610dd0565b91505092959194509250565b600060208284031215610ebe57600080fd5b5035919050565b634e487b7160e01b600052602160045260246000fd5b60048110610c3257634e487b7160e01b600052602160045260246000fd5b6001600160a01b038a81168252898116602083015288166040820152606081018790526080810186905260a0810185905260c0810184905260e081018390526101208101610f4683610edb565b826101008301529a9950505050505050505050565b600067ffffffffffffffff821115610f7557610f75610d89565b5060051b60200190565b600082601f830112610f9057600080fd5b81356020610fa5610fa083610f5b565b610d9f565b82815260059290921b84018101918181019086841115610fc457600080fd5b8286015b84811015610fe8578035610fdb81610d64565b8352918301918301610fc8565b509695505050505050565b600082601f83011261100457600080fd5b81356020611014610fa083610f5b565b82815260059290921b8401810191818101908684111561103357600080fd5b8286015b84811015610fe85780358352918301918301611037565b600082601f83011261105f57600080fd5b8135602061106f610fa083610f5b565b82815260059290921b8401810191818101908684111561108e57600080fd5b8286015b84811015610fe857803563ffffffff811681146110af5760008081fd5b8352918301918301611092565b600080600080608085870312156110d257600080fd5b84356110dd81610d64565b9350602085013567ffffffffffffffff808211156110fa57600080fd5b61110688838901610f7f565b9450604087013591508082111561111c57600080fd5b61112888838901610ff3565b9350606087013591508082111561113e57600080fd5b50610ea08782880161104e565b60008060008060008060c0878903121561116457600080fd5b61116d87610d79565b955061117b60208801610d79565b9450604087013567ffffffffffffffff8082111561119857600080fd5b6111a48a838b01610f7f565b955060608901359150808211156111ba57600080fd5b6111c68a838b01610ff3565b945060808901359150808211156111dc57600080fd5b6111e88a838b01610ff3565b935060a08901359150808211156111fe57600080fd5b5061120b89828a0161104e565b9150509295509295509295565b600080600080600060a0868803121561123057600080fd5b853561123b81610d64565b9450602086013561124b81610d64565b9350604086013567ffffffffffffffff8082111561126857600080fd5b61127489838a01610ff3565b9450606088013591508082111561128a57600080fd5b61129689838a01610ff3565b935060808801359150808211156112ac57600080fd5b506112b988828901610dd0565b9150509295509295909350565b600080604083850312156112d957600080fd5b82356112e481610d64565b915060208301356112f481610d64565b809150509250929050565b60008060008060008060c0878903121561131857600080fd5b863561132381610d64565b9550602087013561133381610d64565b9450604087013561134381610d64565b9350606087013567ffffffffffffffff8082111561136057600080fd5b61136c8a838b01610ff3565b9450608089013591508082111561138257600080fd5b5061138f89828a01610ff3565b92505060a0870135600481106113a457600080fd5b809150509295509295509295565b600080600080600060a086880312156113ca57600080fd5b85356113d581610d64565b945060208601356113e581610d64565b93506040860135925060608601359150608086013567ffffffffffffffff81111561140f57600080fd5b6112b988828901610dd0565b60006020828403121561142d57600080fd5b813561081e81610d64565b634e487b7160e01b600052603260045260246000fd5b60006020828403121561146057600080fd5b815161081e81610d64565b60006020828403121561147d57600080fd5b8151801515811461081e57600080fd5b6000600182016114ad57634e487b7160e01b600052601160045260246000fd5b5060010190565b6000602082840312156114c657600080fd5b5051919050565b600081518084526020808501945080840160005b838110156114fd578151875295820195908201906001016114e1565b509495945050505050565b6001600160a01b0385811682528416602082015260a060408201819052600090611534908301856114cd565b828103606084015261154681856114cd565b838103608090940193909352505060008152602001949350505050565b6001600160a01b03878116825286811660208301528516604082015260c060608201819052600090611597908301866114cd565b82810360808401526115a981866114cd565b9150506115b583610edb565b8260a083015297965050505050505056fea264697066735822122042b0488907b2a85c3651ab6a1a7e8a5cdde6f38af814f3ef6bd6fae5af683a0164736f6c63430008110033",
  "linkReferences": {},
  "deployedLinkReferences": {}
}