{
  "_format": "hh-sol-artifact-1",
  "contractName": "SALESMETHODS",
  "sourceName": "contracts/sales/Methods.sol",
  "abi": [
    {
      "anonymous": false,
      "inputs": [
        {
          "indexed": true,
          "internalType": "uint256",
          "name": "id",
          "type": "uint256"
        },
        {
          "components": [
            {
              "internalType": "address",
              "name": "seller",
              "type": "address"
            },
            {
              "internalType": "address",
              "name": "buyer",
              "type": "address"
            },
            {
              "internalType": "address",
              "name": "currency",
              "type": "address"
            },
            {
              "internalType": "address[]",
              "name": "nftAddresses",
              "type": "address[]"
            },
            {
              "internalType": "uint256[]",
              "name": "nftIds",
              "type": "uint256[]"
            },
            {
              "internalType": "uint256[]",
              "name": "nftAmounts",
              "type": "uint256[]"
            },
            {
              "internalType": "uint256[]",
              "name": "amounts",
              "type": "uint256[]"
            },
            {
              "internalType": "uint256",
              "name": "price",
              "type": "uint256"
            },
            {
              "internalType": "uint32[]",
              "name": "nftTypes",
              "type": "uint32[]"
            },
            {
              "internalType": "enum SALESPARAMS.Status",
              "name": "status",
              "type": "uint8"
            }
          ],
          "indexed": false,
          "internalType": "struct SALESPARAMS.Sale",
          "name": "sale",
          "type": "tuple"
        }
      ],
      "name": "Cancellation",
      "type": "event"
    },
    {
      "anonymous": false,
      "inputs": [
        {
          "indexed": false,
          "internalType": "address",
          "name": "from",
          "type": "address"
        },
        {
          "indexed": false,
          "internalType": "address",
          "name": "to",
          "type": "address"
        },
        {
          "indexed": false,
          "internalType": "address",
          "name": "currency",
          "type": "address"
        },
        {
          "indexed": false,
          "internalType": "uint256[]",
          "name": "ids",
          "type": "uint256[]"
        },
        {
          "indexed": false,
          "internalType": "uint256[]",
          "name": "amounts",
          "type": "uint256[]"
        },
        {
          "indexed": false,
          "internalType": "enum Payable.PaymentTypes",
          "name": "paymentType",
          "type": "uint8"
        }
      ],
      "name": "NewPayment",
      "type": "event"
    },
    {
      "anonymous": false,
      "inputs": [
        {
          "indexed": true,
          "internalType": "uint256",
          "name": "id",
          "type": "uint256"
        },
        {
          "components": [
            {
              "internalType": "address",
              "name": "seller",
              "type": "address"
            },
            {
              "internalType": "address",
              "name": "buyer",
              "type": "address"
            },
            {
              "internalType": "address",
              "name": "currency",
              "type": "address"
            },
            {
              "internalType": "address[]",
              "name": "nftAddresses",
              "type": "address[]"
            },
            {
              "internalType": "uint256[]",
              "name": "nftIds",
              "type": "uint256[]"
            },
            {
              "internalType": "uint256[]",
              "name": "nftAmounts",
              "type": "uint256[]"
            },
            {
              "internalType": "uint256[]",
              "name": "amounts",
              "type": "uint256[]"
            },
            {
              "internalType": "uint256",
              "name": "price",
              "type": "uint256"
            },
            {
              "internalType": "uint32[]",
              "name": "nftTypes",
              "type": "uint32[]"
            },
            {
              "internalType": "enum SALESPARAMS.Status",
              "name": "status",
              "type": "uint8"
            }
          ],
          "indexed": false,
          "internalType": "struct SALESPARAMS.Sale",
          "name": "sale",
          "type": "tuple"
        }
      ],
      "name": "NewSale",
      "type": "event"
    },
    {
      "anonymous": false,
      "inputs": [
        {
          "indexed": true,
          "internalType": "address",
          "name": "previousOwner",
          "type": "address"
        },
        {
          "indexed": true,
          "internalType": "address",
          "name": "newOwner",
          "type": "address"
        }
      ],
      "name": "OwnershipTransferred",
      "type": "event"
    },
    {
      "anonymous": false,
      "inputs": [
        {
          "indexed": true,
          "internalType": "uint256",
          "name": "id",
          "type": "uint256"
        },
        {
          "components": [
            {
              "internalType": "address",
              "name": "seller",
              "type": "address"
            },
            {
              "internalType": "address",
              "name": "buyer",
              "type": "address"
            },
            {
              "internalType": "address",
              "name": "currency",
              "type": "address"
            },
            {
              "internalType": "address[]",
              "name": "nftAddresses",
              "type": "address[]"
            },
            {
              "internalType": "uint256[]",
              "name": "nftIds",
              "type": "uint256[]"
            },
            {
              "internalType": "uint256[]",
              "name": "nftAmounts",
              "type": "uint256[]"
            },
            {
              "internalType": "uint256[]",
              "name": "amounts",
              "type": "uint256[]"
            },
            {
              "internalType": "uint256",
              "name": "price",
              "type": "uint256"
            },
            {
              "internalType": "uint32[]",
              "name": "nftTypes",
              "type": "uint32[]"
            },
            {
              "internalType": "enum SALESPARAMS.Status",
              "name": "status",
              "type": "uint8"
            }
          ],
          "indexed": false,
          "internalType": "struct SALESPARAMS.Sale",
          "name": "sale",
          "type": "tuple"
        }
      ],
      "name": "Purchase",
      "type": "event"
    },
    {
      "inputs": [
        {
          "internalType": "uint256",
          "name": "saleId",
          "type": "uint256"
        }
      ],
      "name": "buy",
      "outputs": [],
      "stateMutability": "payable",
      "type": "function"
    },
    {
      "inputs": [
        {
          "internalType": "uint256",
          "name": "saleId",
          "type": "uint256"
        }
      ],
      "name": "cancel",
      "outputs": [],
      "stateMutability": "nonpayable",
      "type": "function"
    },
    {
      "inputs": [
        {
          "internalType": "address",
          "name": "sender",
          "type": "address"
        },
        {
          "internalType": "address[]",
          "name": "nftAddressArray",
          "type": "address[]"
        },
        {
          "internalType": "uint256[]",
          "name": "nftTokenIdArray",
          "type": "uint256[]"
        },
        {
          "internalType": "uint32[]",
          "name": "nftTokenTypeArray",
          "type": "uint32[]"
        }
      ],
      "name": "checkItemsApproval",
      "outputs": [],
      "stateMutability": "view",
      "type": "function"
    },
    {
      "inputs": [
        {
          "internalType": "address",
          "name": "from",
          "type": "address"
        },
        {
          "internalType": "address",
          "name": "currency",
          "type": "address"
        }
      ],
      "name": "checkTokensApproval",
      "outputs": [
        {
          "internalType": "uint256",
          "name": "",
          "type": "uint256"
        }
      ],
      "stateMutability": "view",
      "type": "function"
    },
    {
      "inputs": [],
      "name": "discounts",
      "outputs": [
        {
          "internalType": "address",
          "name": "",
          "type": "address"
        }
      ],
      "stateMutability": "view",
      "type": "function"
    },
    {
      "inputs": [],
      "name": "fee",
      "outputs": [
        {
          "internalType": "uint256",
          "name": "",
          "type": "uint256"
        }
      ],
      "stateMutability": "view",
      "type": "function"
    },
    {
      "inputs": [
        {
          "internalType": "uint256",
          "name": "saleId",
          "type": "uint256"
        }
      ],
      "name": "get",
      "outputs": [
        {
          "components": [
            {
              "internalType": "address",
              "name": "seller",
              "type": "address"
            },
            {
              "internalType": "address",
              "name": "buyer",
              "type": "address"
            },
            {
              "internalType": "address",
              "name": "currency",
              "type": "address"
            },
            {
              "internalType": "address[]",
              "name": "nftAddresses",
              "type": "address[]"
            },
            {
              "internalType": "uint256[]",
              "name": "nftIds",
              "type": "uint256[]"
            },
            {
              "internalType": "uint256[]",
              "name": "nftAmounts",
              "type": "uint256[]"
            },
            {
              "internalType": "uint256[]",
              "name": "amounts",
              "type": "uint256[]"
            },
            {
              "internalType": "uint256",
              "name": "price",
              "type": "uint256"
            },
            {
              "internalType": "uint32[]",
              "name": "nftTypes",
              "type": "uint32[]"
            },
            {
              "internalType": "enum SALESPARAMS.Status",
              "name": "status",
              "type": "uint8"
            }
          ],
          "internalType": "struct SALESPARAMS.Sale",
          "name": "",
          "type": "tuple"
        }
      ],
      "stateMutability": "view",
      "type": "function"
    },
    {
      "inputs": [],
      "name": "id",
      "outputs": [
        {
          "internalType": "uint256",
          "name": "",
          "type": "uint256"
        }
      ],
      "stateMutability": "view",
      "type": "function"
    },
    {
      "inputs": [],
      "name": "methods",
      "outputs": [
        {
          "internalType": "address",
          "name": "",
          "type": "address"
        }
      ],
      "stateMutability": "view",
      "type": "function"
    },
    {
      "inputs": [
        {
          "internalType": "address",
          "name": "",
          "type": "address"
        },
        {
          "internalType": "address",
          "name": "",
          "type": "address"
        },
        {
          "internalType": "uint256[]",
          "name": "",
          "type": "uint256[]"
        },
        {
          "internalType": "uint256[]",
          "name": "",
          "type": "uint256[]"
        },
        {
          "internalType": "bytes",
          "name": "",
          "type": "bytes"
        }
      ],
      "name": "onERC1155BatchReceived",
      "outputs": [
        {
          "internalType": "bytes4",
          "name": "",
          "type": "bytes4"
        }
      ],
      "stateMutability": "nonpayable",
      "type": "function"
    },
    {
      "inputs": [
        {
          "internalType": "address",
          "name": "",
          "type": "address"
        },
        {
          "internalType": "address",
          "name": "",
          "type": "address"
        },
        {
          "internalType": "uint256",
          "name": "",
          "type": "uint256"
        },
        {
          "internalType": "uint256",
          "name": "",
          "type": "uint256"
        },
        {
          "internalType": "bytes",
          "name": "",
          "type": "bytes"
        }
      ],
      "name": "onERC1155Received",
      "outputs": [
        {
          "internalType": "bytes4",
          "name": "",
          "type": "bytes4"
        }
      ],
      "stateMutability": "nonpayable",
      "type": "function"
    },
    {
      "inputs": [
        {
          "internalType": "address",
          "name": "",
          "type": "address"
        },
        {
          "internalType": "address",
          "name": "",
          "type": "address"
        },
        {
          "internalType": "uint256",
          "name": "",
          "type": "uint256"
        },
        {
          "internalType": "bytes",
          "name": "",
          "type": "bytes"
        }
      ],
      "name": "onERC721Received",
      "outputs": [
        {
          "internalType": "bytes4",
          "name": "",
          "type": "bytes4"
        }
      ],
      "stateMutability": "nonpayable",
      "type": "function"
    },
    {
      "inputs": [
        {
          "internalType": "address",
          "name": "buyer",
          "type": "address"
        },
        {
          "internalType": "uint256",
          "name": "saleId",
          "type": "uint256"
        }
      ],
      "name": "operationDiscountCosts",
      "outputs": [
        {
          "internalType": "uint256",
          "name": "discount",
          "type": "uint256"
        },
        {
          "internalType": "uint256",
          "name": "operationFee",
          "type": "uint256"
        },
        {
          "internalType": "uint256",
          "name": "operationFeeDiscount",
          "type": "uint256"
        },
        {
          "internalType": "uint256",
          "name": "bmarketFee",
          "type": "uint256"
        },
        {
          "internalType": "uint256",
          "name": "totalToPay",
          "type": "uint256"
        }
      ],
      "stateMutability": "view",
      "type": "function"
    },
    {
      "inputs": [],
      "name": "owner",
      "outputs": [
        {
          "internalType": "address",
          "name": "",
          "type": "address"
        }
      ],
      "stateMutability": "view",
      "type": "function"
    },
    {
      "inputs": [
        {
          "internalType": "address",
          "name": "from",
          "type": "address"
        },
        {
          "internalType": "address",
          "name": "to",
          "type": "address"
        },
        {
          "internalType": "address",
          "name": "currency",
          "type": "address"
        },
        {
          "internalType": "uint256[]",
          "name": "ids",
          "type": "uint256[]"
        },
        {
          "internalType": "uint256[]",
          "name": "amounts",
          "type": "uint256[]"
        },
        {
          "internalType": "enum Payable.PaymentTypes",
          "name": "paymentType",
          "type": "uint8"
        }
      ],
      "name": "pay",
      "outputs": [],
      "stateMutability": "payable",
      "type": "function"
    },
    {
      "inputs": [],
      "name": "renounceOwnership",
      "outputs": [],
      "stateMutability": "nonpayable",
      "type": "function"
    },
    {
      "inputs": [
        {
          "internalType": "uint256",
          "name": "",
          "type": "uint256"
        }
      ],
      "name": "sales",
      "outputs": [
        {
          "internalType": "address",
          "name": "seller",
          "type": "address"
        },
        {
          "internalType": "address",
          "name": "buyer",
          "type": "address"
        },
        {
          "internalType": "address",
          "name": "currency",
          "type": "address"
        },
        {
          "internalType": "uint256",
          "name": "price",
          "type": "uint256"
        },
        {
          "internalType": "enum SALESPARAMS.Status",
          "name": "status",
          "type": "uint8"
        }
      ],
      "stateMutability": "view",
      "type": "function"
    },
    {
      "inputs": [
        {
          "internalType": "address[]",
          "name": "_nftAddresses",
          "type": "address[]"
        },
        {
          "internalType": "uint256[]",
          "name": "_nftIds",
          "type": "uint256[]"
        },
        {
          "internalType": "uint256[]",
          "name": "_nftAmounts",
          "type": "uint256[]"
        },
        {
          "internalType": "uint32[]",
          "name": "_nftTypes",
          "type": "uint32[]"
        },
        {
          "internalType": "uint256",
          "name": "_price",
          "type": "uint256"
        },
        {
          "internalType": "address",
          "name": "_currency",
          "type": "address"
        }
      ],
      "name": "sell",
      "outputs": [],
      "stateMutability": "nonpayable",
      "type": "function"
    },
    {
      "inputs": [
        {
          "internalType": "uint256",
          "name": "_fee",
          "type": "uint256"
        },
        {
          "internalType": "address",
          "name": "_discounts",
          "type": "address"
        },
        {
          "internalType": "address",
          "name": "_methods",
          "type": "address"
        }
      ],
      "name": "setParams",
      "outputs": [],
      "stateMutability": "nonpayable",
      "type": "function"
    },
    {
      "inputs": [
        {
          "internalType": "bytes4",
          "name": "interfaceId",
          "type": "bytes4"
        }
      ],
      "name": "supportsInterface",
      "outputs": [
        {
          "internalType": "bool",
          "name": "",
          "type": "bool"
        }
      ],
      "stateMutability": "view",
      "type": "function"
    },
    {
      "inputs": [
        {
          "internalType": "address",
          "name": "newOwner",
          "type": "address"
        }
      ],
      "name": "transferOwnership",
      "outputs": [],
      "stateMutability": "nonpayable",
      "type": "function"
    },
    {
      "inputs": [
        {
          "internalType": "address",
          "name": "from",
          "type": "address"
        },
        {
          "internalType": "address",
          "name": "to",
          "type": "address"
        },
        {
          "internalType": "address[]",
          "name": "nftAddresses",
          "type": "address[]"
        },
        {
          "internalType": "uint256[]",
          "name": "nftIds",
          "type": "uint256[]"
        },
        {
          "internalType": "uint256[]",
          "name": "nftAmounts",
          "type": "uint256[]"
        },
        {
          "internalType": "uint32[]",
          "name": "nftTypes",
          "type": "uint32[]"
        }
      ],
      "name": "transferTokens",
      "outputs": [],
      "stateMutability": "nonpayable",
      "type": "function"
    }
  ],
  "bytecode": "0x6080604052601460035534801561001557600080fd5b50600160005561002433610029565b61007b565b600180546001600160a01b038381166001600160a01b0319831681179093556040519116919082907f8be0079c531659141344cd1fd0a4f28419497f9722a3daafe3b4186f6b6457e090600090a35050565b612c1a806200008b6000396000f3fe6080604052600436106101355760003560e01c8063af640d0f116100ab578063c01f59c21161006f578063c01f59c214610411578063d96a094a14610424578063ddca3f4314610437578063f23a6e611461044d578063f2fde38b14610479578063f376d7981461049957600080fd5b8063af640d0f14610315578063b5f522f714610339578063bb9a581a146103a5578063bc197c81146103c5578063bdd3dc8e146103f157600080fd5b8063715018a6116100fd578063715018a61461025557806375af65d11461026a5780638da5cb5b1461028a5780639507d39a146102a8578063a0e3eac9146102d5578063a125ea04146102f557600080fd5b806301ffc9a71461013a578063150b7a021461016f57806329907a91146101b357806340283e2a146101eb57806340e58ee514610233575b600080fd5b34801561014657600080fd5b5061015a610155366004611d03565b6104b9565b60405190151581526020015b60405180910390f35b34801561017b57600080fd5b5061019a61018a366004611e09565b630a85bd0160e11b949350505050565b6040516001600160e01b03199091168152602001610166565b3480156101bf57600080fd5b506005546101d3906001600160a01b031681565b6040516001600160a01b039091168152602001610166565b3480156101f757600080fd5b5061020b610206366004611e75565b6104f0565b604080519586526020860194909452928401919091526060830152608082015260a001610166565b34801561023f57600080fd5b5061025361024e366004611ea1565b6105df565b005b34801561026157600080fd5b5061025361068c565b34801561027657600080fd5b506004546101d3906001600160a01b031681565b34801561029657600080fd5b506001546001600160a01b03166101d3565b3480156102b457600080fd5b506102c86102c3366004611ea1565b6106a0565b6040516101669190611f8e565b3480156102e157600080fd5b506102536102f03660046120e8565b610917565b34801561030157600080fd5b50610253610310366004612326565b610b1a565b34801561032157600080fd5b5061032b60025481565b604051908152602001610166565b34801561034557600080fd5b50610394610354366004611ea1565b600660205260009081526040902080546001820154600283015460078401546009909401546001600160a01b039384169492841693909116919060ff1685565b6040516101669594939291906123b5565b3480156103b157600080fd5b506102536103c03660046123f3565b610cbe565b3480156103d157600080fd5b5061019a6103e03660046124c0565b63bc197c8160e01b95945050505050565b3480156103fd57600080fd5b5061032b61040c36600461256e565b610eae565b61025361041f3660046125a7565b610f29565b610253610432366004611ea1565b611285565b34801561044357600080fd5b5061032b60035481565b34801561045957600080fd5b5061019a61046836600461265a565b63f23a6e6160e01b95945050505050565b34801561048557600080fd5b506102536104943660046126c3565b61195a565b3480156104a557600080fd5b506102536104b43660046126e0565b6119d8565b60006001600160e01b03198216630271189760e51b14806104ea57506301ffc9a760e01b6001600160e01b03198316145b92915050565b6004805460405163ad6a874560e01b81526001600160a01b03858116938201939093526000928392839283928392169063ad6a874590602401602060405180830381865afa158015610546573d6000803e3d6000fd5b505050506040513d601f19601f8201168201806040525081019061056a9190612722565b60035460008881526006602052604090206007015491965061058b91612751565b9350846001146105a45761059f8585612751565b6105a7565b60005b92506105b38385612773565b6000878152600660205260409020600701549092506105d3908490612773565b90509295509295909350565b6000818152600660205260409020546001600160a01b0316331461060257600080fd5b60008181526006602052604081206009015460ff16600281111561062857610628611f64565b1461063257600080fd5b6000818152600660205260409081902060098101805460ff19166001179055905182917f45bbfa99349b2689ce4e10e0b37f567401f51449cb6844156ac9424e07c1c3b9916106819190612981565b60405180910390a250565b610694611a21565b61069e6000611a7b565b565b6106a8611b26565b60008281526006602090815260409182902082516101408101845281546001600160a01b039081168252600183015481168285015260028301541681850152600382018054855181860281018601909652808652919492936060860193929083018282801561074057602002820191906000526020600020905b81546001600160a01b03168152600190910190602001808311610722575b505050505081526020016004820180548060200260200160405190810160405280929190818152602001828054801561079857602002820191906000526020600020905b815481526020019060010190808311610784575b50505050508152602001600582018054806020026020016040519081016040528092919081815260200182805480156107f057602002820191906000526020600020905b8154815260200190600101908083116107dc575b505050505081526020016006820180548060200260200160405190810160405280929190818152602001828054801561084857602002820191906000526020600020905b815481526020019060010190808311610834575b5050505050815260200160078201548152602001600882018054806020026020016040519081016040528092919081815260200182805480156108d657602002820191906000526020600020906000905b82829054906101000a900463ffffffff1663ffffffff16815260200190600401906020826003010492830192600103820291508084116108995790505b5050509183525050600982015460209091019060ff1660028111156108fd576108fd611f64565b600281111561090e5761090e611f64565b90525092915050565b6000821161092457600080fd5b881580159061093257508489145b61093b57600080fd5b6109da338b8b8080602002602001604051908101604052809392919081815260200183836020028082843760009201919091525050604080516020808f0282810182019093528e82529093508e92508d91829185019084908082843760009201919091525050604080516020808c0282810182019093528b82529093508b92508a918291850190849080828437600092019190915250610b1a92505050565b60025460009081526006602052604090206109f9906003018b8b611ba4565b506002546000908152600660205260409020610a19906004018989611c07565b506002546000908152600660205260409020610a39906005018787611c07565b506002546000908152600660205260409020610a59906008018585611c42565b506002805460009081526006602052604080822060070185905582548252808220830180546001600160a01b0386166001600160a01b0319918216179091558354835281832080549091163317905582548252808220600901805460ff19169055915480825290829020915190917fa3a165eed6c3db111facd8effcd6d17e0999eae544e57dd8778471f2b377904f91610af39190612981565b60405180910390a2600260008154610b0a90612a8d565b9091555050505050505050505050565b60005b8351811015610cb757818181518110610b3857610b38612aa6565b602002602001015163ffffffff16600003610c1057306001600160a01b0316848281518110610b6957610b69612aa6565b60200260200101516001600160a01b031663081812fc858481518110610b9157610b91612aa6565b60200260200101516040518263ffffffff1660e01b8152600401610bb791815260200190565b602060405180830381865afa158015610bd4573d6000803e3d6000fd5b505050506040513d601f19601f82011682018060405250810190610bf89190612abc565b6001600160a01b031614610c0b57600080fd5b610ca7565b838181518110610c2257610c22612aa6565b602090810291909101015160405163e985e9c560e01b81526001600160a01b0387811660048301523060248301529091169063e985e9c590604401602060405180830381865afa158015610c7a573d6000803e3d6000fd5b505050506040513d601f19601f82011682018060405250810190610c9e9190612ad9565b610ca757600080fd5b610cb081612a8d565b9050610b1d565b5050505050565b8351835181148015610cd05750808251145b610cd957600080fd5b60005b81811015610ea457828181518110610cf657610cf6612aa6565b602002602001015163ffffffff16600003610da457858181518110610d1d57610d1d612aa6565b60200260200101516001600160a01b03166342842e0e8989888581518110610d4757610d47612aa6565b60200260200101516040518463ffffffff1660e01b8152600401610d6d93929190612afb565b600060405180830381600087803b158015610d8757600080fd5b505af1158015610d9b573d6000803e3d6000fd5b50505050610e94565b858181518110610db657610db6612aa6565b60200260200101516001600160a01b031663f242432a8989888581518110610de057610de0612aa6565b6020026020010151888681518110610dfa57610dfa612aa6565b60200260200101516040518563ffffffff1660e01b8152600401610e6194939291906001600160a01b0394851681529290931660208301526040820152606081019190915260a060808201819052600490820152630307830360e41b60c082015260e00190565b600060405180830381600087803b158015610e7b57600080fd5b505af1158015610e8f573d6000803e3d6000fd5b505050505b610e9d81612a8d565b9050610cdc565b5050505050505050565b604051636eb1769f60e11b81526001600160a01b0383811660048301523060248301526000919083169063dd62ed3e90604401602060405180830381865afa158015610efe573d6000803e3d6000fd5b505050506040513d601f19601f82011682018060405250810190610f229190612722565b9392505050565b610f31611acd565b610f39611a21565b6000816003811115610f4d57610f4d611f64565b03610fd357836001600160a01b03166342842e0e878786600081518110610f7657610f76612aa6565b60200260200101516040518463ffffffff1660e01b8152600401610f9c93929190612afb565b600060405180830381600087803b158015610fb657600080fd5b505af1158015610fca573d6000803e3d6000fd5b50505050611232565b6001816003811115610fe757610fe7611f64565b0361101e57604051631759616b60e11b81526001600160a01b03851690632eb2c2d690610f9c908990899088908890600401612b1f565b600281600381111561103257611032611f64565b0361113e576001600160a01b03861630146110e257836001600160a01b03166323b872dd87878560008151811061106b5761106b612aa6565b60200260200101516040518463ffffffff1660e01b815260040161109193929190612afb565b6020604051808303816000875af11580156110b0573d6000803e3d6000fd5b505050506040513d601f19601f820116820180604052508101906110d49190612ad9565b6110dd57600080fd5b611232565b836001600160a01b031663a9059cbb868460008151811061110557611105612aa6565b60200260200101516040518363ffffffff1660e01b81526004016110919291906001600160a01b03929092168252602082015260400190565b600381600381111561115257611152611f64565b03611232576001600160a01b0385163b156111e7576000856001600160a01b03168360008151811061118657611186612aa6565b602002602001015160405160006040518083038185875af1925050503d80600081146111ce576040519150601f19603f3d011682016040523d82523d6000602084013e6111d3565b606091505b50509050806111e157600080fd5b50611232565b846001600160a01b03166108fc8360008151811061120757611207612aa6565b60200260200101519081150290604051600060405180830381858888f1935050505061123257600080fd5b7f4f74c37cf0470b045087a8c6291e730e0623175419cdc46c332bb8a15f8de99e86868686868660405161126b96959493929190612b7a565b60405180910390a161127d6001600055565b505050505050565b600254811061129357600080fd5b60008181526006602052604081206009015460ff1660028111156112b9576112b9611f64565b146112c357600080fd5b6000806112d033846104f0565b5060008781526006602052604090206002015491955093506001600160a01b03161591506114e8905057600083815260066020526040902060028101546007909101546001600160a01b03909116906323b872dd9033903090611334908790612773565b6040518463ffffffff1660e01b815260040161135293929190612afb565b6020604051808303816000875af1158015611371573d6000803e3d6000fd5b505050506040513d601f19601f820116820180604052508101906113959190612ad9565b61139e57600080fd5b6000838152600660205260409020600281015481546007909201546001600160a01b03918216926323b872dd9233929116906113db908690612773565b6040518463ffffffff1660e01b81526004016113f993929190612afb565b6020604051808303816000875af1158015611418573d6000803e3d6000fd5b505050506040513d601f19601f8201168201806040525081019061143c9190612ad9565b61144557600080fd5b6000838152600660205260409020600201546001600160a01b03166323b872dd336114786001546001600160a01b031690565b846040518463ffffffff1660e01b815260040161149793929190612afb565b6020604051808303816000875af11580156114b6573d6000803e3d6000fd5b505050506040513d601f19601f820116820180604052508101906114da9190612ad9565b6114e357600080fd5b611594565b600083815260066020526040902060070154611505908390612773565b34101561151157600080fd5b600083815260066020526040902080546007909101546001600160a01b03909116906108fc90611542908490612773565b6040518115909202916000818181858888f1935050505061156257600080fd5b6001546040516001600160a01b039091169082156108fc029083906000818181858888f1935050505061159457600080fd5b600083815260066020908152604091829020805460039091018054845181850281018501909552808552611759946001600160a01b0390931693309392919083018282801561160c57602002820191906000526020600020905b81546001600160a01b031681526001909101906020018083116115ee575b5050506000898152600660209081526040918290206004018054835181840281018401909452808452929450925083018282801561166957602002820191906000526020600020905b815481526020019060010190808311611655575b50505060008a815260066020908152604091829020600501805483518184028101840190945280845292945092508301828280156116c657602002820191906000526020600020905b8154815260200190600101908083116116b2575b50505060008b8152600660209081526040918290206008018054835181840281018401909452808452929450925083018282801561174f57602002820191906000526020600020906000905b82829054906101000a900463ffffffff1663ffffffff16815260200190600401906020826003010492830192600103820291508084116117125790505b5050505050610cbe565b6118e830336006600087815260200190815260200160002060030180548060200260200160405190810160405280929190818152602001828054801561160c576020028201919060005260206000209081546001600160a01b031681526001909101906020018083116115ee575050506000898152600660209081526040918290206004018054835181840281018401909452808452929450925083018282801561166957602002820191906000526020600020908154815260200190600101908083116116555750505060008a815260066020908152604091829020600501805483518184028101840190945280845292945092508301828280156116c657602002820191906000526020600020908154815260200190600101908083116116b25750505060008b8152600660209081526040918290206008018054835181840281018401909452808452929450925083018282801561174f576000918252602091829020805463ffffffff1684529082028301929091600491018084116117125790505050505050610cbe565b6000838152600660205260409081902060098101805460ff19166002179055600181018054336001600160a01b0319909116179055905184917fdc0948594c163e543868892583d058de5e6bc36d60bdc3cbed145f52aba17c7d9161194d9190612981565b60405180910390a2505050565b611962611a21565b6001600160a01b0381166119cc5760405162461bcd60e51b815260206004820152602660248201527f4f776e61626c653a206e6577206f776e657220697320746865207a65726f206160448201526564647265737360d01b60648201526084015b60405180910390fd5b6119d581611a7b565b50565b6119e0611a21565b600083116119ed57600080fd5b600392909255600480546001600160a01b039283166001600160a01b03199182161790915560058054929093169116179055565b6001546001600160a01b0316331461069e5760405162461bcd60e51b815260206004820181905260248201527f4f776e61626c653a2063616c6c6572206973206e6f7420746865206f776e657260448201526064016119c3565b600180546001600160a01b038381166001600160a01b0319831681179093556040519116919082907f8be0079c531659141344cd1fd0a4f28419497f9722a3daafe3b4186f6b6457e090600090a35050565b600260005403611b1f5760405162461bcd60e51b815260206004820152601f60248201527f5265656e7472616e637947756172643a207265656e7472616e742063616c6c0060448201526064016119c3565b6002600055565b60405180610140016040528060006001600160a01b0316815260200160006001600160a01b0316815260200160006001600160a01b0316815260200160608152602001606081526020016060815260200160608152602001600081526020016060815260200160006002811115611b9f57611b9f611f64565b905290565b828054828255906000526020600020908101928215611bf7579160200282015b82811115611bf75781546001600160a01b0319166001600160a01b03843516178255602090920191600190910190611bc4565b50611c03929150611cee565b5090565b828054828255906000526020600020908101928215611bf7579160200282015b82811115611bf7578235825591602001919060010190611c27565b82805482825590600052602060002090600701600890048101928215611bf75791602002820160005b83821115611cb557833563ffffffff1683826101000a81548163ffffffff021916908363ffffffff1602179055509260200192600401602081600301049283019260010302611c6b565b8015611ce55782816101000a81549063ffffffff0219169055600401602081600301049283019260010302611cb5565b5050611c039291505b5b80821115611c035760008155600101611cef565b600060208284031215611d1557600080fd5b81356001600160e01b031981168114610f2257600080fd5b6001600160a01b03811681146119d557600080fd5b8035611d4d81611d2d565b919050565b634e487b7160e01b600052604160045260246000fd5b604051601f8201601f1916810167ffffffffffffffff81118282101715611d9157611d91611d52565b604052919050565b600082601f830112611daa57600080fd5b813567ffffffffffffffff811115611dc457611dc4611d52565b611dd7601f8201601f1916602001611d68565b818152846020838601011115611dec57600080fd5b816020850160208301376000918101602001919091529392505050565b60008060008060808587031215611e1f57600080fd5b8435611e2a81611d2d565b93506020850135611e3a81611d2d565b925060408501359150606085013567ffffffffffffffff811115611e5d57600080fd5b611e6987828801611d99565b91505092959194509250565b60008060408385031215611e8857600080fd5b8235611e9381611d2d565b946020939093013593505050565b600060208284031215611eb357600080fd5b5035919050565b600081518084526020808501945080840160005b83811015611ef35781516001600160a01b031687529582019590820190600101611ece565b509495945050505050565b600081518084526020808501945080840160005b83811015611ef357815187529582019590820190600101611f12565b600081518084526020808501945080840160005b83811015611ef357815163ffffffff1687529582019590820190600101611f42565b634e487b7160e01b600052602160045260246000fd5b60038110611f8a57611f8a611f64565b9052565b60208152611fa86020820183516001600160a01b03169052565b60006020830151611fc460408401826001600160a01b03169052565b5060408301516001600160a01b0381166060840152506060830151610140806080850152611ff6610160850183611eba565b91506080850151601f19808685030160a08701526120148483611efe565b935060a08701519150808685030160c08701526120318483611efe565b935060c08701519150808685030160e087015261204e8483611efe565b935060e0870151915061010082818801528088015192505061012081878603018188015261207c8584611f2e565b9450808801519250505061209282860182611f7a565b5090949350505050565b60008083601f8401126120ae57600080fd5b50813567ffffffffffffffff8111156120c657600080fd5b6020830191508360208260051b85010111156120e157600080fd5b9250929050565b60008060008060008060008060008060c08b8d03121561210757600080fd5b8a3567ffffffffffffffff8082111561211f57600080fd5b61212b8e838f0161209c565b909c509a5060208d013591508082111561214457600080fd5b6121508e838f0161209c565b909a50985060408d013591508082111561216957600080fd5b6121758e838f0161209c565b909850965060608d013591508082111561218e57600080fd5b5061219b8d828e0161209c565b90955093505060808b013591506121b460a08c01611d42565b90509295989b9194979a5092959850565b600067ffffffffffffffff8211156121df576121df611d52565b5060051b60200190565b600082601f8301126121fa57600080fd5b8135602061220f61220a836121c5565b611d68565b82815260059290921b8401810191818101908684111561222e57600080fd5b8286015b8481101561225257803561224581611d2d565b8352918301918301612232565b509695505050505050565b600082601f83011261226e57600080fd5b8135602061227e61220a836121c5565b82815260059290921b8401810191818101908684111561229d57600080fd5b8286015b8481101561225257803583529183019183016122a1565b600082601f8301126122c957600080fd5b813560206122d961220a836121c5565b82815260059290921b840181019181810190868411156122f857600080fd5b8286015b8481101561225257803563ffffffff811681146123195760008081fd5b83529183019183016122fc565b6000806000806080858703121561233c57600080fd5b843561234781611d2d565b9350602085013567ffffffffffffffff8082111561236457600080fd5b612370888389016121e9565b9450604087013591508082111561238657600080fd5b6123928883890161225d565b935060608701359150808211156123a857600080fd5b50611e69878288016122b8565b6001600160a01b0386811682528581166020830152841660408201526060810183905260a081016123e96080830184611f7a565b9695505050505050565b60008060008060008060c0878903121561240c57600080fd5b61241587611d42565b955061242360208801611d42565b9450604087013567ffffffffffffffff8082111561244057600080fd5b61244c8a838b016121e9565b9550606089013591508082111561246257600080fd5b61246e8a838b0161225d565b9450608089013591508082111561248457600080fd5b6124908a838b0161225d565b935060a08901359150808211156124a657600080fd5b506124b389828a016122b8565b9150509295509295509295565b600080600080600060a086880312156124d857600080fd5b85356124e381611d2d565b945060208601356124f381611d2d565b9350604086013567ffffffffffffffff8082111561251057600080fd5b61251c89838a0161225d565b9450606088013591508082111561253257600080fd5b61253e89838a0161225d565b9350608088013591508082111561255457600080fd5b5061256188828901611d99565b9150509295509295909350565b6000806040838503121561258157600080fd5b823561258c81611d2d565b9150602083013561259c81611d2d565b809150509250929050565b60008060008060008060c087890312156125c057600080fd5b86356125cb81611d2d565b955060208701356125db81611d2d565b945060408701356125eb81611d2d565b9350606087013567ffffffffffffffff8082111561260857600080fd5b6126148a838b0161225d565b9450608089013591508082111561262a57600080fd5b5061263789828a0161225d565b92505060a08701356004811061264c57600080fd5b809150509295509295509295565b600080600080600060a0868803121561267257600080fd5b853561267d81611d2d565b9450602086013561268d81611d2d565b93506040860135925060608601359150608086013567ffffffffffffffff8111156126b757600080fd5b61256188828901611d99565b6000602082840312156126d557600080fd5b8135610f2281611d2d565b6000806000606084860312156126f557600080fd5b83359250602084013561270781611d2d565b9150604084013561271781611d2d565b809150509250925092565b60006020828403121561273457600080fd5b5051919050565b634e487b7160e01b600052601160045260246000fd5b60008261276e57634e487b7160e01b600052601260045260246000fd5b500490565b818103818111156104ea576104ea61273b565b6000815480845260208085019450836000528060002060005b83811015611ef35781546001600160a01b03168752958201956001918201910161279f565b6000815480845260208085019450836000528060002060005b83811015611ef3578154875295820195600191820191016127dd565b805480835260008281526020808220940193909190825b8260078201101561288857815463ffffffff8082168852602082811c821690890152604082811c821690890152606082811c821690890152608082811c82169089015260a082811c82169089015260c082811c9091169088015260e090811c9087015261010090950194600190910190600801612810565b905490828110156128a65763ffffffff821686526020909501946001015b828110156128c657602082901c63ffffffff168652602095909501946001015b828110156128e55763ffffffff604083901c1686526020909501946001015b828110156129045763ffffffff606083901c1686526020909501946001015b828110156129235763ffffffff608083901c1686526020909501946001015b828110156129425763ffffffff60a083901c1686526020909501946001015b828110156129615763ffffffff60c083901c1686526020909501946001015b828110156129775760e082901c86526020860195505b5093949350505050565b602081526129aa6020820161299d84546001600160a01b031690565b6001600160a01b03169052565b60006129c060018401546001600160a01b031690565b6001600160a01b0390811660408401526002840154166060830152610140608083018190526129f6610160840160038601612786565b601f19808583030160a0860152612a1082600488016127c4565b9150808583030160c0860152612a2982600588016127c4565b9150808583030160e0860152612a4282600688016127c4565b91506007860154610100860152808583030161012086015250612a6881600887016127f9565b9050612a78600986015460ff1690565b612a8483860182611f7a565b50949350505050565b600060018201612a9f57612a9f61273b565b5060010190565b634e487b7160e01b600052603260045260246000fd5b600060208284031215612ace57600080fd5b8151610f2281611d2d565b600060208284031215612aeb57600080fd5b81518015158114610f2257600080fd5b6001600160a01b039384168152919092166020820152604081019190915260600190565b6001600160a01b0385811682528416602082015260a060408201819052600090612b4b90830185611efe565b8281036060840152612b5d8185611efe565b838103608090940193909352505060008152602001949350505050565b6001600160a01b03878116825286811660208301528516604082015260c060608201819052600090612bae90830186611efe565b8281036080840152612bc08186611efe565b91505060048310612bd357612bd3611f64565b8260a083015297965050505050505056fea26469706673582212203d6880cebe6dc4c546ab5d2f2f6b2024ae918a3a0522a1fc0925e3fb84e566f964736f6c63430008110033",
  "linkReferences": {},
  "deployedLinkReferences": {}
}