{
  "_format": "hh-sol-artifact-1",
  "contractName": "QUsers",
  "sourceName": "contracts/private/Users.sol",
  "abi": [
    {
      "inputs": [
        {
          "internalType": "address",
          "name": "bgames",
          "type": "address"
        }
      ],
      "stateMutability": "nonpayable",
      "type": "constructor"
    },
    {
      "anonymous": false,
      "inputs": [
        {
          "indexed": true,
          "internalType": "address",
          "name": "from",
          "type": "address"
        },
        {
          "indexed": true,
          "internalType": "address",
          "name": "to",
          "type": "address"
        },
        {
          "indexed": false,
          "internalType": "uint256",
          "name": "amount",
          "type": "uint256"
        }
      ],
      "name": "BMarketTransfer",
      "type": "event"
    },
    {
      "anonymous": false,
      "inputs": [
        {
          "indexed": true,
          "internalType": "address",
          "name": "user",
          "type": "address"
        },
        {
          "indexed": false,
          "internalType": "uint256",
          "name": "amount",
          "type": "uint256"
        }
      ],
      "name": "Deposit",
      "type": "event"
    },
    {
      "anonymous": false,
      "inputs": [
        {
          "indexed": true,
          "internalType": "address",
          "name": "partner",
          "type": "address"
        },
        {
          "indexed": false,
          "internalType": "uint256",
          "name": "fee",
          "type": "uint256"
        }
      ],
      "name": "NewPartner",
      "type": "event"
    },
    {
      "anonymous": false,
      "inputs": [
        {
          "indexed": true,
          "internalType": "address",
          "name": "from",
          "type": "address"
        },
        {
          "indexed": true,
          "internalType": "address",
          "name": "to",
          "type": "address"
        },
        {
          "indexed": false,
          "internalType": "uint256",
          "name": "amount",
          "type": "uint256"
        }
      ],
      "name": "Transfer",
      "type": "event"
    },
    {
      "anonymous": false,
      "inputs": [
        {
          "indexed": true,
          "internalType": "address",
          "name": "user",
          "type": "address"
        },
        {
          "indexed": false,
          "internalType": "uint256",
          "name": "id",
          "type": "uint256"
        },
        {
          "indexed": false,
          "internalType": "bool",
          "name": "typeAccount",
          "type": "bool"
        }
      ],
      "name": "UserAdded",
      "type": "event"
    },
    {
      "anonymous": false,
      "inputs": [
        {
          "indexed": true,
          "internalType": "address",
          "name": "user",
          "type": "address"
        },
        {
          "indexed": false,
          "internalType": "uint256",
          "name": "amount",
          "type": "uint256"
        }
      ],
      "name": "Withdraw",
      "type": "event"
    },
    {
      "inputs": [
        {
          "internalType": "address",
          "name": "user",
          "type": "address"
        },
        {
          "internalType": "uint256",
          "name": "game",
          "type": "uint256"
        }
      ],
      "name": "addGame",
      "outputs": [],
      "stateMutability": "nonpayable",
      "type": "function"
    },
    {
      "inputs": [
        {
          "internalType": "address",
          "name": "partner",
          "type": "address"
        },
        {
          "internalType": "uint256",
          "name": "fee",
          "type": "uint256"
        }
      ],
      "name": "addPartner",
      "outputs": [],
      "stateMutability": "nonpayable",
      "type": "function"
    },
    {
      "inputs": [
        {
          "internalType": "address",
          "name": "user",
          "type": "address"
        },
        {
          "internalType": "uint256",
          "name": "game",
          "type": "uint256"
        }
      ],
      "name": "addPlayingGame",
      "outputs": [],
      "stateMutability": "nonpayable",
      "type": "function"
    },
    {
      "inputs": [
        {
          "internalType": "address",
          "name": "user",
          "type": "address"
        }
      ],
      "name": "addReferralUser",
      "outputs": [],
      "stateMutability": "nonpayable",
      "type": "function"
    },
    {
      "inputs": [
        {
          "internalType": "bool",
          "name": "companyStatus",
          "type": "bool"
        },
        {
          "internalType": "address",
          "name": "user",
          "type": "address"
        }
      ],
      "name": "addUser",
      "outputs": [],
      "stateMutability": "nonpayable",
      "type": "function"
    },
    {
      "inputs": [
        {
          "internalType": "address",
          "name": "from",
          "type": "address"
        },
        {
          "internalType": "address",
          "name": "to",
          "type": "address"
        },
        {
          "internalType": "uint256",
          "name": "amount",
          "type": "uint256"
        }
      ],
      "name": "bmTransfer",
      "outputs": [],
      "stateMutability": "nonpayable",
      "type": "function"
    },
    {
      "inputs": [
        {
          "internalType": "address",
          "name": "user",
          "type": "address"
        },
        {
          "internalType": "uint256",
          "name": "game",
          "type": "uint256"
        }
      ],
      "name": "checkGamePlaying",
      "outputs": [
        {
          "internalType": "bool",
          "name": "",
          "type": "bool"
        }
      ],
      "stateMutability": "view",
      "type": "function"
    },
    {
      "inputs": [],
      "name": "games",
      "outputs": [
        {
          "internalType": "contract IBMarketGames",
          "name": "",
          "type": "address"
        }
      ],
      "stateMutability": "view",
      "type": "function"
    },
    {
      "inputs": [
        {
          "internalType": "address",
          "name": "user",
          "type": "address"
        }
      ],
      "name": "getBalanceUser",
      "outputs": [
        {
          "internalType": "uint256",
          "name": "",
          "type": "uint256"
        }
      ],
      "stateMutability": "view",
      "type": "function"
    },
    {
      "inputs": [
        {
          "internalType": "address",
          "name": "partner",
          "type": "address"
        }
      ],
      "name": "getPartnerFee",
      "outputs": [
        {
          "internalType": "uint256",
          "name": "",
          "type": "uint256"
        }
      ],
      "stateMutability": "view",
      "type": "function"
    },
    {
      "inputs": [
        {
          "internalType": "address",
          "name": "user",
          "type": "address"
        }
      ],
      "name": "getReferrer",
      "outputs": [
        {
          "internalType": "address",
          "name": "",
          "type": "address"
        }
      ],
      "stateMutability": "view",
      "type": "function"
    },
    {
      "inputs": [
        {
          "internalType": "address",
          "name": "user",
          "type": "address"
        },
        {
          "internalType": "uint256",
          "name": "value",
          "type": "uint256"
        }
      ],
      "name": "giveMoney",
      "outputs": [],
      "stateMutability": "nonpayable",
      "type": "function"
    },
    {
      "inputs": [
        {
          "internalType": "uint256",
          "name": "game",
          "type": "uint256"
        }
      ],
      "name": "hasGame",
      "outputs": [
        {
          "internalType": "uint256",
          "name": "",
          "type": "uint256"
        }
      ],
      "stateMutability": "view",
      "type": "function"
    },
    {
      "inputs": [],
      "name": "id",
      "outputs": [
        {
          "internalType": "uint256",
          "name": "",
          "type": "uint256"
        }
      ],
      "stateMutability": "view",
      "type": "function"
    },
    {
      "inputs": [
        {
          "internalType": "address",
          "name": "user",
          "type": "address"
        }
      ],
      "name": "isCompany",
      "outputs": [
        {
          "internalType": "bool",
          "name": "",
          "type": "bool"
        }
      ],
      "stateMutability": "view",
      "type": "function"
    },
    {
      "inputs": [],
      "name": "owner",
      "outputs": [
        {
          "internalType": "address",
          "name": "",
          "type": "address"
        }
      ],
      "stateMutability": "view",
      "type": "function"
    },
    {
      "inputs": [
        {
          "internalType": "address",
          "name": "",
          "type": "address"
        }
      ],
      "name": "partners",
      "outputs": [
        {
          "internalType": "uint256",
          "name": "",
          "type": "uint256"
        }
      ],
      "stateMutability": "view",
      "type": "function"
    },
    {
      "inputs": [
        {
          "internalType": "address",
          "name": "",
          "type": "address"
        }
      ],
      "name": "permissions",
      "outputs": [
        {
          "internalType": "bool",
          "name": "",
          "type": "bool"
        }
      ],
      "stateMutability": "view",
      "type": "function"
    },
    {
      "inputs": [
        {
          "internalType": "address",
          "name": "bgames",
          "type": "address"
        }
      ],
      "name": "setGlobalParams",
      "outputs": [],
      "stateMutability": "nonpayable",
      "type": "function"
    },
    {
      "inputs": [
        {
          "internalType": "address[]",
          "name": "targets",
          "type": "address[]"
        },
        {
          "internalType": "bool[]",
          "name": "values",
          "type": "bool[]"
        }
      ],
      "name": "setPermissions",
      "outputs": [],
      "stateMutability": "nonpayable",
      "type": "function"
    },
    {
      "inputs": [
        {
          "internalType": "address",
          "name": "to",
          "type": "address"
        },
        {
          "internalType": "uint256",
          "name": "amount",
          "type": "uint256"
        }
      ],
      "name": "transfer",
      "outputs": [],
      "stateMutability": "nonpayable",
      "type": "function"
    },
    {
      "inputs": [
        {
          "internalType": "address",
          "name": "user",
          "type": "address"
        },
        {
          "internalType": "uint256",
          "name": "amount",
          "type": "uint256"
        }
      ],
      "name": "userDeposit",
      "outputs": [],
      "stateMutability": "nonpayable",
      "type": "function"
    },
    {
      "inputs": [
        {
          "internalType": "address",
          "name": "user",
          "type": "address"
        },
        {
          "internalType": "uint256",
          "name": "amount",
          "type": "uint256"
        }
      ],
      "name": "userWithdraw",
      "outputs": [],
      "stateMutability": "nonpayable",
      "type": "function"
    },
    {
      "inputs": [
        {
          "internalType": "address",
          "name": "",
          "type": "address"
        }
      ],
      "name": "users",
      "outputs": [
        {
          "internalType": "address",
          "name": "referrer",
          "type": "address"
        },
        {
          "internalType": "uint256",
          "name": "balance",
          "type": "uint256"
        },
        {
          "internalType": "uint256",
          "name": "id",
          "type": "uint256"
        },
        {
          "internalType": "bool",
          "name": "isCompany",
          "type": "bool"
        }
      ],
      "stateMutability": "view",
      "type": "function"
    },
    {
      "inputs": [
        {
          "internalType": "address",
          "name": "user",
          "type": "address"
        },
        {
          "internalType": "uint256",
          "name": "value",
          "type": "uint256"
        }
      ],
      "name": "withdrawMoney",
      "outputs": [],
      "stateMutability": "nonpayable",
      "type": "function"
    }
  ],
  "bytecode": "0x60806040526001805534801561001457600080fd5b50604051610fd9380380610fd983398101604081905261003391610066565b60008054336001600160a01b031991821617909155600380549091166001600160a01b0392909216919091179055610096565b60006020828403121561007857600080fd5b81516001600160a01b038116811461008f57600080fd5b9392505050565b610f34806100a56000396000f3fe608060405234801561001057600080fd5b50600436106101735760003560e01c8063924e342e116100de578063a9059cbb11610097578063cbc3c3e411610071578063cbc3c3e414610437578063ec69b9d31461044a578063f274c8971461045d578063fe797e351461047057600080fd5b8063a9059cbb14610408578063af640d0f1461041b578063b52d73431461042457600080fd5b8063924e342e146102f3578063955a015b1461031f57806395c336521461033257806399ec1bda14610352578063a0406ce214610365578063a87430ba1461039557600080fd5b8063468c75a111610130578063468c75a1146102375780634a9fefc7146102605780635dce431b146102a7578063822fdf59146102ba5780638da5cb5b146102cd57806390680964146102e057600080fd5b806301e8820814610178578063039721b1146101b05780630bb90570146101c557806322e7d115146101d85780633e458a8e146101eb5780634378b4fd146101fe575b600080fd5b61019b610186366004610ce3565b60026020526000908152604090205460ff1681565b60405190151581526020015b60405180910390f35b6101c36101be366004610d4a565b610483565b005b6101c36101d3366004610dc6565b610541565b6101c36101e6366004610df9565b6105dc565b6101c36101f9366004610df9565b61064c565b61022961020c366004610e23565b336000908152600460209081526040808320938352929052205490565b6040519081526020016101a7565b610229610245366004610ce3565b6001600160a01b031660009081526005602052604090205490565b61028f61026e366004610ce3565b6001600160a01b039081166000908152600460205260409020600101541690565b6040516001600160a01b0390911681526020016101a7565b6101c36102b5366004610df9565b6106f4565b61019b6102c8366004610df9565b610737565b60005461028f906001600160a01b031681565b6101c36102ee366004610ce3565b610772565b610229610301366004610ce3565b6001600160a01b031660009081526004602052604090206002015490565b60035461028f906001600160a01b031681565b610229610340366004610ce3565b60056020526000908152604090205481565b6101c3610360366004610e3c565b6107ab565b61019b610373366004610ce3565b6001600160a01b03166000908152600460208190526040909120015460ff1690565b6103dc6103a3366004610ce3565b600460208190526000918252604090912060018101546002820154600383015492909301546001600160a01b0390911692919060ff1684565b604080516001600160a01b039095168552602085019390935291830152151560608201526080016101a7565b6101c3610416366004610df9565b610903565b61022960015481565b6101c3610432366004610df9565b610a14565b6101c3610445366004610ce3565b610acc565b6101c3610458366004610df9565b610bb3565b6101c361046b366004610df9565b610bca565b6101c361047e366004610df9565b610c7d565b6000546001600160a01b0316331461049a57600080fd5b60005b83811080156104ab57508382145b1561053a578282828181106104c2576104c2610e78565b90506020020160208101906104d79190610e8e565b600260008787858181106104ed576104ed610e78565b90506020020160208101906105029190610ce3565b6001600160a01b031681526020810191909152604001600020805460ff191691151591909117905561053381610ebf565b905061049d565b5050505050565b6000546001600160a01b0316331461055857600080fd5b6001600160a01b038116600081815260046020818152604092839020918201805460ff191687151590811790915560015460039093018390558351928352908201527f47b13a101802ba54d33a1965081b05bf2990a05a64d579d680911cd8261e442e910160405180910390a26001600081546105d490610ebf565b909155505050565b6000546001600160a01b031633146105f357600080fd5b6001600160a01b03821660008181526005602052604090819020839055517f1345c87b30ecc206d877b24ef9ee9d942aba3bb4ee1d5cb0c5dd6eaa97841241906106409084815260200190565b60405180910390a25050565b3360009081526002602052604090205460ff1661066857600080fd5b6001600160a01b03821660009081526004602052604090206002015481118015906106b757506001600160a01b0382166000908152600460205260409020600201546106b48282610ed8565b11155b6106c057600080fd5b6001600160a01b038216600090815260046020526040812060020180548392906106eb908490610ed8565b90915550505050565b3360009081526002602052604090205460ff1661071057600080fd5b6001600160a01b039091166000908152600460209081526040808320848452909152902055565b6001600160a01b0382166000908152600460209081526040808320848452909152812054821480156107695750600082115b90505b92915050565b6000546001600160a01b0316331461078957600080fd5b600380546001600160a01b0319166001600160a01b0392909216919091179055565b3360009081526002602052604090205460ff166107c757600080fd5b6001600160a01b038316600090815260046020526040902060020154811180159061081657506001600160a01b0383166000908152600460205260409020600201546108138282610ed8565b11155b801561084657506001600160a01b0382166000908152600460205260409020600201546108438282610eeb565b10155b61084f57600080fd5b6001600160a01b0383166000908152600460205260408120600201805483929061087a908490610ed8565b90915550506001600160a01b038216600090815260046020526040812060020180548392906108aa908490610eeb565b92505081905550816001600160a01b0316836001600160a01b03167f60417204fb1e7eaa7ed9588c70e2cf35e25665befa007e3e6001107555bbc2bc836040516108f691815260200190565b60405180910390a3505050565b33600090815260046020526040902060020154811180159061094057503360009081526004602052604090206002015461093d8282610ed8565b11155b801561097057506001600160a01b03821660009081526004602052604090206002015461096d8282610eeb565b10155b61097957600080fd5b336000908152600460205260408120600201805483929061099b908490610ed8565b90915550506001600160a01b038216600090815260046020526040812060020180548392906109cb908490610eeb565b90915550506040518181526001600160a01b0383169033907fddf252ad1be2c89b69c2b068fc378daa952ba7f163c4a11628f55a4df523b3ef9060200160405180910390a35050565b3360009081526002602052604090205460ff16610a3057600080fd5b6001600160a01b038216600090815260046020526040902060020154610a568282610eeb565b1015610a6157600080fd5b6001600160a01b03821660009081526004602052604081206002018054839290610a8c908490610eeb565b90915550506040518181526001600160a01b038316907fe1fffcc4923d04b559f4d29a8bfc6cda04eb5b0d3c460751c2402c5c5cc9109c90602001610640565b6001600160a01b03811660009081526004602052604090206003015415610af257600080fd5b6001600160a01b038181166000908152600460205260409020600101541615610b1a57600080fd5b6001600160a01b0381166000818152600460208190526040808320600180820180546001600160a01b03191633179055928101805460ff1916905591546003909201829055517f47b13a101802ba54d33a1965081b05bf2990a05a64d579d680911cd8261e442e92610b959282521515602082015260400190565b60405180910390a2600160008154610bac90610ebf565b9091555050565b6000546001600160a01b03163314610a3057600080fd5b6000546001600160a01b03163314610be157600080fd5b6001600160a01b038216600090815260046020526040902060020154610c078282610ed8565b1115610c1257600080fd5b6001600160a01b03821660009081526004602052604081206002018054839290610c3d908490610ed8565b90915550506040518181526001600160a01b038316907f884edad9ce6fa2440d8a54cc123490eb96d2768479d49ff9c7366125a942436490602001610640565b3360009081526002602052604090205460ff16610c9957600080fd5b6001600160a01b03821660009081526004602090815260408083208484529091529020541561071057600080fd5b80356001600160a01b0381168114610cde57600080fd5b919050565b600060208284031215610cf557600080fd5b61076982610cc7565b60008083601f840112610d1057600080fd5b50813567ffffffffffffffff811115610d2857600080fd5b6020830191508360208260051b8501011115610d4357600080fd5b9250929050565b60008060008060408587031215610d6057600080fd5b843567ffffffffffffffff80821115610d7857600080fd5b610d8488838901610cfe565b90965094506020870135915080821115610d9d57600080fd5b50610daa87828801610cfe565b95989497509550505050565b80358015158114610cde57600080fd5b60008060408385031215610dd957600080fd5b610de283610db6565b9150610df060208401610cc7565b90509250929050565b60008060408385031215610e0c57600080fd5b610e1583610cc7565b946020939093013593505050565b600060208284031215610e3557600080fd5b5035919050565b600080600060608486031215610e5157600080fd5b610e5a84610cc7565b9250610e6860208501610cc7565b9150604084013590509250925092565b634e487b7160e01b600052603260045260246000fd5b600060208284031215610ea057600080fd5b61076982610db6565b634e487b7160e01b600052601160045260246000fd5b600060018201610ed157610ed1610ea9565b5060010190565b8181038181111561076c5761076c610ea9565b8082018082111561076c5761076c610ea956fea264697066735822122007835d5c8fc490ecd2804f16eeb0fb5451d562e848932f0726999036533814d464736f6c63430008110033",
  "linkReferences": {},
  "deployedLinkReferences": {}
}