{
  "_format": "hh-sol-artifact-1",
  "contractName": "QRents",
  "sourceName": "contracts/private/Rents.sol",
  "abi": [
    {
      "inputs": [
        {
          "internalType": "address",
          "name": "busers",
          "type": "address"
        },
        {
          "internalType": "address",
          "name": "bgames",
          "type": "address"
        },
        {
          "internalType": "uint256",
          "name": "_validation",
          "type": "uint256"
        }
      ],
      "stateMutability": "nonpayable",
      "type": "constructor"
    },
    {
      "anonymous": false,
      "inputs": [
        {
          "indexed": true,
          "internalType": "address",
          "name": "user",
          "type": "address"
        },
        {
          "indexed": true,
          "internalType": "uint256",
          "name": "game",
          "type": "uint256"
        },
        {
          "indexed": false,
          "internalType": "uint256",
          "name": "server",
          "type": "uint256"
        },
        {
          "indexed": false,
          "internalType": "uint256",
          "name": "item",
          "type": "uint256"
        },
        {
          "indexed": false,
          "internalType": "uint256[5]",
          "name": "metadata",
          "type": "uint256[5]"
        }
      ],
      "name": "CompanyPlacingRent",
      "type": "event"
    },
    {
      "anonymous": false,
      "inputs": [
        {
          "indexed": true,
          "internalType": "address",
          "name": "user",
          "type": "address"
        },
        {
          "indexed": true,
          "internalType": "uint256",
          "name": "game",
          "type": "uint256"
        },
        {
          "indexed": false,
          "internalType": "uint256",
          "name": "server",
          "type": "uint256"
        },
        {
          "indexed": false,
          "internalType": "uint256",
          "name": "item",
          "type": "uint256"
        },
        {
          "indexed": true,
          "internalType": "uint256",
          "name": "id",
          "type": "uint256"
        }
      ],
      "name": "FinishRent",
      "type": "event"
    },
    {
      "anonymous": false,
      "inputs": [
        {
          "indexed": true,
          "internalType": "address",
          "name": "user",
          "type": "address"
        },
        {
          "indexed": true,
          "internalType": "uint256",
          "name": "game",
          "type": "uint256"
        },
        {
          "indexed": false,
          "internalType": "uint256",
          "name": "server",
          "type": "uint256"
        },
        {
          "indexed": false,
          "internalType": "uint256",
          "name": "item",
          "type": "uint256"
        },
        {
          "indexed": true,
          "internalType": "uint256",
          "name": "id",
          "type": "uint256"
        },
        {
          "indexed": false,
          "internalType": "bool",
          "name": "itemIntact",
          "type": "bool"
        }
      ],
      "name": "FinishedRent",
      "type": "event"
    },
    {
      "anonymous": false,
      "inputs": [
        {
          "indexed": true,
          "internalType": "address",
          "name": "user",
          "type": "address"
        },
        {
          "indexed": true,
          "internalType": "uint256",
          "name": "game",
          "type": "uint256"
        },
        {
          "indexed": false,
          "internalType": "uint256",
          "name": "server",
          "type": "uint256"
        },
        {
          "indexed": false,
          "internalType": "uint256",
          "name": "item",
          "type": "uint256"
        },
        {
          "indexed": true,
          "internalType": "uint256",
          "name": "id",
          "type": "uint256"
        }
      ],
      "name": "GiveItem",
      "type": "event"
    },
    {
      "anonymous": false,
      "inputs": [
        {
          "indexed": true,
          "internalType": "address",
          "name": "user",
          "type": "address"
        },
        {
          "indexed": true,
          "internalType": "uint256",
          "name": "game",
          "type": "uint256"
        },
        {
          "indexed": false,
          "internalType": "uint256",
          "name": "server",
          "type": "uint256"
        },
        {
          "indexed": false,
          "internalType": "uint256",
          "name": "item",
          "type": "uint256"
        },
        {
          "indexed": true,
          "internalType": "uint256",
          "name": "id",
          "type": "uint256"
        }
      ],
      "name": "ItemGiven",
      "type": "event"
    },
    {
      "anonymous": false,
      "inputs": [
        {
          "indexed": true,
          "internalType": "address",
          "name": "user",
          "type": "address"
        },
        {
          "indexed": true,
          "internalType": "uint256",
          "name": "game",
          "type": "uint256"
        },
        {
          "indexed": true,
          "internalType": "uint256",
          "name": "id",
          "type": "uint256"
        }
      ],
      "name": "ItemNotGiven",
      "type": "event"
    },
    {
      "anonymous": false,
      "inputs": [
        {
          "indexed": true,
          "internalType": "address",
          "name": "user",
          "type": "address"
        },
        {
          "indexed": true,
          "internalType": "uint256",
          "name": "game",
          "type": "uint256"
        },
        {
          "indexed": true,
          "internalType": "uint256",
          "name": "id",
          "type": "uint256"
        }
      ],
      "name": "ItemNotRefunded",
      "type": "event"
    },
    {
      "anonymous": false,
      "inputs": [
        {
          "indexed": true,
          "internalType": "address",
          "name": "user",
          "type": "address"
        },
        {
          "indexed": true,
          "internalType": "uint256",
          "name": "game",
          "type": "uint256"
        },
        {
          "indexed": true,
          "internalType": "uint256",
          "name": "id",
          "type": "uint256"
        }
      ],
      "name": "ItemNotTaken",
      "type": "event"
    },
    {
      "anonymous": false,
      "inputs": [
        {
          "indexed": true,
          "internalType": "address",
          "name": "user",
          "type": "address"
        },
        {
          "indexed": true,
          "internalType": "uint256",
          "name": "game",
          "type": "uint256"
        },
        {
          "indexed": false,
          "internalType": "uint256",
          "name": "server",
          "type": "uint256"
        },
        {
          "indexed": false,
          "internalType": "uint256",
          "name": "item",
          "type": "uint256"
        },
        {
          "indexed": true,
          "internalType": "uint256",
          "name": "id",
          "type": "uint256"
        }
      ],
      "name": "ItemRefunded",
      "type": "event"
    },
    {
      "anonymous": false,
      "inputs": [
        {
          "indexed": true,
          "internalType": "address",
          "name": "user",
          "type": "address"
        },
        {
          "indexed": true,
          "internalType": "uint256",
          "name": "game",
          "type": "uint256"
        },
        {
          "indexed": false,
          "internalType": "uint256",
          "name": "server",
          "type": "uint256"
        },
        {
          "indexed": false,
          "internalType": "uint256",
          "name": "item",
          "type": "uint256"
        },
        {
          "indexed": true,
          "internalType": "uint256",
          "name": "id",
          "type": "uint256"
        }
      ],
      "name": "ItemTaken",
      "type": "event"
    },
    {
      "anonymous": false,
      "inputs": [
        {
          "indexed": true,
          "internalType": "address",
          "name": "user",
          "type": "address"
        },
        {
          "indexed": true,
          "internalType": "uint256",
          "name": "game",
          "type": "uint256"
        },
        {
          "indexed": false,
          "internalType": "uint256",
          "name": "server",
          "type": "uint256"
        },
        {
          "indexed": false,
          "internalType": "uint256",
          "name": "item",
          "type": "uint256"
        },
        {
          "indexed": true,
          "internalType": "uint256",
          "name": "id",
          "type": "uint256"
        }
      ],
      "name": "RefundItem",
      "type": "event"
    },
    {
      "anonymous": false,
      "inputs": [
        {
          "indexed": true,
          "internalType": "address",
          "name": "user",
          "type": "address"
        },
        {
          "indexed": true,
          "internalType": "uint256",
          "name": "game",
          "type": "uint256"
        },
        {
          "indexed": false,
          "internalType": "uint256[]",
          "name": "ids",
          "type": "uint256[]"
        }
      ],
      "name": "RefundItems",
      "type": "event"
    },
    {
      "anonymous": false,
      "inputs": [
        {
          "indexed": true,
          "internalType": "address",
          "name": "user",
          "type": "address"
        },
        {
          "indexed": true,
          "internalType": "uint256",
          "name": "game",
          "type": "uint256"
        },
        {
          "indexed": true,
          "internalType": "uint256",
          "name": "id",
          "type": "uint256"
        },
        {
          "indexed": false,
          "internalType": "bool",
          "name": "itemIntact",
          "type": "bool"
        }
      ],
      "name": "RentNotFinished",
      "type": "event"
    },
    {
      "anonymous": false,
      "inputs": [
        {
          "indexed": true,
          "internalType": "address",
          "name": "user",
          "type": "address"
        },
        {
          "indexed": true,
          "internalType": "uint256",
          "name": "game",
          "type": "uint256"
        },
        {
          "indexed": false,
          "internalType": "uint256",
          "name": "server",
          "type": "uint256"
        },
        {
          "indexed": false,
          "internalType": "uint256",
          "name": "item",
          "type": "uint256"
        },
        {
          "indexed": true,
          "internalType": "uint256",
          "name": "id",
          "type": "uint256"
        },
        {
          "indexed": false,
          "internalType": "uint256[3]",
          "name": "metadata",
          "type": "uint256[3]"
        }
      ],
      "name": "TakeItem",
      "type": "event"
    },
    {
      "inputs": [
        {
          "internalType": "uint256",
          "name": "rent",
          "type": "uint256"
        }
      ],
      "name": "cancelRent",
      "outputs": [],
      "stateMutability": "nonpayable",
      "type": "function"
    },
    {
      "inputs": [
        {
          "internalType": "uint256[]",
          "name": "_rents",
          "type": "uint256[]"
        }
      ],
      "name": "cancelRents",
      "outputs": [],
      "stateMutability": "nonpayable",
      "type": "function"
    },
    {
      "inputs": [
        {
          "internalType": "uint256",
          "name": "game",
          "type": "uint256"
        },
        {
          "internalType": "uint256",
          "name": "server",
          "type": "uint256"
        },
        {
          "internalType": "uint256",
          "name": "item",
          "type": "uint256"
        },
        {
          "internalType": "uint256",
          "name": "valability",
          "type": "uint256"
        },
        {
          "internalType": "uint256",
          "name": "price",
          "type": "uint256"
        },
        {
          "internalType": "uint256",
          "name": "fee",
          "type": "uint256"
        }
      ],
      "name": "createRent",
      "outputs": [],
      "stateMutability": "nonpayable",
      "type": "function"
    },
    {
      "inputs": [
        {
          "internalType": "uint256",
          "name": "game",
          "type": "uint256"
        },
        {
          "internalType": "uint256",
          "name": "server",
          "type": "uint256"
        },
        {
          "internalType": "uint256",
          "name": "item",
          "type": "uint256"
        },
        {
          "internalType": "uint256",
          "name": "valability",
          "type": "uint256"
        },
        {
          "internalType": "uint256",
          "name": "price",
          "type": "uint256"
        },
        {
          "internalType": "uint256",
          "name": "fee",
          "type": "uint256"
        },
        {
          "internalType": "uint256",
          "name": "qty",
          "type": "uint256"
        }
      ],
      "name": "createRents",
      "outputs": [],
      "stateMutability": "nonpayable",
      "type": "function"
    },
    {
      "inputs": [
        {
          "internalType": "uint256",
          "name": "rent",
          "type": "uint256"
        }
      ],
      "name": "finishRent",
      "outputs": [],
      "stateMutability": "nonpayable",
      "type": "function"
    },
    {
      "inputs": [
        {
          "internalType": "uint256",
          "name": "rent",
          "type": "uint256"
        },
        {
          "internalType": "bool",
          "name": "companyValidation",
          "type": "bool"
        },
        {
          "internalType": "bool",
          "name": "itemIntact",
          "type": "bool"
        }
      ],
      "name": "finishedRent",
      "outputs": [],
      "stateMutability": "nonpayable",
      "type": "function"
    },
    {
      "inputs": [],
      "name": "games",
      "outputs": [
        {
          "internalType": "contract IBMarketGames",
          "name": "",
          "type": "address"
        }
      ],
      "stateMutability": "view",
      "type": "function"
    },
    {
      "inputs": [],
      "name": "id",
      "outputs": [
        {
          "internalType": "uint256",
          "name": "",
          "type": "uint256"
        }
      ],
      "stateMutability": "view",
      "type": "function"
    },
    {
      "inputs": [],
      "name": "owner",
      "outputs": [
        {
          "internalType": "address",
          "name": "",
          "type": "address"
        }
      ],
      "stateMutability": "view",
      "type": "function"
    },
    {
      "inputs": [
        {
          "internalType": "uint256",
          "name": "rent",
          "type": "uint256"
        },
        {
          "internalType": "bool",
          "name": "companyValidation",
          "type": "bool"
        }
      ],
      "name": "rentCancelledValidation",
      "outputs": [],
      "stateMutability": "nonpayable",
      "type": "function"
    },
    {
      "inputs": [
        {
          "internalType": "uint256",
          "name": "rent",
          "type": "uint256"
        }
      ],
      "name": "rentItem",
      "outputs": [],
      "stateMutability": "nonpayable",
      "type": "function"
    },
    {
      "inputs": [
        {
          "internalType": "uint256",
          "name": "",
          "type": "uint256"
        }
      ],
      "name": "rents",
      "outputs": [
        {
          "internalType": "address",
          "name": "owner",
          "type": "address"
        },
        {
          "internalType": "address",
          "name": "renter",
          "type": "address"
        },
        {
          "internalType": "uint256",
          "name": "valability",
          "type": "uint256"
        },
        {
          "internalType": "uint256",
          "name": "game",
          "type": "uint256"
        },
        {
          "internalType": "uint256",
          "name": "rentStop",
          "type": "uint256"
        },
        {
          "internalType": "uint256",
          "name": "item",
          "type": "uint256"
        },
        {
          "internalType": "uint256",
          "name": "price",
          "type": "uint256"
        },
        {
          "internalType": "uint256",
          "name": "fee",
          "type": "uint256"
        },
        {
          "internalType": "uint256",
          "name": "server",
          "type": "uint256"
        },
        {
          "internalType": "enum QRents.RentStatus",
          "name": "status",
          "type": "uint8"
        }
      ],
      "stateMutability": "view",
      "type": "function"
    },
    {
      "inputs": [
        {
          "internalType": "address",
          "name": "busers",
          "type": "address"
        },
        {
          "internalType": "address",
          "name": "bgames",
          "type": "address"
        },
        {
          "internalType": "uint256",
          "name": "_validation",
          "type": "uint256"
        }
      ],
      "name": "setGlobalParams",
      "outputs": [],
      "stateMutability": "nonpayable",
      "type": "function"
    },
    {
      "inputs": [],
      "name": "users",
      "outputs": [
        {
          "internalType": "contract IBMarketUsers",
          "name": "",
          "type": "address"
        }
      ],
      "stateMutability": "view",
      "type": "function"
    },
    {
      "inputs": [
        {
          "internalType": "uint256",
          "name": "rent",
          "type": "uint256"
        },
        {
          "internalType": "bool",
          "name": "companyValidation",
          "type": "bool"
        }
      ],
      "name": "validateRent",
      "outputs": [],
      "stateMutability": "nonpayable",
      "type": "function"
    },
    {
      "inputs": [
        {
          "internalType": "uint256",
          "name": "rent",
          "type": "uint256"
        },
        {
          "internalType": "address",
          "name": "renter",
          "type": "address"
        },
        {
          "internalType": "bool",
          "name": "companyValidation",
          "type": "bool"
        }
      ],
      "name": "validateRenting",
      "outputs": [],
      "stateMutability": "nonpayable",
      "type": "function"
    },
    {
      "inputs": [],
      "name": "validation",
      "outputs": [
        {
          "internalType": "uint256",
          "name": "",
          "type": "uint256"
        }
      ],
      "stateMutability": "view",
      "type": "function"
    }
  ],
  "bytecode": "0x60806040526001600355654e94914f00006004553480156200002057600080fd5b506040516200281a3803806200281a8339810160408190526200004391620000a4565b600080546001600160a01b03199081163317909155600180546001600160a01b039586169083161790556002805493909416921691909117909155600455620000e5565b80516001600160a01b03811681146200009f57600080fd5b919050565b600080600060608486031215620000ba57600080fd5b620000c58462000087565b9250620000d56020850162000087565b9150604084015190509250925092565b61272580620000f56000396000f3fe608060405234801561001057600080fd5b506004361061010b5760003560e01c8063a05d098c116100a2578063d78d385211610071578063d78d385214610280578063d91ad49914610293578063deed7a18146102a6578063f2020275146102b9578063fc254287146102cc57600080fd5b8063a05d098c146101c7578063ae4b37e41461024d578063af640d0f14610264578063b24985c81461026d57600080fd5b80638add7a53116100de5780638add7a531461015e5780638da5cb5b146101715780639405a7ba146101a1578063955a015b146101b457600080fd5b806330c1316d146101105780634e1e33d71461012557806355dba02e14610138578063857529f11461014b575b600080fd5b61012361011e36600461217d565b6102df565b005b6101236101333660046121f0565b610494565b6101236101463660046122ae565b6107ba565b6101236101593660046122ec565b610a99565b61012361016c366004612305565b610bdd565b600054610184906001600160a01b031681565b6040516001600160a01b0390911681526020015b60405180910390f35b6101236101af3660046122ec565b610c29565b600254610184906001600160a01b031681565b6102376101d53660046122ec565b600560208190526000918252604090912080546001820154600283015460038401546004850154958501546006860154600787015460088801546009909801546001600160a01b03978816999690971697949693959492939192909160ff168a565b6040516101989a9998979695949392919061235c565b61025660045481565b604051908152602001610198565b61025660035481565b61012361027b36600461217d565b610db1565b61012361028e3660046122ec565b610f32565b6101236102a13660046123db565b6110e9565b6101236102b436600461241e565b6112c1565b600154610184906001600160a01b031681565b6101236102da366004612443565b611e7f565b600082815260056020819052604082206009015460ff169081111561030657610306612346565b1461031057600080fd5b6000828152600560205260409020546001600160a01b031661033157600080fd5b60025460008381526005602081905260409182902060038101546008820154919092015492516332294f3960e11b81526001600160a01b03909416936364529e7293610386933393909290919060040161248f565b60006040518083038186803b15801561039e57600080fd5b505afa1580156103b2573d6000803e3d6000fd5b5050505080156104385760008281526005602081815260409283902060098101805460ff191660011790556003810154815460088301549290940154855192835292820192909252859391926001600160a01b0316917f44e90549ef8f78efc59ac60133c20ec6112f043d8351d4f8e50c7572a8a2457191015b60405180910390a45050565b60008281526005602052604080822060098101805460ff19166004179055600381015490549151859391926001600160a01b0316917f35dbf9b1750829d93433dea845420ef3411290234cdd18a67e2b706015165c2391a45050565b60005b815181101561074457600560008383815181106104b6576104b66124b5565b6020908102919091018101518252810191909152604001600020546001600160a01b03163314801561052f57506001600560008484815181106104fb576104fb6124b5565b60209081029190910181015182528101919091526040016000206009015460ff16600581111561052d5761052d612346565b145b801561059957506005600083838151811061054c5761054c6124b5565b6020026020010151815260200190815260200160002060030154600560008460008151811061057d5761057d6124b5565b6020026020010151815260200190815260200160002060030154145b6105a257600080fd5b60025482516001600160a01b03909116906364529e72906005906000908690869081106105d1576105d16124b5565b6020026020010151815260200190815260200160002060000160009054906101000a90046001600160a01b031660056000868681518110610614576106146124b5565b602002602001015181526020019081526020016000206003015460056000878781518110610644576106446124b5565b602002602001015181526020019081526020016000206008015460056000888881518110610674576106746124b5565b60200260200101518152602001908152602001600020600501546040518563ffffffff1660e01b81526004016106ad949392919061248f565b60006040518083038186803b1580156106c557600080fd5b505afa1580156106d9573d6000803e3d6000fd5b505050506003600560008484815181106106f5576106f56124b5565b6020026020010151815260200190815260200160002060090160006101000a81548160ff0219169083600581111561072f5761072f612346565b021790555061073d816124e1565b9050610497565b50600560008260008151811061075c5761075c6124b5565b6020026020010151815260200190815260200160002060030154336001600160a01b03167f9187b667ebe790b0d286814d4bd9c22b165ccb51c0332c2ab8187744f9a3d284836040516107af91906124fa565b60405180910390a350565b600160008481526005602081905260409091206009015460ff16908111156107e4576107e4612346565b146107ee57600080fd5b600083815260056020526040908190206006015460015491516349271a1760e11b81526001600160a01b0385811660048301529192919091169063924e342e90602401602060405180830381865afa15801561084e573d6000803e3d6000fd5b505050506040513d601f19601f82011682018060405250810190610872919061253e565b101561087d57600080fd5b60025460008481526005602081905260409182902060038101546008820154919092015492516332294f3960e11b81526001600160a01b03909416936364529e72936108d2933393909290919060040161248f565b60006040518083038186803b1580156108ea57600080fd5b505afa1580156108fe573d6000803e3d6000fd5b505050508015610a4e5760008381526005602052604090206001810180546001600160a01b0319166001600160a01b038516179055600201546004546109449190612557565b61094e9042612574565b6000848152600560205260409081902060048082019390935560098101805460ff191660021790556001546006909101549151631f22c54760e11b81526001600160a01b0390911692633e458a8e926109a992879201612587565b600060405180830381600087803b1580156109c357600080fd5b505af11580156109d7573d6000803e3d6000fd5b505050600084815260056020819052604091829020600381015460088201549190920154925187945091926001600160a01b038716927ff8b1513a80efa44743c8fd203c5ea490eb045b980e712306aabf06142f3dd86a92610a4192908252602082015260400190565b60405180910390a4505050565b60008381526005602052604080822060030154905185926001600160a01b038616917faf6b3032f8e3492c4bb6b4c79dcc6083c222fa059953718fd64af48b99e021c29190a4505050565b6000818152600560205260409020546001600160a01b031633148015610ae65750600160008281526005602081905260409091206009015460ff1690811115610ae457610ae4612346565b145b610aef57600080fd5b600254600082815260056020819052604091829020805460038201546008830154929093015493516320f1bf4160e01b81526001600160a01b03958616956320f1bf4195610b459593909116939160040161248f565b60006040518083038186803b158015610b5d57600080fd5b505afa158015610b71573d6000803e3d6000fd5b5050506000828152600560208190526040918290206003810154600882015491909201549251859450919233927fe9af9e82f3c3eee0c87697791875b3d83c7286fe489d5b69620ae2cdcd828f3592610bd292908252602082015260400190565b60405180910390a450565b6000546001600160a01b03163314610bf457600080fd5b600180546001600160a01b039485166001600160a01b0319918216179091556002805493909416921691909117909155600455565b6000818152600560205260409020546001600160a01b0316331480610c6757506000818152600560205260409020600101546001600160a01b031633145b610c7057600080fd5b600081815260056020526040902060040154421015610c8e57600080fd5b600260008281526005602081905260409091206009015460ff1690811115610cb857610cb8612346565b14610cc257600080fd5b60025460008281526005602081905260409182902060038101546008820154919092015492516320f1bf4160e01b81526001600160a01b03909416936320f1bf4193610d17933393909290919060040161248f565b60006040518083038186803b158015610d2f57600080fd5b505afa158015610d43573d6000803e3d6000fd5b505050600082815260056020818152604092839020600381015460018201546008830154929094015485519283529282019290925285945090926001600160a01b03909216917f4fea1ac92115e2bbfe58d1dee2651b5eebc2776651b8fbf4a91b640b39477d0b9101610bd2565b600160008381526005602081905260409091206009015460ff1690811115610ddb57610ddb612346565b14610de557600080fd5b60025460008381526005602081905260409182902060038101546008820154919092015492516332294f3960e11b81526001600160a01b03909416936364529e7293610e3a933393909290919060040161248f565b60006040518083038186803b158015610e5257600080fd5b505afa158015610e66573d6000803e3d6000fd5b505050508015610ee55760008281526005602081815260409283902060098101805460ff19166003908117909155810154815460088301549290940154855192835292820192909252859391926001600160a01b0316917f93154a1fac9d59458e56386455749c46ee98d5c17cd5ebec240dc6a90224aa2a910161042c565b600082815260056020526040808220600381015490549151859391926001600160a01b0316917f0cb5255f0cb5f3c92b353e244e31454415d69c769fe5f634a6eb74849a862d7891a45050565b600160008281526005602081905260409091206009015460ff1690811115610f5c57610f5c612346565b14610f6657600080fd5b600081815260056020526040908190206006015460015491516349271a1760e11b815233600482015290916001600160a01b03169063924e342e90602401602060405180830381865afa158015610fc1573d6000803e3d6000fd5b505050506040513d601f19601f82011682018060405250810190610fe5919061253e565b1015610ff057600080fd5b60025460008281526005602081905260409182902060038101546008820154919092015492516320f1bf4160e01b81526001600160a01b03909416936320f1bf4193611045933393909290919060040161248f565b60006040518083038186803b15801561105d57600080fd5b505afa158015611071573d6000803e3d6000fd5b5050506000828152600560208190526040918290206001810180546001600160a01b031916339081179091556003820154600883015492909301549351869550929390927f6a391651e6925699d21e05a7839a1cd477cf124d1392eb575fdeed1b1b9fd6d992610bd292908252602082015260400190565b8585856000831180156110fc5750600082115b80156111085750600081115b61111157600080fd5b8461111d856002612557565b10801561112a5750600086115b8015611137575060648510155b8015611144575060648410155b61114d57600080fd5b6002546040516320f1bf4160e01b81526001600160a01b03909116906320f1bf41906111839033908d908d908d9060040161248f565b60006040518083038186803b15801561119b57600080fd5b505afa1580156111af573d6000803e3d6000fd5b505060038054600090815260056020819052604080832080546001600160a01b03191633179055835483528083206002018c90558354835280832084018f9055835483528083206008018e9055835483528083209091018c9055825482528082206006018a905582548252808220600701899055915481529081206009018054919350915060ff1916600183021790555060035489336001600160a01b03167fb6695204d4bc45516947016b0d405b4c1a5b2f875cfeaf3e4be8fa6c9a268c608b8b60405180606001604052808d81526020018c81526020018b81525060405161129b939291906125a0565b60405180910390a46003600081546112b2906124e1565b90915550505050505050505050565b600260008481526005602081905260409091206009015460ff16908111156112eb576112eb612346565b146112f557600080fd5b60008381526005602052604090206004015442101561131357600080fd5b60025460008481526005602081905260409182902060038101546008820154919092015492516332294f3960e11b81526001600160a01b03909416936364529e7293611368933393909290919060040161248f565b60006040518083038186803b15801561138057600080fd5b505afa158015611394573d6000803e3d6000fd5b505050508115611e25576002546000848152600560205260408082206003015490516335681b5360e21b815291926001600160a01b03169163d5a06d4c916113e29160040190815260200190565b6040805180830381865afa1580156113fe573d6000803e3d6000fd5b505050506040513d601f19601f8201168201806040525081019061142291906125e1565b60018054600087815260056020526040808220909301549251634a9fefc760e01b81526001600160a01b03938416600482015293945092911690634a9fefc790602401602060405180830381865afa158015611482573d6000803e3d6000fd5b505050506040513d601f19601f820116820180604052508101906114a69190612661565b905082156119ac57600085815260056020526040902060098101805460ff1916600190811790915580549082015460078301546006909301546001600160a01b039283169363b52d734393909216916114fe91612685565b6040518363ffffffff1660e01b815260040161151b929190612587565b600060405180830381600087803b15801561153557600080fd5b505af1158015611549573d6000803e3d6000fd5b50506001546000805486518a835260056020526040909220600701546001600160a01b03938416955063b52d734394509216916115869190612698565b6040518363ffffffff1660e01b81526004016115a3929190612587565b600060405180830381600087803b1580156115bd57600080fd5b505af11580156115d1573d6000803e3d6000fd5b50506001546002546000898152600560205260409081902060030154905163b3ecdfc360e01b815260048101919091526001600160a01b03928316945063b52d7343935091169063b3ecdfc390602401602060405180830381865afa15801561163e573d6000803e3d6000fd5b505050506040513d601f19601f820116820180604052508101906116629190612661565b60208086015160008a815260059092526040909120600701546116859190612698565b6040518363ffffffff1660e01b81526004016116a2929190612587565b600060405180830381600087803b1580156116bc57600080fd5b505af11580156116d0573d6000803e3d6000fd5b5050506001600160a01b03821690506117b85760015460008681526005602090815260409091208054918501516007909101546001600160a01b039384169363b52d734393169161172091612698565b855160008a81526005602052604090206007015461173e9190612698565b60008a81526005602052604090206007015461175a9190612685565b6117649190612685565b6040518363ffffffff1660e01b8152600401611781929190612587565b600060405180830381600087803b15801561179b57600080fd5b505af11580156117af573d6000803e3d6000fd5b50505050611da2565b60015460405163468c75a160e01b81526001600160a01b038381166004830152600092169063468c75a190602401602060405180830381865afa158015611803573d6000803e3d6000fd5b505050506040513d601f19601f82011682018060405250810190611827919061253e565b6001546000888152600560205260409020600701549192506001600160a01b03169063b52d734390849061185c908590612698565b6040518363ffffffff1660e01b8152600401611879929190612587565b600060405180830381600087803b15801561189357600080fd5b505af11580156118a7573d6000803e3d6000fd5b505060015460008981526005602090815260409091208054918801516007909101546001600160a01b03938416955063b52d7343945092909116916118ec9190612698565b865160008b81526005602052604090206007015461190a9190612698565b60008b815260056020526040902060070154611927908790612698565b60008c8152600560205260409020600701546119439190612685565b61194d9190612685565b6119579190612685565b6040518363ffffffff1660e01b8152600401611974929190612587565b600060405180830381600087803b15801561198e57600080fd5b505af11580156119a2573d6000803e3d6000fd5b5050505050611da2565b60008581526005602081905260409182902060098101805460ff1916909217909155600154600254600390920154925163b3ecdfc360e01b815260048101939093526001600160a01b039081169263b52d734392919091169063b3ecdfc390602401602060405180830381865afa158015611a2b573d6000803e3d6000fd5b505050506040513d601f19601f82011682018060405250810190611a4f9190612661565b60208086015160008a81526005909252604090912060060154611a729190612698565b6040518363ffffffff1660e01b8152600401611a8f929190612587565b600060405180830381600087803b158015611aa957600080fd5b505af1158015611abd573d6000803e3d6000fd5b50506001546000805486518a835260056020526040909220600601546001600160a01b03938416955063b52d73439450921691611afa9190612698565b6040518363ffffffff1660e01b8152600401611b17929190612587565b600060405180830381600087803b158015611b3157600080fd5b505af1158015611b45573d6000803e3d6000fd5b5050506001600160a01b0382169050611bb4576001546000868152600560205260409020805484516006909201546001600160a01b039384169363b52d734393921691611b9191612698565b60208087015160008b8152600590925260409091206006015461173e9190612698565b60015460405163468c75a160e01b81526001600160a01b038381166004830152600092169063468c75a190602401602060405180830381865afa158015611bff573d6000803e3d6000fd5b505050506040513d601f19601f82011682018060405250810190611c23919061253e565b6001546000888152600560205260409020600601549192506001600160a01b03169063b52d7343908490611c58908590612698565b6040518363ffffffff1660e01b8152600401611c75929190612587565b600060405180830381600087803b158015611c8f57600080fd5b505af1158015611ca3573d6000803e3d6000fd5b5050600154600089815260056020526040902080546006909101546001600160a01b03928316945063b52d73439350911690611ce0908590612698565b865160008b815260056020526040902060060154611cfe9190612698565b60208089015160008d81526005909252604090912060060154611d219190612698565b60008c815260056020526040902060060154611d3d9190612685565b611d479190612685565b611d519190612685565b6040518363ffffffff1660e01b8152600401611d6e929190612587565b600060405180830381600087803b158015611d8857600080fd5b505af1158015611d9c573d6000803e3d6000fd5b50505050505b60008581526005602081815260408084206001810180546001600160a01b031916905560048101859055600381015460088201549190940154825191825292810192909252861515908201528792907fa3f59359dc08e0de3e216fe78f0e4634043658f2b0ff8fe266c7925515c74d639060600160405180910390a45050505050565b600083815260056020526040908190206003810154600190910154915185926001600160a01b0316907fce2cdf12f19b89d4ed452e5c1491bb17454d6da7f5482fc04f5a363f9a60916990610a4190861515815260200190565b868686600083118015611e925750600082115b8015611e9e5750600081115b611ea757600080fd5b85611eb3866002612557565b108015611ec05750600087115b8015611ecd575060648610155b8015611eda575060648510155b611ee357600080fd5b6002546040516332294f3960e11b81526001600160a01b03909116906364529e7290611f199033908e908e908e9060040161248f565b60006040518083038186803b158015611f3157600080fd5b505afa158015611f45573d6000803e3d6000fd5b5050505060198411158015611f5a5750600084115b611f6357600080fd5b611f6b61214a565b878152602081018790526040810186905260035460608201819052600190611f94908790612574565b611f9e9190612685565b60808201526040518b9033907fc3589dc2dd07a4894624e20bece9e78812ce88f7702416558eabf8218a1f609090611fdb908e908e9087906126ba565b60405180910390a360005b8581101561213c573360056000600354815260200190815260200160002060000160006101000a8154816001600160a01b0302191690836001600160a01b0316021790555088600560006003548152602001908152602001600020600201819055508b600560006003548152602001908152602001600020600301819055508a60056000600354815260200190815260200160002060080181905550896005600060035481526020019081526020016000206005018190555087600560006003548152602001908152602001600020600601819055508660056000600354815260200190815260200160002060070181905550600160056000600354815260200190815260200160002060090160006101000a81548160ff0219169083600581111561211457612114612346565b0217905550600360008154612128906124e1565b90915550612135816124e1565b9050611fe6565b505050505050505050505050565b6040518060a001604052806005906020820280368337509192915050565b8035801515811461217857600080fd5b919050565b6000806040838503121561219057600080fd5b823591506121a060208401612168565b90509250929050565b634e487b7160e01b600052604160045260246000fd5b604051601f8201601f1916810167ffffffffffffffff811182821017156121e8576121e86121a9565b604052919050565b6000602080838503121561220357600080fd5b823567ffffffffffffffff8082111561221b57600080fd5b818501915085601f83011261222f57600080fd5b813581811115612241576122416121a9565b8060051b91506122528483016121bf565b818152918301840191848101908884111561226c57600080fd5b938501935b8385101561228a57843582529385019390850190612271565b98975050505050505050565b6001600160a01b03811681146122ab57600080fd5b50565b6000806000606084860312156122c357600080fd5b8335925060208401356122d581612296565b91506122e360408501612168565b90509250925092565b6000602082840312156122fe57600080fd5b5035919050565b60008060006060848603121561231a57600080fd5b833561232581612296565b9250602084013561233581612296565b929592945050506040919091013590565b634e487b7160e01b600052602160045260246000fd5b6001600160a01b038b811682528a16602082015260408101899052606081018890526080810187905260a0810186905260c0810185905260e0810184905261010081018390526101408101600683106123c557634e487b7160e01b600052602160045260246000fd5b826101208301529b9a5050505050505050505050565b60008060008060008060c087890312156123f457600080fd5b505084359660208601359650604086013595606081013595506080810135945060a0013592509050565b60008060006060848603121561243357600080fd5b833592506122d560208501612168565b600080600080600080600060e0888a03121561245e57600080fd5b505085359760208701359750604087013596606081013596506080810135955060a0810135945060c0013592509050565b6001600160a01b0394909416845260208401929092526040830152606082015260800190565b634e487b7160e01b600052603260045260246000fd5b634e487b7160e01b600052601160045260246000fd5b6000600182016124f3576124f36124cb565b5060010190565b6020808252825182820181905260009190848201906040850190845b8181101561253257835183529284019291840191600101612516565b50909695505050505050565b60006020828403121561255057600080fd5b5051919050565b808202811582820484141761256e5761256e6124cb565b92915050565b8082018082111561256e5761256e6124cb565b6001600160a01b03929092168252602082015260400190565b838152602080820184905260a0820190604083018460005b60038110156125d5578151835291830191908301906001016125b8565b50505050949350505050565b6000604082840312156125f357600080fd5b82601f83011261260257600080fd5b6040516040810181811067ffffffffffffffff82111715612625576126256121a9565b806040525080604084018581111561263c57600080fd5b845b8181101561265657805183526020928301920161263e565b509195945050505050565b60006020828403121561267357600080fd5b815161267e81612296565b9392505050565b8181038181111561256e5761256e6124cb565b6000826126b557634e487b7160e01b600052601260045260246000fd5b500490565b838152602080820184905260e0820190604083018460005b60058110156125d5578151835291830191908301906001016126d256fea2646970667358221220067591b528ef00b4070de82ac911099592de6db23589f41d97ab9127cc13998d64736f6c63430008110033",
  "linkReferences": {},
  "deployedLinkReferences": {}
}