{
  "_format": "hh-sol-artifact-1",
  "contractName": "QLotteries",
  "sourceName": "contracts/private/Lotteries.sol",
  "abi": [
    {
      "inputs": [
        {
          "internalType": "address",
          "name": "busers",
          "type": "address"
        },
        {
          "internalType": "address",
          "name": "bgames",
          "type": "address"
        }
      ],
      "stateMutability": "nonpayable",
      "type": "constructor"
    },
    {
      "anonymous": false,
      "inputs": [
        {
          "indexed": true,
          "internalType": "address",
          "name": "user",
          "type": "address"
        },
        {
          "indexed": true,
          "internalType": "uint256",
          "name": "game",
          "type": "uint256"
        },
        {
          "indexed": false,
          "internalType": "uint256",
          "name": "server",
          "type": "uint256"
        },
        {
          "indexed": false,
          "internalType": "uint256",
          "name": "item",
          "type": "uint256"
        },
        {
          "indexed": true,
          "internalType": "uint256",
          "name": "id",
          "type": "uint256"
        }
      ],
      "name": "AddPlayer",
      "type": "event"
    },
    {
      "anonymous": false,
      "inputs": [
        {
          "indexed": true,
          "internalType": "address",
          "name": "user",
          "type": "address"
        },
        {
          "indexed": true,
          "internalType": "uint256",
          "name": "game",
          "type": "uint256"
        },
        {
          "indexed": false,
          "internalType": "uint256",
          "name": "server",
          "type": "uint256"
        },
        {
          "indexed": false,
          "internalType": "uint256",
          "name": "item",
          "type": "uint256"
        },
        {
          "indexed": true,
          "internalType": "uint256",
          "name": "id",
          "type": "uint256"
        },
        {
          "indexed": false,
          "internalType": "uint256",
          "name": "tax",
          "type": "uint256"
        },
        {
          "indexed": false,
          "internalType": "uint256",
          "name": "totalMoney",
          "type": "uint256"
        }
      ],
      "name": "CompanyLotteryCreated",
      "type": "event"
    },
    {
      "anonymous": false,
      "inputs": [
        {
          "indexed": true,
          "internalType": "address",
          "name": "user",
          "type": "address"
        },
        {
          "indexed": true,
          "internalType": "uint256",
          "name": "game",
          "type": "uint256"
        },
        {
          "indexed": false,
          "internalType": "uint256",
          "name": "server",
          "type": "uint256"
        },
        {
          "indexed": false,
          "internalType": "uint256",
          "name": "item",
          "type": "uint256"
        },
        {
          "indexed": true,
          "internalType": "uint256",
          "name": "id",
          "type": "uint256"
        }
      ],
      "name": "GiveItem",
      "type": "event"
    },
    {
      "anonymous": false,
      "inputs": [
        {
          "indexed": true,
          "internalType": "address",
          "name": "user",
          "type": "address"
        },
        {
          "indexed": true,
          "internalType": "uint256",
          "name": "game",
          "type": "uint256"
        },
        {
          "indexed": false,
          "internalType": "uint256",
          "name": "server",
          "type": "uint256"
        },
        {
          "indexed": false,
          "internalType": "uint256",
          "name": "item",
          "type": "uint256"
        },
        {
          "indexed": true,
          "internalType": "uint256",
          "name": "id",
          "type": "uint256"
        }
      ],
      "name": "ItemGiven",
      "type": "event"
    },
    {
      "anonymous": false,
      "inputs": [
        {
          "indexed": true,
          "internalType": "address",
          "name": "user",
          "type": "address"
        },
        {
          "indexed": true,
          "internalType": "uint256",
          "name": "game",
          "type": "uint256"
        },
        {
          "indexed": true,
          "internalType": "uint256",
          "name": "id",
          "type": "uint256"
        }
      ],
      "name": "ItemNotGiven",
      "type": "event"
    },
    {
      "anonymous": false,
      "inputs": [
        {
          "indexed": true,
          "internalType": "address",
          "name": "user",
          "type": "address"
        },
        {
          "indexed": true,
          "internalType": "uint256",
          "name": "game",
          "type": "uint256"
        },
        {
          "indexed": true,
          "internalType": "uint256",
          "name": "id",
          "type": "uint256"
        }
      ],
      "name": "ItemNotRefunded",
      "type": "event"
    },
    {
      "anonymous": false,
      "inputs": [
        {
          "indexed": true,
          "internalType": "address",
          "name": "user",
          "type": "address"
        },
        {
          "indexed": true,
          "internalType": "uint256",
          "name": "game",
          "type": "uint256"
        },
        {
          "indexed": true,
          "internalType": "uint256",
          "name": "id",
          "type": "uint256"
        }
      ],
      "name": "ItemNotTaken",
      "type": "event"
    },
    {
      "anonymous": false,
      "inputs": [
        {
          "indexed": true,
          "internalType": "address",
          "name": "user",
          "type": "address"
        },
        {
          "indexed": true,
          "internalType": "uint256",
          "name": "game",
          "type": "uint256"
        },
        {
          "indexed": false,
          "internalType": "uint256",
          "name": "server",
          "type": "uint256"
        },
        {
          "indexed": false,
          "internalType": "uint256",
          "name": "item",
          "type": "uint256"
        },
        {
          "indexed": true,
          "internalType": "uint256",
          "name": "id",
          "type": "uint256"
        }
      ],
      "name": "ItemRefunded",
      "type": "event"
    },
    {
      "anonymous": false,
      "inputs": [
        {
          "indexed": true,
          "internalType": "address",
          "name": "user",
          "type": "address"
        },
        {
          "indexed": true,
          "internalType": "uint256",
          "name": "game",
          "type": "uint256"
        },
        {
          "indexed": false,
          "internalType": "uint256",
          "name": "server",
          "type": "uint256"
        },
        {
          "indexed": false,
          "internalType": "uint256",
          "name": "item",
          "type": "uint256"
        },
        {
          "indexed": true,
          "internalType": "uint256",
          "name": "id",
          "type": "uint256"
        }
      ],
      "name": "ItemTaken",
      "type": "event"
    },
    {
      "anonymous": false,
      "inputs": [
        {
          "indexed": true,
          "internalType": "address",
          "name": "user",
          "type": "address"
        },
        {
          "indexed": true,
          "internalType": "uint256",
          "name": "game",
          "type": "uint256"
        },
        {
          "indexed": false,
          "internalType": "uint256",
          "name": "server",
          "type": "uint256"
        },
        {
          "indexed": false,
          "internalType": "uint256",
          "name": "item",
          "type": "uint256"
        },
        {
          "indexed": true,
          "internalType": "uint256",
          "name": "id",
          "type": "uint256"
        }
      ],
      "name": "PlayerAdded",
      "type": "event"
    },
    {
      "anonymous": false,
      "inputs": [
        {
          "indexed": true,
          "internalType": "address",
          "name": "user",
          "type": "address"
        },
        {
          "indexed": true,
          "internalType": "uint256",
          "name": "game",
          "type": "uint256"
        },
        {
          "indexed": true,
          "internalType": "uint256",
          "name": "id",
          "type": "uint256"
        }
      ],
      "name": "PlayerNotAdded",
      "type": "event"
    },
    {
      "anonymous": false,
      "inputs": [
        {
          "indexed": true,
          "internalType": "address",
          "name": "user",
          "type": "address"
        },
        {
          "indexed": true,
          "internalType": "uint256",
          "name": "game",
          "type": "uint256"
        },
        {
          "indexed": false,
          "internalType": "uint256",
          "name": "server",
          "type": "uint256"
        },
        {
          "indexed": false,
          "internalType": "uint256",
          "name": "item",
          "type": "uint256"
        },
        {
          "indexed": true,
          "internalType": "uint256",
          "name": "id",
          "type": "uint256"
        }
      ],
      "name": "RefundItem",
      "type": "event"
    },
    {
      "anonymous": false,
      "inputs": [
        {
          "indexed": true,
          "internalType": "address",
          "name": "user",
          "type": "address"
        },
        {
          "indexed": true,
          "internalType": "uint256",
          "name": "game",
          "type": "uint256"
        },
        {
          "indexed": false,
          "internalType": "uint256",
          "name": "server",
          "type": "uint256"
        },
        {
          "indexed": false,
          "internalType": "uint256",
          "name": "item",
          "type": "uint256"
        },
        {
          "indexed": true,
          "internalType": "uint256",
          "name": "id",
          "type": "uint256"
        },
        {
          "indexed": false,
          "internalType": "uint256[2]",
          "name": "metadata",
          "type": "uint256[2]"
        }
      ],
      "name": "TakeItem",
      "type": "event"
    },
    {
      "inputs": [
        {
          "internalType": "uint256",
          "name": "lottery",
          "type": "uint256"
        }
      ],
      "name": "addLotteryPlayer",
      "outputs": [],
      "stateMutability": "nonpayable",
      "type": "function"
    },
    {
      "inputs": [
        {
          "internalType": "uint256",
          "name": "lottery",
          "type": "uint256"
        },
        {
          "internalType": "address",
          "name": "player",
          "type": "address"
        },
        {
          "internalType": "bool",
          "name": "companyValidation",
          "type": "bool"
        }
      ],
      "name": "addLotteryPlayerValidation",
      "outputs": [],
      "stateMutability": "nonpayable",
      "type": "function"
    },
    {
      "inputs": [
        {
          "internalType": "uint256",
          "name": "lottery",
          "type": "uint256"
        }
      ],
      "name": "cancelLottery",
      "outputs": [],
      "stateMutability": "nonpayable",
      "type": "function"
    },
    {
      "inputs": [
        {
          "internalType": "uint256",
          "name": "lottery",
          "type": "uint256"
        },
        {
          "internalType": "bool",
          "name": "companyValidation",
          "type": "bool"
        }
      ],
      "name": "cancelledLottery",
      "outputs": [],
      "stateMutability": "nonpayable",
      "type": "function"
    },
    {
      "inputs": [
        {
          "internalType": "uint256",
          "name": "lottery",
          "type": "uint256"
        },
        {
          "internalType": "bool",
          "name": "companyValidation",
          "type": "bool"
        }
      ],
      "name": "companyLotteryValidation",
      "outputs": [],
      "stateMutability": "nonpayable",
      "type": "function"
    },
    {
      "inputs": [
        {
          "internalType": "uint256",
          "name": "game",
          "type": "uint256"
        },
        {
          "internalType": "uint256",
          "name": "tax",
          "type": "uint256"
        },
        {
          "internalType": "uint256",
          "name": "server",
          "type": "uint256"
        },
        {
          "internalType": "uint256",
          "name": "item",
          "type": "uint256"
        },
        {
          "internalType": "uint256",
          "name": "totalMoney",
          "type": "uint256"
        }
      ],
      "name": "createLottery",
      "outputs": [],
      "stateMutability": "nonpayable",
      "type": "function"
    },
    {
      "inputs": [
        {
          "internalType": "uint256",
          "name": "lottery",
          "type": "uint256"
        }
      ],
      "name": "finishLottery",
      "outputs": [],
      "stateMutability": "nonpayable",
      "type": "function"
    },
    {
      "inputs": [
        {
          "internalType": "uint256",
          "name": "lottery",
          "type": "uint256"
        },
        {
          "internalType": "bool",
          "name": "companyValidation",
          "type": "bool"
        }
      ],
      "name": "finishedLottery",
      "outputs": [],
      "stateMutability": "nonpayable",
      "type": "function"
    },
    {
      "inputs": [],
      "name": "games",
      "outputs": [
        {
          "internalType": "contract IBMarketGames",
          "name": "",
          "type": "address"
        }
      ],
      "stateMutability": "view",
      "type": "function"
    },
    {
      "inputs": [],
      "name": "id",
      "outputs": [
        {
          "internalType": "uint256",
          "name": "",
          "type": "uint256"
        }
      ],
      "stateMutability": "view",
      "type": "function"
    },
    {
      "inputs": [
        {
          "internalType": "uint256",
          "name": "",
          "type": "uint256"
        }
      ],
      "name": "lotteries",
      "outputs": [
        {
          "internalType": "address",
          "name": "owner",
          "type": "address"
        },
        {
          "internalType": "uint256",
          "name": "game",
          "type": "uint256"
        },
        {
          "internalType": "uint256",
          "name": "victoryNumber",
          "type": "uint256"
        },
        {
          "internalType": "uint256",
          "name": "totalMoney",
          "type": "uint256"
        },
        {
          "internalType": "uint256",
          "name": "currentMoney",
          "type": "uint256"
        },
        {
          "internalType": "uint256",
          "name": "tax",
          "type": "uint256"
        },
        {
          "internalType": "uint256",
          "name": "item",
          "type": "uint256"
        },
        {
          "internalType": "uint256",
          "name": "server",
          "type": "uint256"
        },
        {
          "internalType": "enum QLotteries.LotteryStatus",
          "name": "status",
          "type": "uint8"
        }
      ],
      "stateMutability": "view",
      "type": "function"
    },
    {
      "inputs": [
        {
          "internalType": "uint256",
          "name": "lottery",
          "type": "uint256"
        }
      ],
      "name": "lotteryPlayers",
      "outputs": [
        {
          "internalType": "address[]",
          "name": "",
          "type": "address[]"
        }
      ],
      "stateMutability": "view",
      "type": "function"
    },
    {
      "inputs": [],
      "name": "owner",
      "outputs": [
        {
          "internalType": "address",
          "name": "",
          "type": "address"
        }
      ],
      "stateMutability": "view",
      "type": "function"
    },
    {
      "inputs": [
        {
          "internalType": "address",
          "name": "busers",
          "type": "address"
        },
        {
          "internalType": "address",
          "name": "bgames",
          "type": "address"
        }
      ],
      "name": "setGlobalParams",
      "outputs": [],
      "stateMutability": "nonpayable",
      "type": "function"
    },
    {
      "inputs": [],
      "name": "users",
      "outputs": [
        {
          "internalType": "contract IBMarketUsers",
          "name": "",
          "type": "address"
        }
      ],
      "stateMutability": "view",
      "type": "function"
    },
    {
      "inputs": [
        {
          "internalType": "uint256",
          "name": "lottery",
          "type": "uint256"
        },
        {
          "internalType": "address",
          "name": "player",
          "type": "address"
        }
      ],
      "name": "verifyPlayer",
      "outputs": [
        {
          "internalType": "address",
          "name": "",
          "type": "address"
        }
      ],
      "stateMutability": "view",
      "type": "function"
    }
  ],
  "bytecode": "0x608060405260016003553480156200001657600080fd5b5060405162001d7f38038062001d7f833981016040819052620000399162000093565b600080546001600160a01b03199081163317909155600180546001600160a01b0394851690831617905560028054929093169116179055620000cb565b80516001600160a01b03811681146200008e57600080fd5b919050565b60008060408385031215620000a757600080fd5b620000b28362000076565b9150620000c26020840162000076565b90509250929050565b611ca480620000db6000396000f3fe608060405234801561001057600080fd5b50600436106101005760003560e01c80638da5cb5b11610097578063e7e6c81c11610066578063e7e6c81c1461027b578063ed72b7511461028e578063f2020275146102a1578063f9b93a1d146102b457600080fd5b80638da5cb5b1461022b578063955a015b1461023e578063af640d0f14610251578063b7d36fca1461026857600080fd5b80634538f297116100d35780634538f297146101c757806346d59b9b146101da5780635ff18aa6146101ed578063637aa3531461020057600080fd5b80630884b147146101055780631398e0761461011a578063269371f4146101a15780633a2ebaec146101b4575b600080fd5b610118610113366004611876565b6102d4565b005b610183610128366004611876565b6004602081905260009182526040909120600281015460038201549282015460058301546006840154600785015460088601546009870154600a909701546001600160a01b0390961697969495939492939192909160ff1689565b604051610198999897969594939291906118a5565b60405180910390f35b6101186101af36600461192b565b610430565b6101186101c236600461196f565b610bcb565b6101186101d5366004611876565b610c10565b6101186101e8366004611876565b610cd3565b6101186101fb36600461192b565b610e5f565b61021361020e3660046119a8565b6110e5565b6040516001600160a01b039091168152602001610198565b600054610213906001600160a01b031681565b600254610213906001600160a01b031681565b61025a60035481565b604051908152602001610198565b61011861027636600461192b565b611111565b6101186102893660046119cd565b6112a1565b61011861029c366004611a08565b611544565b600154610213906001600160a01b031681565b6102c76102c2366004611876565b611807565b6040516101989190611a46565b60016000828152600460208190526040909120600a015460ff16908111156102fe576102fe61188f565b1461030857600080fd5b6000818152600460205260409020600201546001600160a01b0316330361032e57600080fd5b6002546000828152600460208190526040918290206003810154600982015460089092015493516320f1bf4160e01b81526001600160a01b03909516946320f1bf419461037e9433949201611a93565b60006040518083038186803b15801561039657600080fd5b505afa1580156103aa573d6000803e3d6000fd5b50505060008281526004602081815260408084203380865281845282862080546001600160a01b0319168217905594879052928252600383015460098401546008909401548251948552928401929092528594509092917f6e6ff0f15481996c0cd8ab6b49c2e09152ec2d1df103c6ba7dbe18725329f08d91015b60405180910390a450565b6002546000838152600460208190526040918290206003810154600982015460089092015493516332294f3960e11b81526001600160a01b03909516946364529e72946104809433949201611a93565b60006040518083038186803b15801561049857600080fd5b505afa1580156104ac573d6000803e3d6000fd5b50600192506104b9915050565b6000838152600460208190526040909120600a015460ff16908111156104e1576104e161188f565b146104eb57600080fd5b8015610b57576000828152600460208190526040808320600a8101805460ff19168417905560025460039091015491516335681b5360e21b8152928301919091526001600160a01b03169063d5a06d4c906024016040805180830381865afa15801561055b573d6000803e3d6000fd5b505050506040513d601f19601f8201168201806040525081019061057f9190611ab9565b6001546000858152600460208190526040808320600201549051634a9fefc760e01b81526001600160a01b0391821692810192909252939450909290911690634a9fefc790602401602060405180830381865afa1580156105e4573d6000803e3d6000fd5b505050506040513d601f19601f820116820180604052508101906106089190611b47565b60015460008054855188835260046020526040909220600601549394506001600160a01b039283169363b52d7343939091169161064491611bad565b6040516001600160e01b031960e085901b1681526001600160a01b0390921660048301526024820152604401600060405180830381600087803b15801561068a57600080fd5b505af115801561069e573d6000803e3d6000fd5b505060015460025460008881526004602081905260409182902060030154915163b3ecdfc360e01b8152908101919091526001600160a01b03928316945063b52d7343935091169063b3ecdfc390602401602060405180830381865afa15801561070c573d6000803e3d6000fd5b505050506040513d601f19601f820116820180604052508101906107309190611b47565b602080860151600089815260049092526040909120600601546107539190611bad565b6040516001600160e01b031960e085901b1681526001600160a01b0390921660048301526024820152604401600060405180830381600087803b15801561079957600080fd5b505af11580156107ad573d6000803e3d6000fd5b5050506001600160a01b03821690506108a75760015460008581526004602090815260409091206002810154918501516006909101546001600160a01b039384169363b52d734393169161080091611bad565b855160008981526004602052604090206006015461081e9190611bad565b60008981526004602052604090206005015461083a9190611bc1565b6108449190611bc1565b6040516001600160e01b031960e085901b1681526001600160a01b0390921660048301526024820152604401600060405180830381600087803b15801561088a57600080fd5b505af115801561089e573d6000803e3d6000fd5b50505050610ab6565b60015460405163468c75a160e01b81526001600160a01b038381166004830152600092169063468c75a190602401602060405180830381865afa1580156108f2573d6000803e3d6000fd5b505050506040513d601f19601f820116820180604052508101906109169190611bd4565b6001546000878152600460205260409020600601549192506001600160a01b03169063b52d734390849061094b908590611bad565b6040516001600160e01b031960e085901b1681526001600160a01b0390921660048301526024820152604401600060405180830381600087803b15801561099157600080fd5b505af11580156109a5573d6000803e3d6000fd5b5050600154600088815260046020526040902060028101546006909101546001600160a01b03928316945063b52d734393509116906109e5908590611bad565b60208088015160008b81526004909252604090912060060154610a089190611bad565b875160008b815260046020526040902060060154610a269190611bad565b60008b815260046020526040902060050154610a429190611bc1565b610a4c9190611bc1565b610a569190611bc1565b6040516001600160e01b031960e085901b1681526001600160a01b0390921660048301526024820152604401600060405180830381600087803b158015610a9c57600080fd5b505af1158015610ab0573d6000803e3d6000fd5b50505050505b600084815260046020819052604090912060038101549181015460019091018054879392908110610ae957610ae9611b6b565b6000918252602080832091909101548883526004825260409283902060098101546008909101548451918252928101929092526001600160a01b0316917ff8b1513a80efa44743c8fd203c5ea490eb045b980e712306aabf06142f3dd86a910160405180910390a450505050565b600082815260046020819052604090912060038101549181015460019091018054859392908110610b8a57610b8a611b6b565b60009182526020822001546040516001600160a01b03909116917faf6b3032f8e3492c4bb6b4c79dcc6083c222fa059953718fd64af48b99e021c291a45050565b6000546001600160a01b03163314610be257600080fd5b600180546001600160a01b039384166001600160a01b03199182161790915560028054929093169116179055565b60016000828152600460208190526040909120600a015460ff1690811115610c3a57610c3a61188f565b14610c4457600080fd5b6000818152600460205260409020600201546001600160a01b03163314610c6a57600080fd5b600081815260046020908152604091829020600381015460028201546009830154600890930154855193845293830193909352849390926001600160a01b0316917fe9af9e82f3c3eee0c87697791875b3d83c7286fe489d5b69620ae2cdcd828f359101610425565b6000818152600460205260409020600581015460069091015410801590610d21575060016000828152600460208190526040909120600a015460ff1690811115610d1f57610d1f61188f565b145b610d2a57600080fd5b6000818152600460205260409020600201546001600160a01b03163314610d5057600080fd5b60008181526004602090815260408083206001810154600290910154825193840186905260601b6bffffffffffffffffffffffff191691830191909152436054830152906074016040516020818303038152906040528051906020012060001c610dba9190611bed565b6000838152600460208190526040909120908101829055600381015460019091018054929350849284908110610df257610df2611b6b565b6000918252602080832091909101548683526004825260409283902060098101546008909101548451918252928101929092526001600160a01b0316917f6a391651e6925699d21e05a7839a1cd477cf124d1392eb575fdeed1b1b9fd6d991015b60405180910390a45050565b60016000838152600460208190526040909120600a015460ff1690811115610e8957610e8961188f565b14610e9357600080fd5b6002546000838152600460208190526040918290206003810154600982015460089092015493516332294f3960e11b81526001600160a01b03909516946364529e7294610ee39433949201611a93565b60006040518083038186803b158015610efb57600080fd5b505afa158015610f0f573d6000803e3d6000fd5b505050508015611094576000828152600460205260408120600a01805460ff191660021790555b60008381526004602052604090206001015481101561102a5760018054600085815260046020526040902090910180546001600160a01b039092169163b52d7343919084908110610f8957610f89611b6b565b60009182526020808320909101548783526004918290526040928390206007015492516001600160e01b031960e086901b168152610fe7936001600160a01b0390921692016001600160a01b03929092168252602082015260400190565b600060405180830381600087803b15801561100157600080fd5b505af1158015611015573d6000803e3d6000fd5b505050508061102390611c01565b9050610f36565b50600082815260046020908152604091829020600381015460028201546009830154600890930154855193845293830193909352859390926001600160a01b0316917f93154a1fac9d59458e56386455749c46ee98d5c17cd5ebec240dc6a90224aa2a9101610e53565b60008281526004602052604080822060038101546002909101549151859391926001600160a01b0316917f0cb5255f0cb5f3c92b353e244e31454415d69c769fe5f634a6eb74849a862d7891a45050565b60008281526004602090815260408083206001600160a01b038086168552925290912054165b92915050565b60008281526004602081905260408220600a015460ff16908111156111385761113861188f565b1461114257600080fd5b6002546000838152600460208190526040918290206003810154600982015460089092015493516332294f3960e11b81526001600160a01b03909516946364529e72946111929433949201611a93565b60006040518083038186803b1580156111aa57600080fd5b505afa1580156111be573d6000803e3d6000fd5b50505050801561124057600082815260046020908152604091829020600a8101805460ff19166001179055600381015460028201546009830154600890930154855193845293830193909352859390926001600160a01b0316917f44e90549ef8f78efc59ac60133c20ec6112f043d8351d4f8e50c7572a8a245719101610e53565b600082815260046020526040808220600a8101805460ff191660039081179091558101546002909101549151859391926001600160a01b0316917f35dbf9b1750829d93433dea845420ef3411290234cdd18a67e2b706015165c2391a45050565b6000851180156112b15750600083115b80156112bd5750600082115b6112c657600080fd5b6112d1600282611bad565b841080156112e0575060648110155b6112e957600080fd5b6002546040516320f1bf4160e01b81526001600160a01b03909116906320f1bf419061131f903390899088908890600401611a93565b60006040518083038186803b15801561133757600080fd5b505afa15801561134b573d6000803e3d6000fd5b5050600380546000908152600460208190526040808320600290810180546001600160a01b031916339081179091558554855282852086018d9055855485528285206009018b9055855485528285206008018a9055855485528285206007018c905594548452928190206005018790559154915163b3ecdfc360e01b81529081018a90529193506001600160a01b0316915063b3ecdfc390602401602060405180830381865afa158015611403573d6000803e3d6000fd5b505050506040513d601f19601f820116820180604052508101906114279190611b47565b6001600160a01b0316036114aa5760038054600090815260046020908152604091829020600a01805460ff19166001179055915481518681529283018590529082018690526060820183905290869033907f7e1c527315fe10a468b623a6cad92d9c3ae842bd8c15abb4e55165cda8e9b8149060800160405180910390a461152a565b6003546000908152600460205260408120600a01805460ff1916600183021790555060035485336001600160a01b03167ffa1cb7dcdee188cfc6792b4703137a3750d27fa3e0bef4a618ca609444a991f4868660405180604001604052808b81526020018881525060405161152193929190611c1a565b60405180910390a45b60036000815461153990611c01565b909155505050505050565b60008381526004602090815260408083206001600160a01b03808716808652919093529220541614801561158057506001600160a01b03821615155b61158957600080fd5b60016000848152600460208190526040909120600a015460ff16908111156115b3576115b361188f565b146115bd57600080fd5b60008381526004602081815260408084206001600160a01b03808816865281845282862080546001600160a01b031916905560025495899052928490526003810154600982015460089092015492516332294f3960e11b815295909316946364529e7294611632943394909392909101611a93565b60006040518083038186803b15801561164a57600080fd5b505afa15801561165e573d6000803e3d6000fd5b5050505080156117bc57600154600084815260046020819052604091829020600701549151631f22c54760e11b81526001600160a01b0390931692633e458a8e926116bf928792016001600160a01b03929092168252602082015260400190565b600060405180830381600087803b1580156116d957600080fd5b505af11580156116ed573d6000803e3d6000fd5b50505060008481526004602090815260408220600180820180549182018155845291832090910180546001600160a01b0319166001600160a01b038716179055858252600781015460069091018054919350919061174c908490611c5b565b90915550506000838152600460209081526040918290206003810154600982015460089092015484519283529282019290925285926001600160a01b038616917f318fbb5e3e0f04d2bc77a84f60acfbad2f324d4f4798f318ccce841c32d80f16910160405180910390a4505050565b60008381526004602052604080822060030154905185926001600160a01b038616917fd63bfd6074a6eadc15304e9fa12d7026434ab7abcc619c7b17977aac412ed9d59190a4505050565b60008181526004602090815260409182902060010180548351818402810184019094528084526060939283018282801561186a57602002820191906000526020600020905b81546001600160a01b0316815260019091019060200180831161184c575b50505050509050919050565b60006020828403121561188857600080fd5b5035919050565b634e487b7160e01b600052602160045260246000fd5b60006101208201905060018060a01b038b1682528960208301528860408301528760608301528660808301528560a08301528460c08301528360e08301526005831061190157634e487b7160e01b600052602160045260246000fd5b826101008301529a9950505050505050505050565b8035801515811461192657600080fd5b919050565b6000806040838503121561193e57600080fd5b8235915061194e60208401611916565b90509250929050565b6001600160a01b038116811461196c57600080fd5b50565b6000806040838503121561198257600080fd5b823561198d81611957565b9150602083013561199d81611957565b809150509250929050565b600080604083850312156119bb57600080fd5b82359150602083013561199d81611957565b600080600080600060a086880312156119e557600080fd5b505083359560208501359550604085013594606081013594506080013592509050565b600080600060608486031215611a1d57600080fd5b833592506020840135611a2f81611957565b9150611a3d60408501611916565b90509250925092565b6020808252825182820181905260009190848201906040850190845b81811015611a875783516001600160a01b031683529284019291840191600101611a62565b50909695505050505050565b6001600160a01b0394909416845260208401929092526040830152606082015260800190565b600060408284031215611acb57600080fd5b82601f830112611ada57600080fd5b6040516040810181811067ffffffffffffffff82111715611b0b57634e487b7160e01b600052604160045260246000fd5b8060405250806040840185811115611b2257600080fd5b845b81811015611b3c578051835260209283019201611b24565b509195945050505050565b600060208284031215611b5957600080fd5b8151611b6481611957565b9392505050565b634e487b7160e01b600052603260045260246000fd5b634e487b7160e01b600052601260045260246000fd5b634e487b7160e01b600052601160045260246000fd5b600082611bbc57611bbc611b81565b500490565b8181038181111561110b5761110b611b97565b600060208284031215611be657600080fd5b5051919050565b600082611bfc57611bfc611b81565b500690565b600060018201611c1357611c13611b97565b5060010190565b83815260208082018490526080820190604083018460005b6002811015611c4f57815183529183019190830190600101611c32565b50505050949350505050565b8082018082111561110b5761110b611b9756fea264697066735822122095612ab48f65ab2f735676ef2e0eeb84a381a49e6fd1ca54abab1512ca9be00d64736f6c63430008110033",
  "linkReferences": {},
  "deployedLinkReferences": {}
}