{
  "_format": "hh-sol-artifact-1",
  "contractName": "SALESCOMPANY",
  "sourceName": "contracts/private/SalesCompany.sol",
  "abi": [
    {
      "inputs": [
        {
          "internalType": "address",
          "name": "busers",
          "type": "address"
        },
        {
          "internalType": "address",
          "name": "bgames",
          "type": "address"
        }
      ],
      "stateMutability": "nonpayable",
      "type": "constructor"
    },
    {
      "anonymous": false,
      "inputs": [
        {
          "indexed": true,
          "internalType": "address",
          "name": "user",
          "type": "address"
        },
        {
          "indexed": true,
          "internalType": "uint256",
          "name": "game",
          "type": "uint256"
        },
        {
          "indexed": false,
          "internalType": "uint256",
          "name": "server",
          "type": "uint256"
        },
        {
          "indexed": false,
          "internalType": "uint256",
          "name": "item",
          "type": "uint256"
        },
        {
          "indexed": false,
          "internalType": "uint256[3]",
          "name": "metadata",
          "type": "uint256[3]"
        }
      ],
      "name": "CompanySellingItems",
      "type": "event"
    },
    {
      "anonymous": false,
      "inputs": [
        {
          "indexed": true,
          "internalType": "address",
          "name": "user",
          "type": "address"
        },
        {
          "indexed": true,
          "internalType": "uint256",
          "name": "game",
          "type": "uint256"
        },
        {
          "indexed": false,
          "internalType": "uint256",
          "name": "server",
          "type": "uint256"
        },
        {
          "indexed": false,
          "internalType": "uint256",
          "name": "item",
          "type": "uint256"
        },
        {
          "indexed": true,
          "internalType": "uint256",
          "name": "id",
          "type": "uint256"
        }
      ],
      "name": "GiveItem",
      "type": "event"
    },
    {
      "anonymous": false,
      "inputs": [
        {
          "indexed": true,
          "internalType": "address",
          "name": "user",
          "type": "address"
        },
        {
          "indexed": true,
          "internalType": "uint256",
          "name": "game",
          "type": "uint256"
        },
        {
          "indexed": false,
          "internalType": "uint256",
          "name": "server",
          "type": "uint256"
        },
        {
          "indexed": false,
          "internalType": "uint256",
          "name": "item",
          "type": "uint256"
        },
        {
          "indexed": true,
          "internalType": "uint256",
          "name": "id",
          "type": "uint256"
        }
      ],
      "name": "ItemGiven",
      "type": "event"
    },
    {
      "anonymous": false,
      "inputs": [
        {
          "indexed": true,
          "internalType": "address",
          "name": "user",
          "type": "address"
        },
        {
          "indexed": true,
          "internalType": "uint256",
          "name": "game",
          "type": "uint256"
        },
        {
          "indexed": true,
          "internalType": "uint256",
          "name": "id",
          "type": "uint256"
        }
      ],
      "name": "ItemNotGiven",
      "type": "event"
    },
    {
      "anonymous": false,
      "inputs": [
        {
          "indexed": true,
          "internalType": "address",
          "name": "user",
          "type": "address"
        },
        {
          "indexed": true,
          "internalType": "uint256",
          "name": "game",
          "type": "uint256"
        },
        {
          "indexed": true,
          "internalType": "uint256",
          "name": "id",
          "type": "uint256"
        }
      ],
      "name": "ItemNotRefunded",
      "type": "event"
    },
    {
      "anonymous": false,
      "inputs": [
        {
          "indexed": true,
          "internalType": "address",
          "name": "user",
          "type": "address"
        },
        {
          "indexed": true,
          "internalType": "uint256",
          "name": "game",
          "type": "uint256"
        },
        {
          "indexed": true,
          "internalType": "uint256",
          "name": "id",
          "type": "uint256"
        }
      ],
      "name": "ItemNotTaken",
      "type": "event"
    },
    {
      "anonymous": false,
      "inputs": [
        {
          "indexed": true,
          "internalType": "address",
          "name": "user",
          "type": "address"
        },
        {
          "indexed": true,
          "internalType": "uint256",
          "name": "game",
          "type": "uint256"
        },
        {
          "indexed": false,
          "internalType": "uint256",
          "name": "server",
          "type": "uint256"
        },
        {
          "indexed": false,
          "internalType": "uint256",
          "name": "item",
          "type": "uint256"
        },
        {
          "indexed": true,
          "internalType": "uint256",
          "name": "id",
          "type": "uint256"
        }
      ],
      "name": "ItemRefunded",
      "type": "event"
    },
    {
      "anonymous": false,
      "inputs": [
        {
          "indexed": true,
          "internalType": "address",
          "name": "user",
          "type": "address"
        },
        {
          "indexed": true,
          "internalType": "uint256",
          "name": "game",
          "type": "uint256"
        },
        {
          "indexed": false,
          "internalType": "uint256",
          "name": "server",
          "type": "uint256"
        },
        {
          "indexed": false,
          "internalType": "uint256",
          "name": "item",
          "type": "uint256"
        },
        {
          "indexed": true,
          "internalType": "uint256",
          "name": "id",
          "type": "uint256"
        },
        {
          "indexed": false,
          "internalType": "uint256",
          "name": "price",
          "type": "uint256"
        }
      ],
      "name": "ItemTaken",
      "type": "event"
    },
    {
      "anonymous": false,
      "inputs": [
        {
          "indexed": true,
          "internalType": "address",
          "name": "user",
          "type": "address"
        },
        {
          "indexed": true,
          "internalType": "uint256",
          "name": "game",
          "type": "uint256"
        },
        {
          "indexed": false,
          "internalType": "uint256",
          "name": "server",
          "type": "uint256"
        },
        {
          "indexed": false,
          "internalType": "uint256",
          "name": "item",
          "type": "uint256"
        },
        {
          "indexed": true,
          "internalType": "uint256",
          "name": "id",
          "type": "uint256"
        }
      ],
      "name": "ItemTaken",
      "type": "event"
    },
    {
      "anonymous": false,
      "inputs": [
        {
          "indexed": true,
          "internalType": "address",
          "name": "user",
          "type": "address"
        },
        {
          "indexed": true,
          "internalType": "uint256",
          "name": "game",
          "type": "uint256"
        },
        {
          "indexed": false,
          "internalType": "uint256",
          "name": "server",
          "type": "uint256"
        },
        {
          "indexed": false,
          "internalType": "uint256",
          "name": "item",
          "type": "uint256"
        },
        {
          "indexed": true,
          "internalType": "uint256",
          "name": "id",
          "type": "uint256"
        }
      ],
      "name": "RefundItem",
      "type": "event"
    },
    {
      "anonymous": false,
      "inputs": [
        {
          "indexed": true,
          "internalType": "address",
          "name": "user",
          "type": "address"
        },
        {
          "indexed": true,
          "internalType": "uint256",
          "name": "game",
          "type": "uint256"
        },
        {
          "indexed": false,
          "internalType": "uint256",
          "name": "server",
          "type": "uint256"
        },
        {
          "indexed": false,
          "internalType": "uint256",
          "name": "item",
          "type": "uint256"
        },
        {
          "indexed": true,
          "internalType": "uint256[]",
          "name": "ids",
          "type": "uint256[]"
        }
      ],
      "name": "SalesCancelled",
      "type": "event"
    },
    {
      "anonymous": false,
      "inputs": [
        {
          "indexed": true,
          "internalType": "address",
          "name": "user",
          "type": "address"
        },
        {
          "indexed": true,
          "internalType": "uint256",
          "name": "game",
          "type": "uint256"
        },
        {
          "indexed": false,
          "internalType": "uint256",
          "name": "server",
          "type": "uint256"
        },
        {
          "indexed": false,
          "internalType": "uint256",
          "name": "item",
          "type": "uint256"
        },
        {
          "indexed": true,
          "internalType": "uint256",
          "name": "id",
          "type": "uint256"
        },
        {
          "indexed": false,
          "internalType": "uint256",
          "name": "price",
          "type": "uint256"
        }
      ],
      "name": "TakeItem",
      "type": "event"
    },
    {
      "anonymous": false,
      "inputs": [
        {
          "indexed": true,
          "internalType": "address",
          "name": "user",
          "type": "address"
        },
        {
          "indexed": true,
          "internalType": "uint256",
          "name": "game",
          "type": "uint256"
        },
        {
          "indexed": false,
          "internalType": "uint256",
          "name": "server",
          "type": "uint256"
        },
        {
          "indexed": false,
          "internalType": "uint256",
          "name": "item",
          "type": "uint256"
        },
        {
          "indexed": true,
          "internalType": "uint256",
          "name": "id",
          "type": "uint256"
        },
        {
          "indexed": false,
          "internalType": "uint256[2]",
          "name": "metadata",
          "type": "uint256[2]"
        }
      ],
      "name": "TakeItem",
      "type": "event"
    },
    {
      "inputs": [
        {
          "internalType": "uint256[]",
          "name": "_sales",
          "type": "uint256[]"
        },
        {
          "internalType": "uint256",
          "name": "game",
          "type": "uint256"
        },
        {
          "internalType": "uint256",
          "name": "server",
          "type": "uint256"
        },
        {
          "internalType": "uint256",
          "name": "item",
          "type": "uint256"
        }
      ],
      "name": "cancelSales",
      "outputs": [],
      "stateMutability": "nonpayable",
      "type": "function"
    },
    {
      "inputs": [
        {
          "internalType": "uint256",
          "name": "sale",
          "type": "uint256"
        },
        {
          "internalType": "address",
          "name": "buyer",
          "type": "address"
        },
        {
          "internalType": "bool",
          "name": "companyValidation",
          "type": "bool"
        }
      ],
      "name": "confirmPurchase",
      "outputs": [],
      "stateMutability": "nonpayable",
      "type": "function"
    },
    {
      "inputs": [
        {
          "internalType": "uint256",
          "name": "game",
          "type": "uint256"
        },
        {
          "internalType": "uint256",
          "name": "server",
          "type": "uint256"
        },
        {
          "internalType": "uint256",
          "name": "item",
          "type": "uint256"
        },
        {
          "internalType": "uint256",
          "name": "price",
          "type": "uint256"
        },
        {
          "internalType": "uint256",
          "name": "qty",
          "type": "uint256"
        }
      ],
      "name": "createSales",
      "outputs": [],
      "stateMutability": "nonpayable",
      "type": "function"
    },
    {
      "inputs": [],
      "name": "games",
      "outputs": [
        {
          "internalType": "contract IBMarketGames",
          "name": "",
          "type": "address"
        }
      ],
      "stateMutability": "view",
      "type": "function"
    },
    {
      "inputs": [],
      "name": "id",
      "outputs": [
        {
          "internalType": "uint256",
          "name": "",
          "type": "uint256"
        }
      ],
      "stateMutability": "view",
      "type": "function"
    },
    {
      "inputs": [],
      "name": "owner",
      "outputs": [
        {
          "internalType": "address",
          "name": "",
          "type": "address"
        }
      ],
      "stateMutability": "view",
      "type": "function"
    },
    {
      "inputs": [
        {
          "internalType": "uint256",
          "name": "sale",
          "type": "uint256"
        }
      ],
      "name": "purchase",
      "outputs": [],
      "stateMutability": "nonpayable",
      "type": "function"
    },
    {
      "inputs": [
        {
          "internalType": "uint256",
          "name": "",
          "type": "uint256"
        }
      ],
      "name": "sales",
      "outputs": [
        {
          "internalType": "address",
          "name": "seller",
          "type": "address"
        },
        {
          "internalType": "address",
          "name": "buyer",
          "type": "address"
        },
        {
          "internalType": "uint256",
          "name": "game",
          "type": "uint256"
        },
        {
          "internalType": "uint256",
          "name": "item",
          "type": "uint256"
        },
        {
          "internalType": "uint256",
          "name": "price",
          "type": "uint256"
        },
        {
          "internalType": "uint256",
          "name": "server",
          "type": "uint256"
        },
        {
          "internalType": "enum SALESCOMPANY.SaleStatus",
          "name": "status",
          "type": "uint8"
        }
      ],
      "stateMutability": "view",
      "type": "function"
    },
    {
      "inputs": [
        {
          "internalType": "address",
          "name": "busers",
          "type": "address"
        },
        {
          "internalType": "address",
          "name": "bgames",
          "type": "address"
        }
      ],
      "name": "setGlobalParams",
      "outputs": [],
      "stateMutability": "nonpayable",
      "type": "function"
    },
    {
      "inputs": [],
      "name": "users",
      "outputs": [
        {
          "internalType": "contract IBMarketUsers",
          "name": "",
          "type": "address"
        }
      ],
      "stateMutability": "view",
      "type": "function"
    }
  ],
  "bytecode": "0x6080604052600160035534801561001557600080fd5b506040516115aa3803806115aa8339810160408190526100349161008c565b600080546001600160a01b03199081163317909155600180546001600160a01b03948516908316179055600280549290931691161790556100bf565b80516001600160a01b038116811461008757600080fd5b919050565b6000806040838503121561009f57600080fd5b6100a883610070565b91506100b660208401610070565b90509250929050565b6114dc806100ce6000396000f3fe608060405234801561001057600080fd5b506004361061009e5760003560e01c8063b94d0d4711610066578063b94d0d4714610183578063cbd2b21c14610196578063de0fb134146101a9578063efef39a1146101bc578063f2020275146101cf57600080fd5b80633a2ebaec146100a35780638da5cb5b146100b8578063955a015b146100e8578063af640d0f146100fb578063b5f522f714610112575b600080fd5b6100b66100b13660046110bb565b6101e2565b005b6000546100cb906001600160a01b031681565b6040516001600160a01b0390911681526020015b60405180910390f35b6002546100cb906001600160a01b031681565b61010460035481565b6040519081526020016100df565b6101706101203660046110f4565b600460208190526000918252604090912060018101546002820154600383015493830154600584015460068501546007909501546001600160a01b03948516969490931694919290919060ff1687565b6040516100df9796959493929190611123565b6100b6610191366004611187565b610227565b6100b66101a4366004611212565b610541565b6100b66101b7366004611259565b610cc7565b6100b66101ca3660046110f4565b610e8c565b6001546100cb906001600160a01b031681565b6000546001600160a01b031633146101f957600080fd5b600180546001600160a01b039384166001600160a01b03199182161790915560028054929093169116179055565b82828260008311801561023a5750600082115b80156102465750600081115b61024f57600080fd5b6002546001600160a01b03166364529e72600460008b8b828161027457610274611294565b90506020020135815260200190815260200160002060010160009054906101000a90046001600160a01b03168888886040518563ffffffff1660e01b81526004016102c294939291906112aa565b60006040518083038186803b1580156102da57600080fd5b505afa1580156102ee573d6000803e3d6000fd5b5050505060005b878110156104a65733600460008b8b8581811061031457610314611294565b60209081029290920135835250810191909152604001600020600101546001600160a01b03161461034457600080fd5b6001600460008b8b8581811061035c5761035c611294565b602090810292909201358352508101919091526040016000206007015460ff16600581111561038d5761038d61110d565b1461039757600080fd5b86600460008b8b858181106103ae576103ae611294565b90506020020135815260200190815260200160002060030154148015610401575085600460008b8b858181106103e6576103e6611294565b90506020020135815260200190815260200160002060060154145b801561043a575084600460008b8b8581811061041f5761041f611294565b90506020020135815260200190815260200160002060040154145b61044357600080fd5b6005600460008b8b8581811061045b5761045b611294565b60209081029290920135835250810191909152604001600020600701805460ff191660018360058111156104915761049161110d565b021790555061049f816112e6565b90506102f5565b5087876040516104b79291906112ff565b604051809103902086600460008b8b60008181106104d7576104d7611294565b602090810292909201358352508181019290925260409081016000206001015481518a81529283018990526001600160a01b0316917fb22d33c4306840f94b1ffadd3986184e6810d30b11e4b7b0e68e73b61834e2c4910160405180910390a45050505050505050565b60008381526004602090815260408083206001600160a01b038616845290915290205460ff1680156105985750600360008481526004602052604090206007015460ff1660058111156105965761059661110d565b145b6105a157600080fd5b600254600084815260046020819052604091829020600381015460068201549183015493516332294f3960e11b81526001600160a01b03909516946364529e72946105ef94339492016112aa565b60006040518083038186803b15801561060757600080fd5b505afa15801561061b573d6000803e3d6000fd5b505050508015610c4b5760008381526004602081905260409091206002810180546001600160a01b0319166001600160a01b0386161790556007015460ff16600581111561066b5761066b61110d565b505060025460008481526004602081905260408083206003015490516335681b5360e21b81529182015290916001600160a01b03169063d5a06d4c906024016040805180830381865afa1580156106c6573d6000803e3d6000fd5b505050506040513d601f19601f820116820180604052508101906106ea9190611328565b600154604051634a9fefc760e01b81526001600160a01b03868116600483015292935060009290911690634a9fefc790602401602060405180830381865afa15801561073a573d6000803e3d6000fd5b505050506040513d601f19601f8201168201806040525081019061075e91906113b6565b60015460008054855189835260046020526040909220600501549394506001600160a01b03928316936399ec1bda93899392169161079b916113da565b6040518463ffffffff1660e01b81526004016107b9939291906113fc565b600060405180830381600087803b1580156107d357600080fd5b505af11580156107e7573d6000803e3d6000fd5b505060015460025460008981526004602081905260409182902060030154915163b3ecdfc360e01b8152908101919091526001600160a01b0392831694506399ec1bda935088929091169063b3ecdfc390602401602060405180830381865afa158015610858573d6000803e3d6000fd5b505050506040513d601f19601f8201168201806040525081019061087c91906113b6565b60208087015160008b8152600490925260409091206005015461089f91906113da565b6040518463ffffffff1660e01b81526004016108bd939291906113fc565b600060405180830381600087803b1580156108d757600080fd5b505af11580156108eb573d6000803e3d6000fd5b5050506001600160a01b03821690506109da576001805460008781526004602052604090209182015484516005909301546001600160a01b03928316936399ec1bda938993169161093c91906113da565b60208088015160008c8152600490925260409091206005015461095f91906113da565b60008b81526004602052604090206005015461097b9190611420565b6109859190611420565b6040518463ffffffff1660e01b81526004016109a3939291906113fc565b600060405180830381600087803b1580156109bd57600080fd5b505af11580156109d1573d6000803e3d6000fd5b50505050610bd2565b60015460405163468c75a160e01b81526001600160a01b038381166004830152600092169063468c75a190602401602060405180830381865afa158015610a25573d6000803e3d6000fd5b505050506040513d601f19601f82011682018060405250810190610a499190611439565b6001546000888152600460205260409020600501549192506001600160a01b0316906399ec1bda9087908590610a809086906113da565b6040518463ffffffff1660e01b8152600401610a9e939291906113fc565b600060405180830381600087803b158015610ab857600080fd5b505af1158015610acc573d6000803e3d6000fd5b50506001805460008a8152600460205260409020918201546005909201546001600160a01b0391821694506399ec1bda9350899290911690610b0f9086906113da565b875160008c815260046020526040902060050154610b2d91906113da565b6020808a015160008e81526004909252604090912060050154610b5091906113da565b60008d815260046020526040902060050154610b6c9190611420565b610b769190611420565b610b809190611420565b6040518463ffffffff1660e01b8152600401610b9e939291906113fc565b600060405180830381600087803b158015610bb857600080fd5b505af1158015610bcc573d6000803e3d6000fd5b50505050505b60008581526004602081905260409182902060038101546002820154600683015492909301549351899491936001600160a01b0316927ff8b1513a80efa44743c8fd203c5ea490eb045b980e712306aabf06142f3dd86a92610c3c92918252602082015260400190565b60405180910390a45050505050565b600160008481526004602052604090206007015460ff166005811115610c7357610c7361110d565b505060008381526004602052604080822060038101546002909101549151869391926001600160a01b0316917faf6b3032f8e3492c4bb6b4c79dcc6083c222fa059953718fd64af48b99e021c291a4505050565b848484600083118015610cda5750600082115b8015610ce65750600081115b610cef57600080fd5b6002546040516332294f3960e11b81526001600160a01b03909116906364529e7290610d259033908c908c908c906004016112aa565b60006040518083038186803b158015610d3d57600080fd5b505afa158015610d51573d6000803e3d6000fd5b50505050600084118015610d66575060198411155b610d6f57600080fd5b610d77611085565b85815260035460208201819052600190610d92908790611452565b610d9c9190611420565b8160026020020152604051899033907fc78b373c704a9fd93c072c92a765e97675b83778fe68898a3f99d2000687214890610ddc908c908c908790611465565b60405180910390a360005b85811015610e805760038054600090815260046020819052604080832084018e9055835483528083209091018b9055825482528082206006018c905582548252808220600190810180546001600160a01b03191633179055835483528183206005018b905583548352908220600701805460ff191690911790558154610e6c906112e6565b90915550610e79816112e6565b9050610de7565b50505050505050505050565b600160008281526004602052604090206007015460ff166005811115610eb457610eb461110d565b1480610ee55750600360008281526004602052604090206007015460ff166005811115610ee357610ee361110d565b145b610eee57600080fd5b6000818152600460208190526040918290206005015460015492516349271a1760e11b81523392810192909252916001600160a01b03169063924e342e90602401602060405180830381865afa158015610f4c573d6000803e3d6000fd5b505050506040513d601f19601f82011682018060405250810190610f709190611439565b1015610f7b57600080fd5b600254600082815260046020819052604091829020600381015460068201549183015493516320f1bf4160e01b81526001600160a01b03909516946320f1bf4194610fc994339492016112aa565b60006040518083038186803b158015610fe157600080fd5b505afa158015610ff5573d6000803e3d6000fd5b5050506000828152600460208181526040808420338086528184528286208054600160ff1991821617909155958890528484526007820180546003971687179055948101546006820154919094015482519182529281019290925280518695509293927f6a391651e6925699d21e05a7839a1cd477cf124d1392eb575fdeed1b1b9fd6d99281900390910190a450565b60405180606001604052806003906020820280368337509192915050565b6001600160a01b03811681146110b857600080fd5b50565b600080604083850312156110ce57600080fd5b82356110d9816110a3565b915060208301356110e9816110a3565b809150509250929050565b60006020828403121561110657600080fd5b5035919050565b634e487b7160e01b600052602160045260246000fd5b6001600160a01b0388811682528716602082015260408101869052606081018590526080810184905260a0810183905260e081016006831061117557634e487b7160e01b600052602160045260246000fd5b8260c083015298975050505050505050565b60008060008060006080868803121561119f57600080fd5b853567ffffffffffffffff808211156111b757600080fd5b818801915088601f8301126111cb57600080fd5b8135818111156111da57600080fd5b8960208260051b85010111156111ef57600080fd5b60209283019a909950918801359760408101359750606001359550909350505050565b60008060006060848603121561122757600080fd5b833592506020840135611239816110a3565b91506040840135801515811461124e57600080fd5b809150509250925092565b600080600080600060a0868803121561127157600080fd5b505083359560208501359550604085013594606081013594506080013592509050565b634e487b7160e01b600052603260045260246000fd5b6001600160a01b0394909416845260208401929092526040830152606082015260800190565b634e487b7160e01b600052601160045260246000fd5b6000600182016112f8576112f86112d0565b5060010190565b60006001600160fb1b0383111561131557600080fd5b8260051b80858437919091019392505050565b60006040828403121561133a57600080fd5b82601f83011261134957600080fd5b6040516040810181811067ffffffffffffffff8211171561137a57634e487b7160e01b600052604160045260246000fd5b806040525080604084018581111561139157600080fd5b845b818110156113ab578051835260209283019201611393565b509195945050505050565b6000602082840312156113c857600080fd5b81516113d3816110a3565b9392505050565b6000826113f757634e487b7160e01b600052601260045260246000fd5b500490565b6001600160a01b039384168152919092166020820152604081019190915260600190565b81810381811115611433576114336112d0565b92915050565b60006020828403121561144b57600080fd5b5051919050565b80820180821115611433576114336112d0565b838152602080820184905260a0820190604083018460005b600381101561149a5781518352918301919083019060010161147d565b5050505094935050505056fea264697066735822122060fa5241a20eeb53b63deb9b25c14cdd7999ad9d1d63bfc5b97a46711719cfbd64736f6c63430008110033",
  "linkReferences": {},
  "deployedLinkReferences": {}
}