{
  "_format": "hh-sol-artifact-1",
  "contractName": "RENTSMETHODS",
  "sourceName": "contracts/rents/Methods.sol",
  "abi": [
    {
      "anonymous": false,
      "inputs": [
        {
          "indexed": false,
          "internalType": "address",
          "name": "from",
          "type": "address"
        },
        {
          "indexed": false,
          "internalType": "address",
          "name": "to",
          "type": "address"
        },
        {
          "indexed": false,
          "internalType": "address",
          "name": "currency",
          "type": "address"
        },
        {
          "indexed": false,
          "internalType": "uint256[]",
          "name": "ids",
          "type": "uint256[]"
        },
        {
          "indexed": false,
          "internalType": "uint256[]",
          "name": "amounts",
          "type": "uint256[]"
        },
        {
          "indexed": false,
          "internalType": "enum Payable.PaymentTypes",
          "name": "paymentType",
          "type": "uint8"
        }
      ],
      "name": "NewPayment",
      "type": "event"
    },
    {
      "anonymous": false,
      "inputs": [
        {
          "indexed": true,
          "internalType": "uint256",
          "name": "id",
          "type": "uint256"
        },
        {
          "components": [
            {
              "internalType": "address",
              "name": "owner",
              "type": "address"
            },
            {
              "internalType": "address",
              "name": "currency",
              "type": "address"
            },
            {
              "internalType": "address",
              "name": "client",
              "type": "address"
            },
            {
              "internalType": "address[]",
              "name": "nftAddresses",
              "type": "address[]"
            },
            {
              "internalType": "uint256[]",
              "name": "nftIds",
              "type": "uint256[]"
            },
            {
              "internalType": "uint256[]",
              "name": "nftAmounts",
              "type": "uint256[]"
            },
            {
              "internalType": "uint256",
              "name": "returningTime",
              "type": "uint256"
            },
            {
              "internalType": "uint256",
              "name": "valability",
              "type": "uint256"
            },
            {
              "internalType": "uint256",
              "name": "expiration",
              "type": "uint256"
            },
            {
              "internalType": "uint256",
              "name": "price",
              "type": "uint256"
            },
            {
              "internalType": "uint256",
              "name": "fee",
              "type": "uint256"
            },
            {
              "internalType": "uint32[]",
              "name": "nftTypes",
              "type": "uint32[]"
            },
            {
              "internalType": "enum RENTSPARAMS.Status",
              "name": "status",
              "type": "uint8"
            }
          ],
          "indexed": false,
          "internalType": "struct RENTSPARAMS.Rent",
          "name": "rent",
          "type": "tuple"
        }
      ],
      "name": "NewRent",
      "type": "event"
    },
    {
      "anonymous": false,
      "inputs": [
        {
          "indexed": true,
          "internalType": "address",
          "name": "previousOwner",
          "type": "address"
        },
        {
          "indexed": true,
          "internalType": "address",
          "name": "newOwner",
          "type": "address"
        }
      ],
      "name": "OwnershipTransferred",
      "type": "event"
    },
    {
      "anonymous": false,
      "inputs": [
        {
          "indexed": true,
          "internalType": "uint256",
          "name": "id",
          "type": "uint256"
        },
        {
          "components": [
            {
              "internalType": "address",
              "name": "owner",
              "type": "address"
            },
            {
              "internalType": "address",
              "name": "currency",
              "type": "address"
            },
            {
              "internalType": "address",
              "name": "client",
              "type": "address"
            },
            {
              "internalType": "address[]",
              "name": "nftAddresses",
              "type": "address[]"
            },
            {
              "internalType": "uint256[]",
              "name": "nftIds",
              "type": "uint256[]"
            },
            {
              "internalType": "uint256[]",
              "name": "nftAmounts",
              "type": "uint256[]"
            },
            {
              "internalType": "uint256",
              "name": "returningTime",
              "type": "uint256"
            },
            {
              "internalType": "uint256",
              "name": "valability",
              "type": "uint256"
            },
            {
              "internalType": "uint256",
              "name": "expiration",
              "type": "uint256"
            },
            {
              "internalType": "uint256",
              "name": "price",
              "type": "uint256"
            },
            {
              "internalType": "uint256",
              "name": "fee",
              "type": "uint256"
            },
            {
              "internalType": "uint32[]",
              "name": "nftTypes",
              "type": "uint32[]"
            },
            {
              "internalType": "enum RENTSPARAMS.Status",
              "name": "status",
              "type": "uint8"
            }
          ],
          "indexed": false,
          "internalType": "struct RENTSPARAMS.Rent",
          "name": "rent",
          "type": "tuple"
        }
      ],
      "name": "RentCancelled",
      "type": "event"
    },
    {
      "anonymous": false,
      "inputs": [
        {
          "indexed": true,
          "internalType": "uint256",
          "name": "id",
          "type": "uint256"
        },
        {
          "components": [
            {
              "internalType": "address",
              "name": "owner",
              "type": "address"
            },
            {
              "internalType": "address",
              "name": "currency",
              "type": "address"
            },
            {
              "internalType": "address",
              "name": "client",
              "type": "address"
            },
            {
              "internalType": "address[]",
              "name": "nftAddresses",
              "type": "address[]"
            },
            {
              "internalType": "uint256[]",
              "name": "nftIds",
              "type": "uint256[]"
            },
            {
              "internalType": "uint256[]",
              "name": "nftAmounts",
              "type": "uint256[]"
            },
            {
              "internalType": "uint256",
              "name": "returningTime",
              "type": "uint256"
            },
            {
              "internalType": "uint256",
              "name": "valability",
              "type": "uint256"
            },
            {
              "internalType": "uint256",
              "name": "expiration",
              "type": "uint256"
            },
            {
              "internalType": "uint256",
              "name": "price",
              "type": "uint256"
            },
            {
              "internalType": "uint256",
              "name": "fee",
              "type": "uint256"
            },
            {
              "internalType": "uint32[]",
              "name": "nftTypes",
              "type": "uint32[]"
            },
            {
              "internalType": "enum RENTSPARAMS.Status",
              "name": "status",
              "type": "uint8"
            }
          ],
          "indexed": false,
          "internalType": "struct RENTSPARAMS.Rent",
          "name": "rent",
          "type": "tuple"
        }
      ],
      "name": "RentDone",
      "type": "event"
    },
    {
      "anonymous": false,
      "inputs": [
        {
          "indexed": true,
          "internalType": "uint256",
          "name": "id",
          "type": "uint256"
        },
        {
          "components": [
            {
              "internalType": "address",
              "name": "owner",
              "type": "address"
            },
            {
              "internalType": "address",
              "name": "currency",
              "type": "address"
            },
            {
              "internalType": "address",
              "name": "client",
              "type": "address"
            },
            {
              "internalType": "address[]",
              "name": "nftAddresses",
              "type": "address[]"
            },
            {
              "internalType": "uint256[]",
              "name": "nftIds",
              "type": "uint256[]"
            },
            {
              "internalType": "uint256[]",
              "name": "nftAmounts",
              "type": "uint256[]"
            },
            {
              "internalType": "uint256",
              "name": "returningTime",
              "type": "uint256"
            },
            {
              "internalType": "uint256",
              "name": "valability",
              "type": "uint256"
            },
            {
              "internalType": "uint256",
              "name": "expiration",
              "type": "uint256"
            },
            {
              "internalType": "uint256",
              "name": "price",
              "type": "uint256"
            },
            {
              "internalType": "uint256",
              "name": "fee",
              "type": "uint256"
            },
            {
              "internalType": "uint32[]",
              "name": "nftTypes",
              "type": "uint32[]"
            },
            {
              "internalType": "enum RENTSPARAMS.Status",
              "name": "status",
              "type": "uint8"
            }
          ],
          "indexed": false,
          "internalType": "struct RENTSPARAMS.Rent",
          "name": "rent",
          "type": "tuple"
        }
      ],
      "name": "RentOngoing",
      "type": "event"
    },
    {
      "inputs": [
        {
          "internalType": "uint256",
          "name": "rentId",
          "type": "uint256"
        }
      ],
      "name": "cancel",
      "outputs": [],
      "stateMutability": "nonpayable",
      "type": "function"
    },
    {
      "inputs": [
        {
          "internalType": "address",
          "name": "sender",
          "type": "address"
        },
        {
          "internalType": "address[]",
          "name": "nftAddressArray",
          "type": "address[]"
        },
        {
          "internalType": "uint256[]",
          "name": "nftTokenIdArray",
          "type": "uint256[]"
        },
        {
          "internalType": "uint32[]",
          "name": "nftTokenTypeArray",
          "type": "uint32[]"
        }
      ],
      "name": "checkItemsApproval",
      "outputs": [],
      "stateMutability": "view",
      "type": "function"
    },
    {
      "inputs": [
        {
          "internalType": "address",
          "name": "from",
          "type": "address"
        },
        {
          "internalType": "address",
          "name": "currency",
          "type": "address"
        }
      ],
      "name": "checkTokensApproval",
      "outputs": [
        {
          "internalType": "uint256",
          "name": "",
          "type": "uint256"
        }
      ],
      "stateMutability": "view",
      "type": "function"
    },
    {
      "inputs": [
        {
          "internalType": "address[]",
          "name": "_nftAddresses",
          "type": "address[]"
        },
        {
          "internalType": "uint256[]",
          "name": "_nftIds",
          "type": "uint256[]"
        },
        {
          "internalType": "uint256[]",
          "name": "_nftAmounts",
          "type": "uint256[]"
        },
        {
          "internalType": "uint32[]",
          "name": "_nftTypes",
          "type": "uint32[]"
        },
        {
          "internalType": "uint256",
          "name": "_valability",
          "type": "uint256"
        },
        {
          "internalType": "uint256",
          "name": "_price",
          "type": "uint256"
        },
        {
          "internalType": "uint256",
          "name": "_fee",
          "type": "uint256"
        },
        {
          "internalType": "address",
          "name": "_currency",
          "type": "address"
        }
      ],
      "name": "create",
      "outputs": [],
      "stateMutability": "nonpayable",
      "type": "function"
    },
    {
      "inputs": [],
      "name": "discounts",
      "outputs": [
        {
          "internalType": "address",
          "name": "",
          "type": "address"
        }
      ],
      "stateMutability": "view",
      "type": "function"
    },
    {
      "inputs": [],
      "name": "fee",
      "outputs": [
        {
          "internalType": "uint256",
          "name": "",
          "type": "uint256"
        }
      ],
      "stateMutability": "view",
      "type": "function"
    },
    {
      "inputs": [
        {
          "internalType": "uint256",
          "name": "rentId",
          "type": "uint256"
        }
      ],
      "name": "finish",
      "outputs": [],
      "stateMutability": "nonpayable",
      "type": "function"
    },
    {
      "inputs": [
        {
          "internalType": "uint256",
          "name": "rentId",
          "type": "uint256"
        }
      ],
      "name": "get",
      "outputs": [
        {
          "components": [
            {
              "internalType": "address",
              "name": "owner",
              "type": "address"
            },
            {
              "internalType": "address",
              "name": "currency",
              "type": "address"
            },
            {
              "internalType": "address",
              "name": "client",
              "type": "address"
            },
            {
              "internalType": "address[]",
              "name": "nftAddresses",
              "type": "address[]"
            },
            {
              "internalType": "uint256[]",
              "name": "nftIds",
              "type": "uint256[]"
            },
            {
              "internalType": "uint256[]",
              "name": "nftAmounts",
              "type": "uint256[]"
            },
            {
              "internalType": "uint256",
              "name": "returningTime",
              "type": "uint256"
            },
            {
              "internalType": "uint256",
              "name": "valability",
              "type": "uint256"
            },
            {
              "internalType": "uint256",
              "name": "expiration",
              "type": "uint256"
            },
            {
              "internalType": "uint256",
              "name": "price",
              "type": "uint256"
            },
            {
              "internalType": "uint256",
              "name": "fee",
              "type": "uint256"
            },
            {
              "internalType": "uint32[]",
              "name": "nftTypes",
              "type": "uint32[]"
            },
            {
              "internalType": "enum RENTSPARAMS.Status",
              "name": "status",
              "type": "uint8"
            }
          ],
          "internalType": "struct RENTSPARAMS.Rent",
          "name": "",
          "type": "tuple"
        }
      ],
      "stateMutability": "view",
      "type": "function"
    },
    {
      "inputs": [],
      "name": "id",
      "outputs": [
        {
          "internalType": "uint256",
          "name": "",
          "type": "uint256"
        }
      ],
      "stateMutability": "view",
      "type": "function"
    },
    {
      "inputs": [],
      "name": "methods",
      "outputs": [
        {
          "internalType": "address",
          "name": "",
          "type": "address"
        }
      ],
      "stateMutability": "view",
      "type": "function"
    },
    {
      "inputs": [
        {
          "internalType": "address",
          "name": "",
          "type": "address"
        },
        {
          "internalType": "address",
          "name": "",
          "type": "address"
        },
        {
          "internalType": "uint256[]",
          "name": "",
          "type": "uint256[]"
        },
        {
          "internalType": "uint256[]",
          "name": "",
          "type": "uint256[]"
        },
        {
          "internalType": "bytes",
          "name": "",
          "type": "bytes"
        }
      ],
      "name": "onERC1155BatchReceived",
      "outputs": [
        {
          "internalType": "bytes4",
          "name": "",
          "type": "bytes4"
        }
      ],
      "stateMutability": "nonpayable",
      "type": "function"
    },
    {
      "inputs": [
        {
          "internalType": "address",
          "name": "",
          "type": "address"
        },
        {
          "internalType": "address",
          "name": "",
          "type": "address"
        },
        {
          "internalType": "uint256",
          "name": "",
          "type": "uint256"
        },
        {
          "internalType": "uint256",
          "name": "",
          "type": "uint256"
        },
        {
          "internalType": "bytes",
          "name": "",
          "type": "bytes"
        }
      ],
      "name": "onERC1155Received",
      "outputs": [
        {
          "internalType": "bytes4",
          "name": "",
          "type": "bytes4"
        }
      ],
      "stateMutability": "nonpayable",
      "type": "function"
    },
    {
      "inputs": [
        {
          "internalType": "address",
          "name": "",
          "type": "address"
        },
        {
          "internalType": "address",
          "name": "",
          "type": "address"
        },
        {
          "internalType": "uint256",
          "name": "",
          "type": "uint256"
        },
        {
          "internalType": "bytes",
          "name": "",
          "type": "bytes"
        }
      ],
      "name": "onERC721Received",
      "outputs": [
        {
          "internalType": "bytes4",
          "name": "",
          "type": "bytes4"
        }
      ],
      "stateMutability": "nonpayable",
      "type": "function"
    },
    {
      "inputs": [
        {
          "internalType": "address",
          "name": "buyer",
          "type": "address"
        },
        {
          "internalType": "uint256",
          "name": "rentId",
          "type": "uint256"
        }
      ],
      "name": "operationDiscountCosts",
      "outputs": [
        {
          "internalType": "uint256",
          "name": "discount",
          "type": "uint256"
        },
        {
          "internalType": "uint256",
          "name": "operationFee",
          "type": "uint256"
        },
        {
          "internalType": "uint256",
          "name": "operationFeeDiscount",
          "type": "uint256"
        },
        {
          "internalType": "uint256",
          "name": "bmarketFee",
          "type": "uint256"
        },
        {
          "internalType": "uint256",
          "name": "totalToPay",
          "type": "uint256"
        }
      ],
      "stateMutability": "view",
      "type": "function"
    },
    {
      "inputs": [],
      "name": "owner",
      "outputs": [
        {
          "internalType": "address",
          "name": "",
          "type": "address"
        }
      ],
      "stateMutability": "view",
      "type": "function"
    },
    {
      "inputs": [
        {
          "internalType": "address",
          "name": "from",
          "type": "address"
        },
        {
          "internalType": "address",
          "name": "to",
          "type": "address"
        },
        {
          "internalType": "address",
          "name": "currency",
          "type": "address"
        },
        {
          "internalType": "uint256[]",
          "name": "ids",
          "type": "uint256[]"
        },
        {
          "internalType": "uint256[]",
          "name": "amounts",
          "type": "uint256[]"
        },
        {
          "internalType": "enum Payable.PaymentTypes",
          "name": "paymentType",
          "type": "uint8"
        }
      ],
      "name": "pay",
      "outputs": [],
      "stateMutability": "payable",
      "type": "function"
    },
    {
      "inputs": [],
      "name": "renounceOwnership",
      "outputs": [],
      "stateMutability": "nonpayable",
      "type": "function"
    },
    {
      "inputs": [
        {
          "internalType": "uint256",
          "name": "rentId",
          "type": "uint256"
        }
      ],
      "name": "rent",
      "outputs": [],
      "stateMutability": "payable",
      "type": "function"
    },
    {
      "inputs": [
        {
          "internalType": "uint256",
          "name": "",
          "type": "uint256"
        }
      ],
      "name": "rents",
      "outputs": [
        {
          "internalType": "address",
          "name": "owner",
          "type": "address"
        },
        {
          "internalType": "address",
          "name": "currency",
          "type": "address"
        },
        {
          "internalType": "address",
          "name": "client",
          "type": "address"
        },
        {
          "internalType": "uint256",
          "name": "returningTime",
          "type": "uint256"
        },
        {
          "internalType": "uint256",
          "name": "valability",
          "type": "uint256"
        },
        {
          "internalType": "uint256",
          "name": "expiration",
          "type": "uint256"
        },
        {
          "internalType": "uint256",
          "name": "price",
          "type": "uint256"
        },
        {
          "internalType": "uint256",
          "name": "fee",
          "type": "uint256"
        },
        {
          "internalType": "enum RENTSPARAMS.Status",
          "name": "status",
          "type": "uint8"
        }
      ],
      "stateMutability": "view",
      "type": "function"
    },
    {
      "inputs": [
        {
          "internalType": "uint256",
          "name": "_fee",
          "type": "uint256"
        },
        {
          "internalType": "address",
          "name": "_discounts",
          "type": "address"
        },
        {
          "internalType": "address",
          "name": "_methods",
          "type": "address"
        }
      ],
      "name": "setParams",
      "outputs": [],
      "stateMutability": "nonpayable",
      "type": "function"
    },
    {
      "inputs": [
        {
          "internalType": "bytes4",
          "name": "interfaceId",
          "type": "bytes4"
        }
      ],
      "name": "supportsInterface",
      "outputs": [
        {
          "internalType": "bool",
          "name": "",
          "type": "bool"
        }
      ],
      "stateMutability": "view",
      "type": "function"
    },
    {
      "inputs": [
        {
          "internalType": "uint256",
          "name": "rentId",
          "type": "uint256"
        }
      ],
      "name": "terminate",
      "outputs": [],
      "stateMutability": "nonpayable",
      "type": "function"
    },
    {
      "inputs": [
        {
          "internalType": "address",
          "name": "newOwner",
          "type": "address"
        }
      ],
      "name": "transferOwnership",
      "outputs": [],
      "stateMutability": "nonpayable",
      "type": "function"
    },
    {
      "inputs": [
        {
          "internalType": "address",
          "name": "from",
          "type": "address"
        },
        {
          "internalType": "address",
          "name": "to",
          "type": "address"
        },
        {
          "internalType": "address[]",
          "name": "nftAddresses",
          "type": "address[]"
        },
        {
          "internalType": "uint256[]",
          "name": "nftIds",
          "type": "uint256[]"
        },
        {
          "internalType": "uint256[]",
          "name": "nftAmounts",
          "type": "uint256[]"
        },
        {
          "internalType": "uint32[]",
          "name": "nftTypes",
          "type": "uint32[]"
        }
      ],
      "name": "transferTokens",
      "outputs": [],
      "stateMutability": "nonpayable",
      "type": "function"
    }
  ],
  "bytecode": "0x608060405260146003553480156200001657600080fd5b50600160005562000027336200002d565b6200007f565b600180546001600160a01b038381166001600160a01b0319831681179093556040519116919082907f8be0079c531659141344cd1fd0a4f28419497f9722a3daafe3b4186f6b6457e090600090a35050565b6135fc806200008f6000396000f3fe60806040526004361061014b5760003560e01c8063a125ea04116100b6578063d353a1cb1161006f578063d353a1cb1461046f578063ddca3f431461048f578063f23a6e61146104a5578063f2fde38b146104d1578063f36dd01a146104f1578063f376d7981461051157600080fd5b8063a125ea04146103ac578063af640d0f146103cc578063bb9a581a146103f0578063bc197c8114610410578063bdd3dc8e1461043c578063c01f59c21461045c57600080fd5b80637456be7d116101085780637456be7d1461028057806375af65d1146102935780637a828b28146102b35780638da5cb5b146102d35780639507d39a146102f1578063a05d098c1461031e57600080fd5b806301ffc9a714610150578063150b7a021461018557806329907a91146101c957806340283e2a1461020157806340e58ee514610249578063715018a61461026b575b600080fd5b34801561015c57600080fd5b5061017061016b366004612640565b610531565b60405190151581526020015b60405180910390f35b34801561019157600080fd5b506101b06101a0366004612744565b630a85bd0160e11b949350505050565b6040516001600160e01b0319909116815260200161017c565b3480156101d557600080fd5b506005546101e9906001600160a01b031681565b6040516001600160a01b03909116815260200161017c565b34801561020d57600080fd5b5061022161021c3660046127af565b610568565b604080519586526020860194909452928401919091526060830152608082015260a00161017c565b34801561025557600080fd5b506102696102643660046127db565b610657565b005b34801561027757600080fd5b50610269610704565b61026961028e3660046127db565b610718565b34801561029f57600080fd5b506004546101e9906001600160a01b031681565b3480156102bf57600080fd5b506102696102ce3660046127db565b610c60565b3480156102df57600080fd5b506001546001600160a01b03166101e9565b3480156102fd57600080fd5b5061031161030c3660046127db565b610f29565b60405161017c91906128df565b34801561032a57600080fd5b506103976103393660046127db565b600660208190526000918252604090912080546001820154600283015493830154600784015460088501546009860154600a870154600c909701546001600160a01b0396871698958716979590961695939492939192909160ff1689565b60405161017c99989796959493929190612a05565b3480156103b857600080fd5b506102696103c7366004612bc7565b611170565b3480156103d857600080fd5b506103e260025481565b60405190815260200161017c565b3480156103fc57600080fd5b5061026961040b366004612c55565b611314565b34801561041c57600080fd5b506101b061042b366004612d21565b63bc197c8160e01b95945050505050565b34801561044857600080fd5b506103e2610457366004612dce565b611504565b61026961046a366004612e07565b61157f565b34801561047b57600080fd5b5061026961048a3660046127db565b6118db565b34801561049b57600080fd5b506103e260035481565b3480156104b157600080fd5b506101b06104c0366004612eb9565b63f23a6e6160e01b95945050505050565b3480156104dd57600080fd5b506102696104ec366004612f21565b61201d565b3480156104fd57600080fd5b5061026961050c366004612f89565b61209b565b34801561051d57600080fd5b5061026961052c36600461308d565b612300565b60006001600160e01b03198216630271189760e51b148061056257506301ffc9a760e01b6001600160e01b03198316145b92915050565b6004805460405163ad6a874560e01b81526001600160a01b03858116938201939093526000928392839283928392169063ad6a874590602401602060405180830381865afa1580156105be573d6000803e3d6000fd5b505050506040513d601f19601f820116820180604052508101906105e291906130cf565b6003546000888152600660205260409020600a0154919650610603916130fe565b93508460011461061c5761061785856130fe565b61061f565b60005b925061062b8385613120565b6000878152600660205260409020600a015490925061064b908490613120565b90509295509295909350565b6000818152600660205260409020546001600160a01b0316331461067a57600080fd5b6000818152600660205260408120600c015460ff1660038111156106a0576106a061289e565b146106aa57600080fd5b60008181526006602052604090819020600c8101805460ff19166002179055905182917f18598d79c2080bfd0c547076e16f4768e20e588e25fca5ef64b335895afc1c59916106f9919061332e565b60405180910390a250565b61070c612349565b61071660006123a3565b565b6000818152600660205260409020600801541580610774575060008181526006602052604090206008015415801590610774575060008181526006602081905260409091209081015460089091015442916107729161344c565b105b61077d57600080fd5b6000818152600660205260408120600c015460ff1660038111156107a3576107a361289e565b146107ad57600080fd5b6000818152600660205260409020600101546001600160a01b0316156108685760008181526006602052604090819020600181015460099091015491516323b872dd60e01b81526001600160a01b03909116916323b872dd9161081791339130919060040161345f565b6020604051808303816000875af1158015610836573d6000803e3d6000fd5b505050506040513d601f19601f8201168201806040525081019061085a9190613483565b61086357600080fd5b610886565b60008181526006602052604090206009015434101561088657600080fd5b600081815260066020908152604091829020805460039091018054845181850281018501909552808552610a4b946001600160a01b039093169330939291908301828280156108fe57602002820191906000526020600020905b81546001600160a01b031681526001909101906020018083116108e0575b5050506000878152600660209081526040918290206004018054835181840281018401909452808452929450925083018282801561095b57602002820191906000526020600020905b815481526020019060010190808311610947575b505050600088815260066020908152604091829020600501805483518184028101840190945280845292945092508301828280156109b857602002820191906000526020600020905b8154815260200190600101908083116109a4575b505050600089815260066020908152604091829020600b0180548351818402810184019094528084529294509250830182828015610a4157602002820191906000526020600020906000905b82829054906101000a900463ffffffff1663ffffffff1681526020019060040190602082600301049283019260010382029150808411610a045790505b5050505050611314565b610bda3033600660008581526020019081526020016000206003018054806020026020016040519081016040528092919081815260200182805480156108fe576020028201919060005260206000209081546001600160a01b031681526001909101906020018083116108e0575050506000878152600660209081526040918290206004018054835181840281018401909452808452929450925083018282801561095b576020028201919060005260206000209081548152602001906001019080831161094757505050600088815260066020908152604091829020600501805483518184028101840190945280845292945092508301828280156109b857602002820191906000526020600020908154815260200190600101908083116109a457505050600089815260066020908152604091829020600b0180548351818402810184019094528084529294509250830182828015610a41576000918252602091829020805463ffffffff168452908202830192909160049101808411610a045790505050505050611314565b600081815260066020526040902060070154610bf6904261344c565b6000828152600660205260409081902060088101929092556002820180546001600160a01b03191633179055600c8201805460ff191660011790555182917fb71d0f7dabf4702d6edc39553638eb554909e75a129b60a3a3b1ca80b83a6be0916106f9919061332e565b6000818152600660205260409020546001600160a01b031633148015610caa57506000818152600660208190526040909120908101546008909101544291610ca79161344c565b11155b610cb357600080fd5b6000610cbf3383610568565b506000868152600660205260409020600101549094506001600160a01b0316159250610e4b915050576000828152600660205260409020600181015481546009909201546001600160a01b039182169263a9059cbb921690610d22908590613120565b6040516001600160e01b031960e085901b1681526001600160a01b03909216600483015260248201526044016020604051808303816000875af1158015610d6d573d6000803e3d6000fd5b505050506040513d601f19601f82011682018060405250810190610d919190613483565b610d9a57600080fd5b6000828152600660205260409020600101546001600160a01b031663a9059cbb610dcc6001546001600160a01b031690565b6040516001600160e01b031960e084901b1681526001600160a01b039091166004820152602481018490526044016020604051808303816000875af1158015610e19573d6000803e3d6000fd5b505050506040513d601f19601f82011682018060405250810190610e3d9190613483565b610e4657600080fd5b610ece565b600082815260066020526040902080546009909101546001600160a01b03909116906108fc90610e7c908490613120565b6040518115909202916000818181858888f19350505050610e9c57600080fd5b6001546040516001600160a01b039091169082156108fc029083906000818181858888f19350505050610ece57600080fd5b60008281526006602052604090819020600c8101805460ff19166003179055905183917fe5760e118ded825ab65c2dd90f20593b604c8411c92345ddbc5e8c2b577b208591610f1d919061332e565b60405180910390a25050565b610f3161244e565b60008281526006602090815260409182902082516101a08101845281546001600160a01b0390811682526001830154811682850152600283015416818501526003820180548551818602810186019096528086529194929360608601939290830182828015610fc957602002820191906000526020600020905b81546001600160a01b03168152600190910190602001808311610fab575b505050505081526020016004820180548060200260200160405190810160405280929190818152602001828054801561102157602002820191906000526020600020905b81548152602001906001019080831161100d575b505050505081526020016005820180548060200260200160405190810160405280929190818152602001828054801561107957602002820191906000526020600020905b815481526020019060010190808311611065575b5050505050815260200160068201548152602001600782015481526020016008820154815260200160098201548152602001600a8201548152602001600b820180548060200260200160405190810160405280929190818152602001828054801561112f57602002820191906000526020600020906000905b82829054906101000a900463ffffffff1663ffffffff16815260200190600401906020826003010492830192600103820291508084116110f25790505b5050509183525050600c82015460209091019060ff1660038111156111565761115661289e565b60038111156111675761116761289e565b90525092915050565b60005b835181101561130d5781818151811061118e5761118e6134a5565b602002602001015163ffffffff1660000361126657306001600160a01b03168482815181106111bf576111bf6134a5565b60200260200101516001600160a01b031663081812fc8584815181106111e7576111e76134a5565b60200260200101516040518263ffffffff1660e01b815260040161120d91815260200190565b602060405180830381865afa15801561122a573d6000803e3d6000fd5b505050506040513d601f19601f8201168201806040525081019061124e91906134bb565b6001600160a01b03161461126157600080fd5b6112fd565b838181518110611278576112786134a5565b602090810291909101015160405163e985e9c560e01b81526001600160a01b0387811660048301523060248301529091169063e985e9c590604401602060405180830381865afa1580156112d0573d6000803e3d6000fd5b505050506040513d601f19601f820116820180604052508101906112f49190613483565b6112fd57600080fd5b611306816134d8565b9050611173565b5050505050565b83518351811480156113265750808251145b61132f57600080fd5b60005b818110156114fa5782818151811061134c5761134c6134a5565b602002602001015163ffffffff166000036113fa57858181518110611373576113736134a5565b60200260200101516001600160a01b03166342842e0e898988858151811061139d5761139d6134a5565b60200260200101516040518463ffffffff1660e01b81526004016113c39392919061345f565b600060405180830381600087803b1580156113dd57600080fd5b505af11580156113f1573d6000803e3d6000fd5b505050506114ea565b85818151811061140c5761140c6134a5565b60200260200101516001600160a01b031663f242432a8989888581518110611436576114366134a5565b6020026020010151888681518110611450576114506134a5565b60200260200101516040518563ffffffff1660e01b81526004016114b794939291906001600160a01b0394851681529290931660208301526040820152606081019190915260a060808201819052600490820152630307830360e41b60c082015260e00190565b600060405180830381600087803b1580156114d157600080fd5b505af11580156114e5573d6000803e3d6000fd5b505050505b6114f3816134d8565b9050611332565b5050505050505050565b604051636eb1769f60e11b81526001600160a01b0383811660048301523060248301526000919083169063dd62ed3e90604401602060405180830381865afa158015611554573d6000803e3d6000fd5b505050506040513d601f19601f8201168201806040525081019061157891906130cf565b9392505050565b6115876123f5565b61158f612349565b60008160038111156115a3576115a361289e565b0361162957836001600160a01b03166342842e0e8787866000815181106115cc576115cc6134a5565b60200260200101516040518463ffffffff1660e01b81526004016115f29392919061345f565b600060405180830381600087803b15801561160c57600080fd5b505af1158015611620573d6000803e3d6000fd5b50505050611888565b600181600381111561163d5761163d61289e565b0361167457604051631759616b60e11b81526001600160a01b03851690632eb2c2d6906115f29089908990889088906004016134f1565b60028160038111156116885761168861289e565b03611794576001600160a01b038616301461173857836001600160a01b03166323b872dd8787856000815181106116c1576116c16134a5565b60200260200101516040518463ffffffff1660e01b81526004016116e79392919061345f565b6020604051808303816000875af1158015611706573d6000803e3d6000fd5b505050506040513d601f19601f8201168201806040525081019061172a9190613483565b61173357600080fd5b611888565b836001600160a01b031663a9059cbb868460008151811061175b5761175b6134a5565b60200260200101516040518363ffffffff1660e01b81526004016116e79291906001600160a01b03929092168252602082015260400190565b60038160038111156117a8576117a861289e565b03611888576001600160a01b0385163b1561183d576000856001600160a01b0316836000815181106117dc576117dc6134a5565b602002602001015160405160006040518083038185875af1925050503d8060008114611824576040519150601f19603f3d011682016040523d82523d6000602084013e611829565b606091505b505090508061183757600080fd5b50611888565b846001600160a01b03166108fc8360008151811061185d5761185d6134a5565b60200260200101519081150290604051600060405180830381858888f1935050505061188857600080fd5b7f4f74c37cf0470b045087a8c6291e730e0623175419cdc46c332bb8a15f8de99e8686868686866040516118c19695949392919061354c565b60405180910390a16118d36001600055565b505050505050565b6000818152600660205260409020600201546001600160a01b031633148015611929575060016000828152600660205260409020600c015460ff1660038111156119275761192761289e565b145b61193257600080fd5b600081815260066020819052604090912090810154600890910154611957919061344c565b421061196257600080fd5b600061196e3383610568565b506000868152600660205260409020600101549094506001600160a01b0316159250611ba791505057600082815260066020526040902060018101546002820154600a8301546009909301546001600160a01b039283169363a9059cbb939092169185916119dc9190613120565b6119e69190613120565b6040516001600160e01b031960e085901b1681526001600160a01b03909216600483015260248201526044016020604051808303816000875af1158015611a31573d6000803e3d6000fd5b505050506040513d601f19601f82011682018060405250810190611a559190613483565b611a5e57600080fd5b6000828152600660205260409081902060018101548154600a90920154925163a9059cbb60e01b81526001600160a01b0392831660048201526024810193909352169063a9059cbb906044016020604051808303816000875af1158015611ac9573d6000803e3d6000fd5b505050506040513d601f19601f82011682018060405250810190611aed9190613483565b611af657600080fd5b6000828152600660205260409020600101546001600160a01b031663a9059cbb611b286001546001600160a01b031690565b6040516001600160e01b031960e084901b1681526001600160a01b039091166004820152602481018490526044016020604051808303816000875af1158015611b75573d6000803e3d6000fd5b505050506040513d601f19601f82011682018060405250810190611b999190613483565b611ba257600080fd5b611c7f565b60008281526006602052604090206002810154600a8201546009909201546001600160a01b03909116916108fc918491611be091613120565b611bea9190613120565b6040518115909202916000818181858888f19350505050611c0a57600080fd5b6000828152600660205260408082208054600a9091015491516001600160a01b039091169282156108fc02929190818181858888f19350505050611c4d57600080fd5b6001546040516001600160a01b039091169082156108fc029083906000818181858888f19350505050611c7f57600080fd5b600082815260066020908152604091829020600281015460039091018054845181850281018501909552808552611e20946001600160a01b03909316933093929190830182828015611cfa57602002820191906000526020600020905b81546001600160a01b03168152600190910190602001808311611cdc575b50505060008881526006602090815260409182902060040180548351818402810184019094528084529294509250830182828015611d5757602002820191906000526020600020905b815481526020019060010190808311611d43575b50505060008981526006602090815260409182902060050180548351818402810184019094528084529294509250830182828015611db457602002820191906000526020600020905b815481526020019060010190808311611da0575b50505060008a815260066020908152604091829020600b0180548351818402810184019094528084529294509250830182828015610a41576000918252602091829020805463ffffffff168452908202830192909160049101808411610a045790505050505050611314565b600082815260066020908152604091829020805460039091018054845181850281018501909552808552611fb99430946001600160a01b039094169390929190830182828015611cfa576020028201919060005260206000209081546001600160a01b03168152600190910190602001808311611cdc5750505060008881526006602090815260409182902060040180548351818402810184019094528084529294509250830182828015611d575760200282019190600052602060002090815481526020019060010190808311611d435750505060008981526006602090815260409182902060050180548351818402810184019094528084529294509250830182828015611db45760200282019190600052602060002090815481526020019060010190808311611da05750505060008a815260066020908152604091829020600b0180548351818402810184019094528084529294509250830182828015610a41576000918252602091829020805463ffffffff168452908202830192909160049101808411610a045790505050505050611314565b6000828152600660205260408082206002810180546001600160a01b0319169055600c8101805460ff1916905560088101929092555183917fe5760e118ded825ab65c2dd90f20593b604c8411c92345ddbc5e8c2b577b208591610f1d919061332e565b612025612349565b6001600160a01b03811661208f5760405162461bcd60e51b815260206004820152602660248201527f4f776e61626c653a206e6577206f776e657220697320746865207a65726f206160448201526564647265737360d01b60648201526084015b60405180910390fd5b612098816123a3565b50565b826120a78360026135af565b1080156120b45750600084115b80156120c05750600082115b6120c957600080fd5b8a158015906120d75750868b145b6120e057600080fd5b612190338d8d80806020026020016040519081016040528093929190818152602001838360200280828437600081840152601f19601f820116905080830192505050505050508c8c8080602002602001604051908101604052809392919081815260200183836020028082843760009201919091525050604080516020808e0282810182019093528d82529093508d92508c91829185019084908082843760009201919091525061117092505050565b600280546000908152600660205260408082208054336001600160a01b031991821617909155835483528183206007018890558354835281832060090187905583548352818320600a018690558354835281832060010180549091166001600160a01b038616179055915481522061220c906003018d8d6124e1565b50600254600090815260066020526040902061222c906004018b8b612544565b50600254600090815260066020526040902061224c906005018989612544565b50600254600090815260066020526040902061226c90600b01878761257f565b506002805460009081526006602081905260408083206201518092019190915582548252808220600c01805460ff19169055915480825290829020915190917f55082eafb0866ac578ce9f6780942513b22800c7928a35d54acbc129ad32fc81916122d7919061332e565b60405180910390a26002600081546122ee906134d8565b90915550505050505050505050505050565b612308612349565b6000831161231557600080fd5b600392909255600480546001600160a01b039283166001600160a01b03199182161790915560058054929093169116179055565b6001546001600160a01b031633146107165760405162461bcd60e51b815260206004820181905260248201527f4f776e61626c653a2063616c6c6572206973206e6f7420746865206f776e65726044820152606401612086565b600180546001600160a01b038381166001600160a01b0319831681179093556040519116919082907f8be0079c531659141344cd1fd0a4f28419497f9722a3daafe3b4186f6b6457e090600090a35050565b6002600054036124475760405162461bcd60e51b815260206004820152601f60248201527f5265656e7472616e637947756172643a207265656e7472616e742063616c6c006044820152606401612086565b6002600055565b604051806101a0016040528060006001600160a01b0316815260200160006001600160a01b0316815260200160006001600160a01b03168152602001606081526020016060815260200160608152602001600081526020016000815260200160008152602001600081526020016000815260200160608152602001600060038111156124dc576124dc61289e565b905290565b828054828255906000526020600020908101928215612534579160200282015b828111156125345781546001600160a01b0319166001600160a01b03843516178255602090920191600190910190612501565b5061254092915061262b565b5090565b828054828255906000526020600020908101928215612534579160200282015b82811115612534578235825591602001919060010190612564565b828054828255906000526020600020906007016008900481019282156125345791602002820160005b838211156125f257833563ffffffff1683826101000a81548163ffffffff021916908363ffffffff16021790555092602001926004016020816003010492830192600103026125a8565b80156126225782816101000a81549063ffffffff02191690556004016020816003010492830192600103026125f2565b50506125409291505b5b80821115612540576000815560010161262c565b60006020828403121561265257600080fd5b81356001600160e01b03198116811461157857600080fd5b6001600160a01b038116811461209857600080fd5b803561268a8161266a565b919050565b634e487b7160e01b600052604160045260246000fd5b604051601f8201601f191681016001600160401b03811182821017156126cd576126cd61268f565b604052919050565b600082601f8301126126e657600080fd5b81356001600160401b038111156126ff576126ff61268f565b612712601f8201601f19166020016126a5565b81815284602083860101111561272757600080fd5b816020850160208301376000918101602001919091529392505050565b6000806000806080858703121561275a57600080fd5b84356127658161266a565b935060208501356127758161266a565b92506040850135915060608501356001600160401b0381111561279757600080fd5b6127a3878288016126d5565b91505092959194509250565b600080604083850312156127c257600080fd5b82356127cd8161266a565b946020939093013593505050565b6000602082840312156127ed57600080fd5b5035919050565b600081518084526020808501945080840160005b8381101561282d5781516001600160a01b031687529582019590820190600101612808565b509495945050505050565b600081518084526020808501945080840160005b8381101561282d5781518752958201959082019060010161284c565b600081518084526020808501945080840160005b8381101561282d57815163ffffffff168752958201959082019060010161287c565b634e487b7160e01b600052602160045260246000fd5b6004811061209857634e487b7160e01b600052602160045260246000fd5b6128db816128b4565b9052565b602081526128f96020820183516001600160a01b03169052565b6000602083015161291560408401826001600160a01b03169052565b5060408301516001600160a01b03811660608401525060608301516101a08060808501526129476101c08501836127f4565b91506080850151601f19808685030160a08701526129658483612838565b935060a08701519150808685030160c08701526129828483612838565b60c088015160e088810191909152880151610100808901919091528801516101208089019190915288015161014080890191909152880151610160808901919091528801518782038301610180808a019190915291955092506129e58584612868565b945080880151925050506129fb828601826128d2565b5090949350505050565b6001600160a01b038a81168252898116602083015288166040820152606081018790526080810186905260a0810185905260c0810184905260e081018390526101208101612a52836128b4565b826101008301529a9950505050505050505050565b60006001600160401b03821115612a8057612a8061268f565b5060051b60200190565b600082601f830112612a9b57600080fd5b81356020612ab0612aab83612a67565b6126a5565b82815260059290921b84018101918181019086841115612acf57600080fd5b8286015b84811015612af3578035612ae68161266a565b8352918301918301612ad3565b509695505050505050565b600082601f830112612b0f57600080fd5b81356020612b1f612aab83612a67565b82815260059290921b84018101918181019086841115612b3e57600080fd5b8286015b84811015612af35780358352918301918301612b42565b600082601f830112612b6a57600080fd5b81356020612b7a612aab83612a67565b82815260059290921b84018101918181019086841115612b9957600080fd5b8286015b84811015612af357803563ffffffff81168114612bba5760008081fd5b8352918301918301612b9d565b60008060008060808587031215612bdd57600080fd5b8435612be88161266a565b935060208501356001600160401b0380821115612c0457600080fd5b612c1088838901612a8a565b94506040870135915080821115612c2657600080fd5b612c3288838901612afe565b93506060870135915080821115612c4857600080fd5b506127a387828801612b59565b60008060008060008060c08789031215612c6e57600080fd5b612c778761267f565b9550612c856020880161267f565b945060408701356001600160401b0380821115612ca157600080fd5b612cad8a838b01612a8a565b95506060890135915080821115612cc357600080fd5b612ccf8a838b01612afe565b94506080890135915080821115612ce557600080fd5b612cf18a838b01612afe565b935060a0890135915080821115612d0757600080fd5b50612d1489828a01612b59565b9150509295509295509295565b600080600080600060a08688031215612d3957600080fd5b8535612d448161266a565b94506020860135612d548161266a565b935060408601356001600160401b0380821115612d7057600080fd5b612d7c89838a01612afe565b94506060880135915080821115612d9257600080fd5b612d9e89838a01612afe565b93506080880135915080821115612db457600080fd5b50612dc1888289016126d5565b9150509295509295909350565b60008060408385031215612de157600080fd5b8235612dec8161266a565b91506020830135612dfc8161266a565b809150509250929050565b60008060008060008060c08789031215612e2057600080fd5b8635612e2b8161266a565b95506020870135612e3b8161266a565b94506040870135612e4b8161266a565b935060608701356001600160401b0380821115612e6757600080fd5b612e738a838b01612afe565b94506080890135915080821115612e8957600080fd5b50612e9689828a01612afe565b92505060a087013560048110612eab57600080fd5b809150509295509295509295565b600080600080600060a08688031215612ed157600080fd5b8535612edc8161266a565b94506020860135612eec8161266a565b9350604086013592506060860135915060808601356001600160401b03811115612f1557600080fd5b612dc1888289016126d5565b600060208284031215612f3357600080fd5b81356115788161266a565b60008083601f840112612f5057600080fd5b5081356001600160401b03811115612f6757600080fd5b6020830191508360208260051b8501011115612f8257600080fd5b9250929050565b6000806000806000806000806000806000806101008d8f031215612fac57600080fd5b6001600160401b038d351115612fc157600080fd5b612fce8e8e358f01612f3e565b909c509a506001600160401b0360208e01351115612feb57600080fd5b612ffb8e60208f01358f01612f3e565b909a5098506001600160401b0360408e0135111561301857600080fd5b6130288e60408f01358f01612f3e565b90985096506001600160401b0360608e0135111561304557600080fd5b6130558e60608f01358f01612f3e565b909650945060808d0135935060a08d0135925060c08d0135915061307b60e08e0161267f565b90509295989b509295989b509295989b565b6000806000606084860312156130a257600080fd5b8335925060208401356130b48161266a565b915060408401356130c48161266a565b809150509250925092565b6000602082840312156130e157600080fd5b5051919050565b634e487b7160e01b600052601160045260246000fd5b60008261311b57634e487b7160e01b600052601260045260246000fd5b500490565b81810381811115610562576105626130e8565b6000815480845260208085019450836000528060002060005b8381101561282d5781546001600160a01b03168752958201956001918201910161314c565b6000815480845260208085019450836000528060002060005b8381101561282d5781548752958201956001918201910161318a565b805480835260008281526020808220940193909190825b8260078201101561323557815463ffffffff8082168852602082811c821690890152604082811c821690890152606082811c821690890152608082811c82169089015260a082811c82169089015260c082811c9091169088015260e090811c90870152610100909501946001909101906008016131bd565b905490828110156132535763ffffffff821686526020909501946001015b8281101561327357602082901c63ffffffff168652602095909501946001015b828110156132925763ffffffff604083901c1686526020909501946001015b828110156132b15763ffffffff606083901c1686526020909501946001015b828110156132d05763ffffffff608083901c1686526020909501946001015b828110156132ef5763ffffffff60a083901c1686526020909501946001015b8281101561330e5763ffffffff60c083901c1686526020909501946001015b828110156133245760e082901c86526020860195505b5093949350505050565b602081526133576020820161334a84546001600160a01b031690565b6001600160a01b03169052565b600061336d60018401546001600160a01b031690565b6001600160a01b03908116604084015260028401541660608301526101a0608083018190526133a36101c0840160038601613133565b601f19808583030160a08601526133bd8260048801613171565b9150808583030160c08601526133d68260058801613171565b9150600686015460e0860152600786015461010086015260088601546101208601526009860154610140860152600a86015461016086015280858303016101808601525061342781600b87016131a6565b9050613437600c86015460ff1690565b613443838601826128d2565b50949350505050565b80820180821115610562576105626130e8565b6001600160a01b039384168152919092166020820152604081019190915260600190565b60006020828403121561349557600080fd5b8151801515811461157857600080fd5b634e487b7160e01b600052603260045260246000fd5b6000602082840312156134cd57600080fd5b81516115788161266a565b6000600182016134ea576134ea6130e8565b5060010190565b6001600160a01b0385811682528416602082015260a06040820181905260009061351d90830185612838565b828103606084015261352f8185612838565b838103608090940193909352505060008152602001949350505050565b6001600160a01b03878116825286811660208301528516604082015260c06060820181905260009061358090830186612838565b82810360808401526135928186612838565b91505061359e836128b4565b8260a0830152979650505050505050565b8082028115828204841417610562576105626130e856fea264697066735822122057c23420e7a58db803953352bc7a1ee2e460b4e9defa6a4c3c8994a6e71a6ffe64736f6c63430008110033",
  "linkReferences": {},
  "deployedLinkReferences": {}
}