{
  "_format": "hh-sol-artifact-1",
  "contractName": "AUCTIONSPARAMS",
  "sourceName": "contracts/public/auctions/Params.sol",
  "abi": [
    {
      "anonymous": false,
      "inputs": [
        {
          "indexed": true,
          "internalType": "uint256",
          "name": "id",
          "type": "uint256"
        },
        {
          "components": [
            {
              "internalType": "address",
              "name": "owner",
              "type": "address"
            },
            {
              "internalType": "address",
              "name": "winner",
              "type": "address"
            },
            {
              "internalType": "address",
              "name": "currency",
              "type": "address"
            },
            {
              "internalType": "address[]",
              "name": "nftAddresses",
              "type": "address[]"
            },
            {
              "internalType": "uint256[]",
              "name": "nftIds",
              "type": "uint256[]"
            },
            {
              "internalType": "uint256[]",
              "name": "nftAmounts",
              "type": "uint256[]"
            },
            {
              "internalType": "uint256",
              "name": "price",
              "type": "uint256"
            },
            {
              "internalType": "uint256",
              "name": "tax",
              "type": "uint256"
            },
            {
              "internalType": "uint256",
              "name": "currentBid",
              "type": "uint256"
            },
            {
              "internalType": "uint32[]",
              "name": "nftTypes",
              "type": "uint32[]"
            },
            {
              "internalType": "enum AUCTIONSPARAMS.Status",
              "name": "status",
              "type": "uint8"
            }
          ],
          "indexed": false,
          "internalType": "struct AUCTIONSPARAMS.Auction",
          "name": "auction",
          "type": "tuple"
        }
      ],
      "name": "Bid",
      "type": "event"
    },
    {
      "anonymous": false,
      "inputs": [
        {
          "indexed": true,
          "internalType": "uint256",
          "name": "id",
          "type": "uint256"
        },
        {
          "components": [
            {
              "internalType": "address",
              "name": "owner",
              "type": "address"
            },
            {
              "internalType": "address",
              "name": "winner",
              "type": "address"
            },
            {
              "internalType": "address",
              "name": "currency",
              "type": "address"
            },
            {
              "internalType": "address[]",
              "name": "nftAddresses",
              "type": "address[]"
            },
            {
              "internalType": "uint256[]",
              "name": "nftIds",
              "type": "uint256[]"
            },
            {
              "internalType": "uint256[]",
              "name": "nftAmounts",
              "type": "uint256[]"
            },
            {
              "internalType": "uint256",
              "name": "price",
              "type": "uint256"
            },
            {
              "internalType": "uint256",
              "name": "tax",
              "type": "uint256"
            },
            {
              "internalType": "uint256",
              "name": "currentBid",
              "type": "uint256"
            },
            {
              "internalType": "uint32[]",
              "name": "nftTypes",
              "type": "uint32[]"
            },
            {
              "internalType": "enum AUCTIONSPARAMS.Status",
              "name": "status",
              "type": "uint8"
            }
          ],
          "indexed": false,
          "internalType": "struct AUCTIONSPARAMS.Auction",
          "name": "auction",
          "type": "tuple"
        }
      ],
      "name": "Cancellation",
      "type": "event"
    },
    {
      "anonymous": false,
      "inputs": [
        {
          "indexed": false,
          "internalType": "uint256",
          "name": "id",
          "type": "uint256"
        },
        {
          "components": [
            {
              "internalType": "address",
              "name": "owner",
              "type": "address"
            },
            {
              "internalType": "address",
              "name": "winner",
              "type": "address"
            },
            {
              "internalType": "address",
              "name": "currency",
              "type": "address"
            },
            {
              "internalType": "address[]",
              "name": "nftAddresses",
              "type": "address[]"
            },
            {
              "internalType": "uint256[]",
              "name": "nftIds",
              "type": "uint256[]"
            },
            {
              "internalType": "uint256[]",
              "name": "nftAmounts",
              "type": "uint256[]"
            },
            {
              "internalType": "uint256",
              "name": "price",
              "type": "uint256"
            },
            {
              "internalType": "uint256",
              "name": "tax",
              "type": "uint256"
            },
            {
              "internalType": "uint256",
              "name": "currentBid",
              "type": "uint256"
            },
            {
              "internalType": "uint32[]",
              "name": "nftTypes",
              "type": "uint32[]"
            },
            {
              "internalType": "enum AUCTIONSPARAMS.Status",
              "name": "status",
              "type": "uint8"
            }
          ],
          "indexed": false,
          "internalType": "struct AUCTIONSPARAMS.Auction",
          "name": "auction",
          "type": "tuple"
        }
      ],
      "name": "Finished",
      "type": "event"
    },
    {
      "anonymous": false,
      "inputs": [
        {
          "indexed": true,
          "internalType": "uint256",
          "name": "id",
          "type": "uint256"
        },
        {
          "components": [
            {
              "internalType": "address",
              "name": "owner",
              "type": "address"
            },
            {
              "internalType": "address",
              "name": "winner",
              "type": "address"
            },
            {
              "internalType": "address",
              "name": "currency",
              "type": "address"
            },
            {
              "internalType": "address[]",
              "name": "nftAddresses",
              "type": "address[]"
            },
            {
              "internalType": "uint256[]",
              "name": "nftIds",
              "type": "uint256[]"
            },
            {
              "internalType": "uint256[]",
              "name": "nftAmounts",
              "type": "uint256[]"
            },
            {
              "internalType": "uint256",
              "name": "price",
              "type": "uint256"
            },
            {
              "internalType": "uint256",
              "name": "tax",
              "type": "uint256"
            },
            {
              "internalType": "uint256",
              "name": "currentBid",
              "type": "uint256"
            },
            {
              "internalType": "uint32[]",
              "name": "nftTypes",
              "type": "uint32[]"
            },
            {
              "internalType": "enum AUCTIONSPARAMS.Status",
              "name": "status",
              "type": "uint8"
            }
          ],
          "indexed": false,
          "internalType": "struct AUCTIONSPARAMS.Auction",
          "name": "auction",
          "type": "tuple"
        }
      ],
      "name": "NewAuction",
      "type": "event"
    },
    {
      "anonymous": false,
      "inputs": [
        {
          "indexed": false,
          "internalType": "address",
          "name": "from",
          "type": "address"
        },
        {
          "indexed": false,
          "internalType": "address",
          "name": "to",
          "type": "address"
        },
        {
          "indexed": false,
          "internalType": "address",
          "name": "currency",
          "type": "address"
        },
        {
          "indexed": false,
          "internalType": "uint256[]",
          "name": "ids",
          "type": "uint256[]"
        },
        {
          "indexed": false,
          "internalType": "uint256[]",
          "name": "amounts",
          "type": "uint256[]"
        },
        {
          "indexed": false,
          "internalType": "enum Payable.PaymentTypes",
          "name": "paymentType",
          "type": "uint8"
        }
      ],
      "name": "NewPayment",
      "type": "event"
    },
    {
      "anonymous": false,
      "inputs": [
        {
          "indexed": true,
          "internalType": "address",
          "name": "previousOwner",
          "type": "address"
        },
        {
          "indexed": true,
          "internalType": "address",
          "name": "newOwner",
          "type": "address"
        }
      ],
      "name": "OwnershipTransferred",
      "type": "event"
    },
    {
      "inputs": [
        {
          "internalType": "uint256",
          "name": "",
          "type": "uint256"
        }
      ],
      "name": "auctions",
      "outputs": [
        {
          "internalType": "address",
          "name": "owner",
          "type": "address"
        },
        {
          "internalType": "address",
          "name": "winner",
          "type": "address"
        },
        {
          "internalType": "address",
          "name": "currency",
          "type": "address"
        },
        {
          "internalType": "uint256",
          "name": "price",
          "type": "uint256"
        },
        {
          "internalType": "uint256",
          "name": "tax",
          "type": "uint256"
        },
        {
          "internalType": "uint256",
          "name": "currentBid",
          "type": "uint256"
        },
        {
          "internalType": "enum AUCTIONSPARAMS.Status",
          "name": "status",
          "type": "uint8"
        }
      ],
      "stateMutability": "view",
      "type": "function"
    },
    {
      "inputs": [
        {
          "internalType": "address",
          "name": "sender",
          "type": "address"
        },
        {
          "internalType": "address[]",
          "name": "nftAddressArray",
          "type": "address[]"
        },
        {
          "internalType": "uint256[]",
          "name": "nftTokenIdArray",
          "type": "uint256[]"
        },
        {
          "internalType": "uint32[]",
          "name": "nftTokenTypeArray",
          "type": "uint32[]"
        }
      ],
      "name": "checkItemsApproval",
      "outputs": [],
      "stateMutability": "view",
      "type": "function"
    },
    {
      "inputs": [
        {
          "internalType": "address",
          "name": "from",
          "type": "address"
        },
        {
          "internalType": "address",
          "name": "currency",
          "type": "address"
        }
      ],
      "name": "checkTokensApproval",
      "outputs": [
        {
          "internalType": "uint256",
          "name": "",
          "type": "uint256"
        }
      ],
      "stateMutability": "view",
      "type": "function"
    },
    {
      "inputs": [],
      "name": "discounts",
      "outputs": [
        {
          "internalType": "address",
          "name": "",
          "type": "address"
        }
      ],
      "stateMutability": "view",
      "type": "function"
    },
    {
      "inputs": [],
      "name": "fee",
      "outputs": [
        {
          "internalType": "uint256",
          "name": "",
          "type": "uint256"
        }
      ],
      "stateMutability": "view",
      "type": "function"
    },
    {
      "inputs": [],
      "name": "id",
      "outputs": [
        {
          "internalType": "uint256",
          "name": "",
          "type": "uint256"
        }
      ],
      "stateMutability": "view",
      "type": "function"
    },
    {
      "inputs": [],
      "name": "methods",
      "outputs": [
        {
          "internalType": "address",
          "name": "",
          "type": "address"
        }
      ],
      "stateMutability": "view",
      "type": "function"
    },
    {
      "inputs": [
        {
          "internalType": "address",
          "name": "",
          "type": "address"
        },
        {
          "internalType": "address",
          "name": "",
          "type": "address"
        },
        {
          "internalType": "uint256[]",
          "name": "",
          "type": "uint256[]"
        },
        {
          "internalType": "uint256[]",
          "name": "",
          "type": "uint256[]"
        },
        {
          "internalType": "bytes",
          "name": "",
          "type": "bytes"
        }
      ],
      "name": "onERC1155BatchReceived",
      "outputs": [
        {
          "internalType": "bytes4",
          "name": "",
          "type": "bytes4"
        }
      ],
      "stateMutability": "nonpayable",
      "type": "function"
    },
    {
      "inputs": [
        {
          "internalType": "address",
          "name": "",
          "type": "address"
        },
        {
          "internalType": "address",
          "name": "",
          "type": "address"
        },
        {
          "internalType": "uint256",
          "name": "",
          "type": "uint256"
        },
        {
          "internalType": "uint256",
          "name": "",
          "type": "uint256"
        },
        {
          "internalType": "bytes",
          "name": "",
          "type": "bytes"
        }
      ],
      "name": "onERC1155Received",
      "outputs": [
        {
          "internalType": "bytes4",
          "name": "",
          "type": "bytes4"
        }
      ],
      "stateMutability": "nonpayable",
      "type": "function"
    },
    {
      "inputs": [
        {
          "internalType": "address",
          "name": "",
          "type": "address"
        },
        {
          "internalType": "address",
          "name": "",
          "type": "address"
        },
        {
          "internalType": "uint256",
          "name": "",
          "type": "uint256"
        },
        {
          "internalType": "bytes",
          "name": "",
          "type": "bytes"
        }
      ],
      "name": "onERC721Received",
      "outputs": [
        {
          "internalType": "bytes4",
          "name": "",
          "type": "bytes4"
        }
      ],
      "stateMutability": "nonpayable",
      "type": "function"
    },
    {
      "inputs": [],
      "name": "owner",
      "outputs": [
        {
          "internalType": "address",
          "name": "",
          "type": "address"
        }
      ],
      "stateMutability": "view",
      "type": "function"
    },
    {
      "inputs": [
        {
          "internalType": "address",
          "name": "from",
          "type": "address"
        },
        {
          "internalType": "address",
          "name": "to",
          "type": "address"
        },
        {
          "internalType": "address",
          "name": "currency",
          "type": "address"
        },
        {
          "internalType": "uint256[]",
          "name": "ids",
          "type": "uint256[]"
        },
        {
          "internalType": "uint256[]",
          "name": "amounts",
          "type": "uint256[]"
        },
        {
          "internalType": "enum Payable.PaymentTypes",
          "name": "paymentType",
          "type": "uint8"
        }
      ],
      "name": "pay",
      "outputs": [],
      "stateMutability": "payable",
      "type": "function"
    },
    {
      "inputs": [],
      "name": "renounceOwnership",
      "outputs": [],
      "stateMutability": "nonpayable",
      "type": "function"
    },
    {
      "inputs": [
        {
          "internalType": "bytes4",
          "name": "interfaceId",
          "type": "bytes4"
        }
      ],
      "name": "supportsInterface",
      "outputs": [
        {
          "internalType": "bool",
          "name": "",
          "type": "bool"
        }
      ],
      "stateMutability": "view",
      "type": "function"
    },
    {
      "inputs": [
        {
          "internalType": "address",
          "name": "newOwner",
          "type": "address"
        }
      ],
      "name": "transferOwnership",
      "outputs": [],
      "stateMutability": "nonpayable",
      "type": "function"
    },
    {
      "inputs": [
        {
          "internalType": "address",
          "name": "from",
          "type": "address"
        },
        {
          "internalType": "address",
          "name": "to",
          "type": "address"
        },
        {
          "internalType": "address[]",
          "name": "nftAddresses",
          "type": "address[]"
        },
        {
          "internalType": "uint256[]",
          "name": "nftIds",
          "type": "uint256[]"
        },
        {
          "internalType": "uint256[]",
          "name": "nftAmounts",
          "type": "uint256[]"
        },
        {
          "internalType": "uint32[]",
          "name": "nftTypes",
          "type": "uint32[]"
        }
      ],
      "name": "transferTokens",
      "outputs": [],
      "stateMutability": "nonpayable",
      "type": "function"
    }
  ],
  "bytecode": "0x6080604052601460035534801561001557600080fd5b50600160005561002433610029565b61007b565b600180546001600160a01b038381166001600160a01b0319831681179093556040519116919082907f8be0079c531659141344cd1fd0a4f28419497f9722a3daafe3b4186f6b6457e090600090a35050565b6115da8061008a6000396000f3fe6080604052600436106100f35760003560e01c8063af640d0f1161008a578063c01f59c211610059578063c01f59c21461032c578063ddca3f431461033f578063f23a6e6114610355578063f2fde38b1461038157600080fd5b8063af640d0f1461029c578063bb9a581a146102c0578063bc197c81146102e0578063bdd3dc8e1461030c57600080fd5b8063715018a6116100c6578063715018a61461022757806375af65d11461023e5780638da5cb5b1461025e578063a125ea041461027c57600080fd5b806301ffc9a7146100f8578063150b7a021461012d57806329907a9114610171578063571a26a0146101a9575b600080fd5b34801561010457600080fd5b50610118610113366004610d2a565b6103a1565b60405190151581526020015b60405180910390f35b34801561013957600080fd5b50610158610148366004610e30565b630a85bd0160e11b949350505050565b6040516001600160e01b03199091168152602001610124565b34801561017d57600080fd5b50600554610191906001600160a01b031681565b6040516001600160a01b039091168152602001610124565b3480156101b557600080fd5b506102146101c4366004610e9c565b60066020819052600091825260409091208054600182015460028301549383015460078401546008850154600a909501546001600160a01b03948516969385169593909416939192909160ff1687565b6040516101249796959493929190610ee9565b34801561023357600080fd5b5061023c6103d8565b005b34801561024a57600080fd5b50600454610191906001600160a01b031681565b34801561026a57600080fd5b506001546001600160a01b0316610191565b34801561028857600080fd5b5061023c61029736600461109a565b6103ec565b3480156102a857600080fd5b506102b260025481565b604051908152602001610124565b3480156102cc57600080fd5b5061023c6102db366004611129565b610590565b3480156102ec57600080fd5b506101586102fb3660046111f6565b63bc197c8160e01b95945050505050565b34801561031857600080fd5b506102b26103273660046112a4565b61079a565b61023c61033a3660046112dd565b610815565b34801561034b57600080fd5b506102b260035481565b34801561036157600080fd5b50610158610370366004611390565b63f23a6e6160e01b95945050505050565b34801561038d57600080fd5b5061023c61039c3660046113f9565b610ba7565b60006001600160e01b03198216630271189760e51b14806103d257506301ffc9a760e01b6001600160e01b03198316145b92915050565b6103e0610c25565b6103ea6000610c7f565b565b60005b83518110156105895781818151811061040a5761040a611416565b602002602001015163ffffffff166000036104e257306001600160a01b031684828151811061043b5761043b611416565b60200260200101516001600160a01b031663081812fc85848151811061046357610463611416565b60200260200101516040518263ffffffff1660e01b815260040161048991815260200190565b602060405180830381865afa1580156104a6573d6000803e3d6000fd5b505050506040513d601f19601f820116820180604052508101906104ca919061142c565b6001600160a01b0316146104dd57600080fd5b610579565b8381815181106104f4576104f4611416565b602090810291909101015160405163e985e9c560e01b81526001600160a01b0387811660048301523060248301529091169063e985e9c590604401602060405180830381865afa15801561054c573d6000803e3d6000fd5b505050506040513d601f19601f820116820180604052508101906105709190611449565b61057957600080fd5b6105828161146b565b90506103ef565b5050505050565b83518351811480156105a25750808251145b6105ab57600080fd5b60005b81811015610790578281815181106105c8576105c8611416565b602002602001015163ffffffff16600003610690578581815181106105ef576105ef611416565b60200260200101516001600160a01b03166342842e0e898988858151811061061957610619611416565b60209081029190910101516040516001600160e01b031960e086901b1681526001600160a01b0393841660048201529290911660248301526044820152606401600060405180830381600087803b15801561067357600080fd5b505af1158015610687573d6000803e3d6000fd5b50505050610780565b8581815181106106a2576106a2611416565b60200260200101516001600160a01b031663f242432a89898885815181106106cc576106cc611416565b60200260200101518886815181106106e6576106e6611416565b60200260200101516040518563ffffffff1660e01b815260040161074d94939291906001600160a01b0394851681529290931660208301526040820152606081019190915260a060808201819052600490820152630307830360e41b60c082015260e00190565b600060405180830381600087803b15801561076757600080fd5b505af115801561077b573d6000803e3d6000fd5b505050505b6107898161146b565b90506105ae565b5050505050505050565b604051636eb1769f60e11b81526001600160a01b0383811660048301523060248301526000919083169063dd62ed3e90604401602060405180830381865afa1580156107ea573d6000803e3d6000fd5b505050506040513d601f19601f8201168201806040525081019061080e9190611492565b9392505050565b61081d610cd1565b610825610c25565b600081600381111561083957610839610eb5565b036108da57836001600160a01b03166342842e0e87878660008151811061086257610862611416565b60209081029190910101516040516001600160e01b031960e086901b1681526001600160a01b03938416600482015292909116602483015260448201526064015b600060405180830381600087803b1580156108bd57600080fd5b505af11580156108d1573d6000803e3d6000fd5b50505050610b54565b60018160038111156108ee576108ee610eb5565b0361092557604051631759616b60e11b81526001600160a01b03851690632eb2c2d6906108a39089908990889088906004016114e6565b600281600381111561093957610939610eb5565b03610a60576001600160a01b0386163014610a0457836001600160a01b03166323b872dd87878560008151811061097257610972611416565b60209081029190910101516040516001600160e01b031960e086901b1681526001600160a01b03938416600482015292909116602483015260448201526064015b6020604051808303816000875af11580156109d2573d6000803e3d6000fd5b505050506040513d601f19601f820116820180604052508101906109f69190611449565b6109ff57600080fd5b610b54565b836001600160a01b031663a9059cbb8684600081518110610a2757610a27611416565b60200260200101516040518363ffffffff1660e01b81526004016109b39291906001600160a01b03929092168252602082015260400190565b6003816003811115610a7457610a74610eb5565b03610b54576001600160a01b0385163b15610b09576000856001600160a01b031683600081518110610aa857610aa8611416565b602002602001015160405160006040518083038185875af1925050503d8060008114610af0576040519150601f19603f3d011682016040523d82523d6000602084013e610af5565b606091505b5050905080610b0357600080fd5b50610b54565b846001600160a01b03166108fc83600081518110610b2957610b29611416565b60200260200101519081150290604051600060405180830381858888f19350505050610b5457600080fd5b7f4f74c37cf0470b045087a8c6291e730e0623175419cdc46c332bb8a15f8de99e868686868686604051610b8d96959493929190611541565b60405180910390a1610b9f6001600055565b505050505050565b610baf610c25565b6001600160a01b038116610c195760405162461bcd60e51b815260206004820152602660248201527f4f776e61626c653a206e6577206f776e657220697320746865207a65726f206160448201526564647265737360d01b60648201526084015b60405180910390fd5b610c2281610c7f565b50565b6001546001600160a01b031633146103ea5760405162461bcd60e51b815260206004820181905260248201527f4f776e61626c653a2063616c6c6572206973206e6f7420746865206f776e65726044820152606401610c10565b600180546001600160a01b038381166001600160a01b0319831681179093556040519116919082907f8be0079c531659141344cd1fd0a4f28419497f9722a3daafe3b4186f6b6457e090600090a35050565b600260005403610d235760405162461bcd60e51b815260206004820152601f60248201527f5265656e7472616e637947756172643a207265656e7472616e742063616c6c006044820152606401610c10565b6002600055565b600060208284031215610d3c57600080fd5b81356001600160e01b03198116811461080e57600080fd5b6001600160a01b0381168114610c2257600080fd5b8035610d7481610d54565b919050565b634e487b7160e01b600052604160045260246000fd5b604051601f8201601f1916810167ffffffffffffffff81118282101715610db857610db8610d79565b604052919050565b600082601f830112610dd157600080fd5b813567ffffffffffffffff811115610deb57610deb610d79565b610dfe601f8201601f1916602001610d8f565b818152846020838601011115610e1357600080fd5b816020850160208301376000918101602001919091529392505050565b60008060008060808587031215610e4657600080fd5b8435610e5181610d54565b93506020850135610e6181610d54565b925060408501359150606085013567ffffffffffffffff811115610e8457600080fd5b610e9087828801610dc0565b91505092959194509250565b600060208284031215610eae57600080fd5b5035919050565b634e487b7160e01b600052602160045260246000fd5b60048110610c2257634e487b7160e01b600052602160045260246000fd5b6001600160a01b038881168252878116602083015286166040820152606081018590526080810184905260a0810183905260e08101610f2783610ecb565b8260c083015298975050505050505050565b600067ffffffffffffffff821115610f5357610f53610d79565b5060051b60200190565b600082601f830112610f6e57600080fd5b81356020610f83610f7e83610f39565b610d8f565b82815260059290921b84018101918181019086841115610fa257600080fd5b8286015b84811015610fc6578035610fb981610d54565b8352918301918301610fa6565b509695505050505050565b600082601f830112610fe257600080fd5b81356020610ff2610f7e83610f39565b82815260059290921b8401810191818101908684111561101157600080fd5b8286015b84811015610fc65780358352918301918301611015565b600082601f83011261103d57600080fd5b8135602061104d610f7e83610f39565b82815260059290921b8401810191818101908684111561106c57600080fd5b8286015b84811015610fc657803563ffffffff8116811461108d5760008081fd5b8352918301918301611070565b600080600080608085870312156110b057600080fd5b84356110bb81610d54565b9350602085013567ffffffffffffffff808211156110d857600080fd5b6110e488838901610f5d565b945060408701359150808211156110fa57600080fd5b61110688838901610fd1565b9350606087013591508082111561111c57600080fd5b50610e908782880161102c565b60008060008060008060c0878903121561114257600080fd5b61114b87610d69565b955061115960208801610d69565b9450604087013567ffffffffffffffff8082111561117657600080fd5b6111828a838b01610f5d565b9550606089013591508082111561119857600080fd5b6111a48a838b01610fd1565b945060808901359150808211156111ba57600080fd5b6111c68a838b01610fd1565b935060a08901359150808211156111dc57600080fd5b506111e989828a0161102c565b9150509295509295509295565b600080600080600060a0868803121561120e57600080fd5b853561121981610d54565b9450602086013561122981610d54565b9350604086013567ffffffffffffffff8082111561124657600080fd5b61125289838a01610fd1565b9450606088013591508082111561126857600080fd5b61127489838a01610fd1565b9350608088013591508082111561128a57600080fd5b5061129788828901610dc0565b9150509295509295909350565b600080604083850312156112b757600080fd5b82356112c281610d54565b915060208301356112d281610d54565b809150509250929050565b60008060008060008060c087890312156112f657600080fd5b863561130181610d54565b9550602087013561131181610d54565b9450604087013561132181610d54565b9350606087013567ffffffffffffffff8082111561133e57600080fd5b61134a8a838b01610fd1565b9450608089013591508082111561136057600080fd5b5061136d89828a01610fd1565b92505060a08701356004811061138257600080fd5b809150509295509295509295565b600080600080600060a086880312156113a857600080fd5b85356113b381610d54565b945060208601356113c381610d54565b93506040860135925060608601359150608086013567ffffffffffffffff8111156113ed57600080fd5b61129788828901610dc0565b60006020828403121561140b57600080fd5b813561080e81610d54565b634e487b7160e01b600052603260045260246000fd5b60006020828403121561143e57600080fd5b815161080e81610d54565b60006020828403121561145b57600080fd5b8151801515811461080e57600080fd5b60006001820161148b57634e487b7160e01b600052601160045260246000fd5b5060010190565b6000602082840312156114a457600080fd5b5051919050565b600081518084526020808501945080840160005b838110156114db578151875295820195908201906001016114bf565b509495945050505050565b6001600160a01b0385811682528416602082015260a060408201819052600090611512908301856114ab565b828103606084015261152481856114ab565b838103608090940193909352505060008152602001949350505050565b6001600160a01b03878116825286811660208301528516604082015260c060608201819052600090611575908301866114ab565b828103608084015261158781866114ab565b91505061159383610ecb565b8260a083015297965050505050505056fea264697066735822122069214b3c616fb5c0324efff58674a7abf80a6528095776754369cf900b1925ef64736f6c63430008110033",
  "linkReferences": {},
  "deployedLinkReferences": {}
}