{
  "_format": "hh-sol-artifact-1",
  "contractName": "QSales",
  "sourceName": "contracts/private/Sales.sol",
  "abi": [
    {
      "inputs": [
        {
          "internalType": "address",
          "name": "busers",
          "type": "address"
        },
        {
          "internalType": "address",
          "name": "bgames",
          "type": "address"
        }
      ],
      "stateMutability": "nonpayable",
      "type": "constructor"
    },
    {
      "anonymous": false,
      "inputs": [
        {
          "indexed": true,
          "internalType": "address",
          "name": "user",
          "type": "address"
        },
        {
          "indexed": true,
          "internalType": "uint256",
          "name": "game",
          "type": "uint256"
        },
        {
          "indexed": false,
          "internalType": "uint256",
          "name": "server",
          "type": "uint256"
        },
        {
          "indexed": false,
          "internalType": "uint256",
          "name": "item",
          "type": "uint256"
        },
        {
          "indexed": true,
          "internalType": "uint256",
          "name": "id",
          "type": "uint256"
        }
      ],
      "name": "GiveItem",
      "type": "event"
    },
    {
      "anonymous": false,
      "inputs": [
        {
          "indexed": true,
          "internalType": "address",
          "name": "user",
          "type": "address"
        },
        {
          "indexed": true,
          "internalType": "uint256",
          "name": "game",
          "type": "uint256"
        },
        {
          "indexed": false,
          "internalType": "uint256",
          "name": "server",
          "type": "uint256"
        },
        {
          "indexed": false,
          "internalType": "uint256",
          "name": "item",
          "type": "uint256"
        },
        {
          "indexed": true,
          "internalType": "uint256",
          "name": "id",
          "type": "uint256"
        }
      ],
      "name": "ItemGiven",
      "type": "event"
    },
    {
      "anonymous": false,
      "inputs": [
        {
          "indexed": true,
          "internalType": "address",
          "name": "user",
          "type": "address"
        },
        {
          "indexed": true,
          "internalType": "uint256",
          "name": "game",
          "type": "uint256"
        },
        {
          "indexed": true,
          "internalType": "uint256",
          "name": "id",
          "type": "uint256"
        }
      ],
      "name": "ItemNotGiven",
      "type": "event"
    },
    {
      "anonymous": false,
      "inputs": [
        {
          "indexed": true,
          "internalType": "address",
          "name": "user",
          "type": "address"
        },
        {
          "indexed": true,
          "internalType": "uint256",
          "name": "game",
          "type": "uint256"
        },
        {
          "indexed": true,
          "internalType": "uint256",
          "name": "id",
          "type": "uint256"
        }
      ],
      "name": "ItemNotRefunded",
      "type": "event"
    },
    {
      "anonymous": false,
      "inputs": [
        {
          "indexed": true,
          "internalType": "address",
          "name": "user",
          "type": "address"
        },
        {
          "indexed": true,
          "internalType": "uint256",
          "name": "game",
          "type": "uint256"
        },
        {
          "indexed": true,
          "internalType": "uint256",
          "name": "id",
          "type": "uint256"
        }
      ],
      "name": "ItemNotTaken",
      "type": "event"
    },
    {
      "anonymous": false,
      "inputs": [
        {
          "indexed": true,
          "internalType": "address",
          "name": "user",
          "type": "address"
        },
        {
          "indexed": true,
          "internalType": "uint256",
          "name": "game",
          "type": "uint256"
        },
        {
          "indexed": false,
          "internalType": "uint256",
          "name": "server",
          "type": "uint256"
        },
        {
          "indexed": false,
          "internalType": "uint256",
          "name": "item",
          "type": "uint256"
        },
        {
          "indexed": true,
          "internalType": "uint256",
          "name": "id",
          "type": "uint256"
        }
      ],
      "name": "ItemRefunded",
      "type": "event"
    },
    {
      "anonymous": false,
      "inputs": [
        {
          "indexed": true,
          "internalType": "address",
          "name": "user",
          "type": "address"
        },
        {
          "indexed": true,
          "internalType": "uint256",
          "name": "game",
          "type": "uint256"
        },
        {
          "indexed": false,
          "internalType": "uint256",
          "name": "server",
          "type": "uint256"
        },
        {
          "indexed": false,
          "internalType": "uint256",
          "name": "item",
          "type": "uint256"
        },
        {
          "indexed": true,
          "internalType": "uint256",
          "name": "id",
          "type": "uint256"
        },
        {
          "indexed": false,
          "internalType": "uint256",
          "name": "price",
          "type": "uint256"
        }
      ],
      "name": "ItemTaken",
      "type": "event"
    },
    {
      "anonymous": false,
      "inputs": [
        {
          "indexed": true,
          "internalType": "address",
          "name": "user",
          "type": "address"
        },
        {
          "indexed": true,
          "internalType": "uint256",
          "name": "game",
          "type": "uint256"
        },
        {
          "indexed": false,
          "internalType": "uint256",
          "name": "server",
          "type": "uint256"
        },
        {
          "indexed": false,
          "internalType": "uint256",
          "name": "item",
          "type": "uint256"
        },
        {
          "indexed": true,
          "internalType": "uint256",
          "name": "id",
          "type": "uint256"
        }
      ],
      "name": "RefundItem",
      "type": "event"
    },
    {
      "anonymous": false,
      "inputs": [
        {
          "indexed": true,
          "internalType": "address",
          "name": "user",
          "type": "address"
        },
        {
          "indexed": true,
          "internalType": "uint256",
          "name": "game",
          "type": "uint256"
        },
        {
          "indexed": false,
          "internalType": "uint256",
          "name": "server",
          "type": "uint256"
        },
        {
          "indexed": false,
          "internalType": "uint256",
          "name": "item",
          "type": "uint256"
        },
        {
          "indexed": true,
          "internalType": "uint256",
          "name": "id",
          "type": "uint256"
        },
        {
          "indexed": false,
          "internalType": "uint256",
          "name": "price",
          "type": "uint256"
        },
        {
          "indexed": false,
          "internalType": "bool",
          "name": "premium",
          "type": "bool"
        }
      ],
      "name": "TakeItem",
      "type": "event"
    },
    {
      "inputs": [
        {
          "internalType": "uint256",
          "name": "sale",
          "type": "uint256"
        }
      ],
      "name": "cancelSale",
      "outputs": [],
      "stateMutability": "nonpayable",
      "type": "function"
    },
    {
      "inputs": [
        {
          "internalType": "uint256",
          "name": "sale",
          "type": "uint256"
        },
        {
          "internalType": "address",
          "name": "buyer",
          "type": "address"
        },
        {
          "internalType": "bool",
          "name": "companyValidation",
          "type": "bool"
        }
      ],
      "name": "confirmPurchase",
      "outputs": [],
      "stateMutability": "nonpayable",
      "type": "function"
    },
    {
      "inputs": [
        {
          "internalType": "uint256",
          "name": "game",
          "type": "uint256"
        },
        {
          "internalType": "uint256",
          "name": "item",
          "type": "uint256"
        },
        {
          "internalType": "uint256",
          "name": "server",
          "type": "uint256"
        },
        {
          "internalType": "uint256",
          "name": "price",
          "type": "uint256"
        },
        {
          "internalType": "bool",
          "name": "premium",
          "type": "bool"
        }
      ],
      "name": "createSale",
      "outputs": [],
      "stateMutability": "nonpayable",
      "type": "function"
    },
    {
      "inputs": [],
      "name": "games",
      "outputs": [
        {
          "internalType": "contract IBMarketGames",
          "name": "",
          "type": "address"
        }
      ],
      "stateMutability": "view",
      "type": "function"
    },
    {
      "inputs": [],
      "name": "id",
      "outputs": [
        {
          "internalType": "uint256",
          "name": "",
          "type": "uint256"
        }
      ],
      "stateMutability": "view",
      "type": "function"
    },
    {
      "inputs": [],
      "name": "owner",
      "outputs": [
        {
          "internalType": "address",
          "name": "",
          "type": "address"
        }
      ],
      "stateMutability": "view",
      "type": "function"
    },
    {
      "inputs": [
        {
          "internalType": "uint256",
          "name": "sale",
          "type": "uint256"
        }
      ],
      "name": "purchase",
      "outputs": [],
      "stateMutability": "nonpayable",
      "type": "function"
    },
    {
      "inputs": [
        {
          "internalType": "uint256",
          "name": "sale",
          "type": "uint256"
        },
        {
          "internalType": "bool",
          "name": "companyValidation",
          "type": "bool"
        }
      ],
      "name": "saleCancelled",
      "outputs": [],
      "stateMutability": "nonpayable",
      "type": "function"
    },
    {
      "inputs": [
        {
          "internalType": "uint256",
          "name": "",
          "type": "uint256"
        }
      ],
      "name": "sales",
      "outputs": [
        {
          "internalType": "address",
          "name": "seller",
          "type": "address"
        },
        {
          "internalType": "address",
          "name": "buyer",
          "type": "address"
        },
        {
          "internalType": "uint256",
          "name": "game",
          "type": "uint256"
        },
        {
          "internalType": "uint256",
          "name": "item",
          "type": "uint256"
        },
        {
          "internalType": "uint256",
          "name": "price",
          "type": "uint256"
        },
        {
          "internalType": "uint256",
          "name": "server",
          "type": "uint256"
        },
        {
          "internalType": "bool",
          "name": "premium",
          "type": "bool"
        },
        {
          "internalType": "enum QSales.SaleStatus",
          "name": "status",
          "type": "uint8"
        }
      ],
      "stateMutability": "view",
      "type": "function"
    },
    {
      "inputs": [
        {
          "internalType": "address",
          "name": "busers",
          "type": "address"
        },
        {
          "internalType": "address",
          "name": "bgames",
          "type": "address"
        }
      ],
      "name": "setGlobalParams",
      "outputs": [],
      "stateMutability": "nonpayable",
      "type": "function"
    },
    {
      "inputs": [],
      "name": "users",
      "outputs": [
        {
          "internalType": "contract IBMarketUsers",
          "name": "",
          "type": "address"
        }
      ],
      "stateMutability": "view",
      "type": "function"
    },
    {
      "inputs": [
        {
          "internalType": "uint256",
          "name": "sale",
          "type": "uint256"
        },
        {
          "internalType": "bool",
          "name": "companyValidation",
          "type": "bool"
        }
      ],
      "name": "validateSale",
      "outputs": [],
      "stateMutability": "nonpayable",
      "type": "function"
    }
  ],
  "bytecode": "0x6080604052600160035534801561001557600080fd5b506040516115cf3803806115cf8339810160408190526100349161008c565b600080546001600160a01b03199081163317909155600180546001600160a01b03948516908316179055600280549290931691161790556100bf565b80516001600160a01b038116811461008757600080fd5b919050565b6000806040838503121561009f57600080fd5b6100a883610070565b91506100b660208401610070565b90509250929050565b611501806100ce6000396000f3fe608060405234801561001057600080fd5b50600436106100b45760003560e01c8063af640d0f11610071578063af640d0f1461014a578063b5f522f714610161578063bd94b005146101dc578063cbd2b21c146101ef578063efef39a114610202578063f20202751461021557600080fd5b80630f995a23146100b95780633a2ebaec146100ce5780638da5cb5b146100e1578063955a015b14610111578063974ce4b6146101245780639a6f379714610137575b600080fd5b6100cc6100c73660046111ab565b610228565b005b6100cc6100dc3660046111ef565b6103b5565b6000546100f4906001600160a01b031681565b6040516001600160a01b0390911681526020015b60405180910390f35b6002546100f4906001600160a01b031681565b6100cc610132366004611228565b6103fa565b6100cc6101453660046111ab565b61058e565b61015360035481565b604051908152602001610108565b6101c861016f366004611271565b600460208190526000918252604090912060018101546002820154600383015493830154600584015460068501546007909501546001600160a01b03948516969490931694919290919060ff8082169161010090041688565b6040516101089897969594939291906112a0565b6100cc6101ea366004611271565b610732565b6100cc6101fd36600461130e565b610804565b6100cc610210366004611271565b610f99565b6001546100f4906001600160a01b031681565b6001600083815260046020526040902060070154610100900460ff1660058111156102555761025561128a565b1461025f57600080fd5b600254600083815260046020819052604091829020600381015460068201549183015493516332294f3960e11b81526001600160a01b03909516946364529e72946102ad943394920161134c565b60006040518083038186803b1580156102c557600080fd5b505afa1580156102d9573d6000803e3d6000fd5b5050505080156103645760008281526004602081815260409283902060078101805461ff0019166105001790556003810154600182015460068301549290940154855192835292820192909252859391926001600160a01b0316917f93154a1fac9d59458e56386455749c46ee98d5c17cd5ebec240dc6a90224aa2a91015b60405180910390a45050565b60008281526004602052604080822060038101546001909101549151859391926001600160a01b0316917f0cb5255f0cb5f3c92b353e244e31454415d69c769fe5f634a6eb74849a862d7891a45050565b6000546001600160a01b031633146103cc57600080fd5b600180546001600160a01b039384166001600160a01b03199182161790915560028054929093169116179055565b84838560008311801561040d5750600082115b80156104195750600081115b61042257600080fd5b606485101561043057600080fd5b6002546040516320f1bf4160e01b81526001600160a01b03909116906320f1bf41906104669033908c908b908d9060040161134c565b60006040518083038186803b15801561047e57600080fd5b505afa158015610492573d6000803e3d6000fd5b505060038054600090815260046020818152604080842085018f9055845484528084209092018d9055835483528183206006018c9055835483528183206001018054336001600160a01b03199091168117909155845484528284206005018c9055845484528284206007908101805461ff0019169055855485529383902090930180548b151560ff199091168117909155935482518d81529182018e90529181018b9052606081019390935293508b9250907ff05d47fd36f18a04d1dcb38f7122c92fa3ae6973ae27e1d893dcb8c3270bcf5f9060800160405180910390a460036000815461058090611388565b909155505050505050505050565b60008083815260046020526040902060070154610100900460ff1660058111156105ba576105ba61128a565b146105c457600080fd5b600254600083815260046020819052604091829020600381015460068201549183015493516332294f3960e11b81526001600160a01b03909516946364529e7294610612943394920161134c565b60006040518083038186803b15801561062a57600080fd5b505afa15801561063e573d6000803e3d6000fd5b5050505080156106d05760008281526004602081815260409283902060078101805461ff00191661010017905560038101546001820154600683015494830154600590930154865195865293850192909252938301919091528492916001600160a01b03909116907f990f4e2732e973015f207eb8808f00ee5e94a73cec25cd3fe982e86203e812ce90606001610358565b60008281526004602052604080822060078101805461ff00191661020017905560038101546001909101549151859391926001600160a01b0316917f35dbf9b1750829d93433dea845420ef3411290234cdd18a67e2b706015165c2391a45050565b6001600082815260046020526040902060070154610100900460ff16600581111561075f5761075f61128a565b1461076957600080fd5b6000818152600460205260409020600101546001600160a01b0316331461078f57600080fd5b60008181526004602081905260409182902060038101546001820154600683015492909301549351859491936001600160a01b0316927fe9af9e82f3c3eee0c87697791875b3d83c7286fe489d5b69620ae2cdcd828f35926107f992918252602082015260400190565b60405180910390a450565b60008381526004602090815260408083206001600160a01b038616845290915290205460ff16801561086057506003600084815260046020526040902060070154610100900460ff16600581111561085e5761085e61128a565b145b61086957600080fd5b600254600084815260046020819052604091829020600381015460068201549183015493516332294f3960e11b81526001600160a01b03909516946364529e72946108b7943394920161134c565b60006040518083038186803b1580156108cf57600080fd5b505afa1580156108e3573d6000803e3d6000fd5b505050508015610f185760008381526004602081905260409091206002810180546001600160a01b0319166001600160a01b03861617905560070154610100900460ff1660058111156109385761093861128a565b505060025460008481526004602081905260408083206003015490516335681b5360e21b81529182015290916001600160a01b03169063d5a06d4c906024016040805180830381865afa158015610993573d6000803e3d6000fd5b505050506040513d601f19601f820116820180604052508101906109b791906113a1565b600154604051634a9fefc760e01b81526001600160a01b03868116600483015292935060009290911690634a9fefc790602401602060405180830381865afa158015610a07573d6000803e3d6000fd5b505050506040513d601f19601f82011682018060405250810190610a2b919061142f565b60015460008054855189835260046020526040909220600501549394506001600160a01b03928316936399ec1bda938993921691610a6891611453565b6040518463ffffffff1660e01b8152600401610a8693929190611475565b600060405180830381600087803b158015610aa057600080fd5b505af1158015610ab4573d6000803e3d6000fd5b505060015460025460008981526004602081905260409182902060030154915163b3ecdfc360e01b8152908101919091526001600160a01b0392831694506399ec1bda935088929091169063b3ecdfc390602401602060405180830381865afa158015610b25573d6000803e3d6000fd5b505050506040513d601f19601f82011682018060405250810190610b49919061142f565b60208087015160008b81526004909252604090912060050154610b6c9190611453565b6040518463ffffffff1660e01b8152600401610b8a93929190611475565b600060405180830381600087803b158015610ba457600080fd5b505af1158015610bb8573d6000803e3d6000fd5b5050506001600160a01b0382169050610ca75760018054600087815260046020908152604090912092830154908501516005909301546001600160a01b03928316936399ec1bda9389931691610c0e9190611453565b865160008b815260046020526040902060050154610c2c9190611453565b60008b815260046020526040902060050154610c489190611499565b610c529190611499565b6040518463ffffffff1660e01b8152600401610c7093929190611475565b600060405180830381600087803b158015610c8a57600080fd5b505af1158015610c9e573d6000803e3d6000fd5b50505050610e9f565b60015460405163468c75a160e01b81526001600160a01b038381166004830152600092169063468c75a190602401602060405180830381865afa158015610cf2573d6000803e3d6000fd5b505050506040513d601f19601f82011682018060405250810190610d1691906114b2565b6001546000888152600460205260409020600501549192506001600160a01b0316906399ec1bda9087908590610d4d908690611453565b6040518463ffffffff1660e01b8152600401610d6b93929190611475565b600060405180830381600087803b158015610d8557600080fd5b505af1158015610d99573d6000803e3d6000fd5b50506001805460008a8152600460205260409020918201546005909201546001600160a01b0391821694506399ec1bda9350899290911690610ddc908690611453565b60208089015160008d81526004909252604090912060050154610dff9190611453565b885160008d815260046020526040902060050154610e1d9190611453565b60008d815260046020526040902060050154610e399190611499565b610e439190611499565b610e4d9190611499565b6040518463ffffffff1660e01b8152600401610e6b93929190611475565b600060405180830381600087803b158015610e8557600080fd5b505af1158015610e99573d6000803e3d6000fd5b50505050505b60008581526004602081905260409182902060038101546002820154600683015492909301549351899491936001600160a01b0316927ff8b1513a80efa44743c8fd203c5ea490eb045b980e712306aabf06142f3dd86a92610f0992918252602082015260400190565b60405180910390a45050505050565b6001600084815260046020526040902060070154610100900460ff166005811115610f4557610f4561128a565b505060008381526004602052604080822060038101546002909101549151869391926001600160a01b0316917faf6b3032f8e3492c4bb6b4c79dcc6083c222fa059953718fd64af48b99e021c291a4505050565b6001600082815260046020526040902060070154610100900460ff166005811115610fc657610fc661128a565b1480610ffc57506003600082815260046020526040902060070154610100900460ff166005811115610ffa57610ffa61128a565b145b61100557600080fd5b6000818152600460208190526040918290206005015460015492516349271a1760e11b81523392810192909252916001600160a01b03169063924e342e90602401602060405180830381865afa158015611063573d6000803e3d6000fd5b505050506040513d601f19601f8201168201806040525081019061108791906114b2565b101561109257600080fd5b600254600082815260046020819052604091829020600381015460068201549183015493516320f1bf4160e01b81526001600160a01b03909516946320f1bf41946110e0943394920161134c565b60006040518083038186803b1580156110f857600080fd5b505afa15801561110c573d6000803e3d6000fd5b505050600082815260046020818152604080842033808652818452828620805460ff191660011790559487905283835260078101805461ff0019166103001790556003810154600682015491909401548251918252928101929092528594509192917f6a391651e6925699d21e05a7839a1cd477cf124d1392eb575fdeed1b1b9fd6d991016107f9565b803580151581146111a657600080fd5b919050565b600080604083850312156111be57600080fd5b823591506111ce60208401611196565b90509250929050565b6001600160a01b03811681146111ec57600080fd5b50565b6000806040838503121561120257600080fd5b823561120d816111d7565b9150602083013561121d816111d7565b809150509250929050565b600080600080600060a0868803121561124057600080fd5b8535945060208601359350604086013592506060860135915061126560808701611196565b90509295509295909350565b60006020828403121561128357600080fd5b5035919050565b634e487b7160e01b600052602160045260246000fd5b6001600160a01b0389811682528816602082015260408101879052606081018690526080810185905260a0810184905282151560c08201526101008101600683106112fb57634e487b7160e01b600052602160045260246000fd5b8260e08301529998505050505050505050565b60008060006060848603121561132357600080fd5b833592506020840135611335816111d7565b915061134360408501611196565b90509250925092565b6001600160a01b0394909416845260208401929092526040830152606082015260800190565b634e487b7160e01b600052601160045260246000fd5b60006001820161139a5761139a611372565b5060010190565b6000604082840312156113b357600080fd5b82601f8301126113c257600080fd5b6040516040810181811067ffffffffffffffff821117156113f357634e487b7160e01b600052604160045260246000fd5b806040525080604084018581111561140a57600080fd5b845b8181101561142457805183526020928301920161140c565b509195945050505050565b60006020828403121561144157600080fd5b815161144c816111d7565b9392505050565b60008261147057634e487b7160e01b600052601260045260246000fd5b500490565b6001600160a01b039384168152919092166020820152604081019190915260600190565b818103818111156114ac576114ac611372565b92915050565b6000602082840312156114c457600080fd5b505191905056fea2646970667358221220aa178c10de6ef1832aa6783f674b1ce6dc640aa10c778d9f7f920e4f770a5c5b64736f6c63430008110033",
  "linkReferences": {},
  "deployedLinkReferences": {}
}