{
  "_format": "hh-sol-artifact-1",
  "contractName": "AUCTIONSCOMPANY",
  "sourceName": "contracts/private/AuctionsCompany.sol",
  "abi": [
    {
      "inputs": [
        {
          "internalType": "address",
          "name": "busers",
          "type": "address"
        },
        {
          "internalType": "address",
          "name": "bgames",
          "type": "address"
        }
      ],
      "stateMutability": "nonpayable",
      "type": "constructor"
    },
    {
      "anonymous": false,
      "inputs": [
        {
          "indexed": true,
          "internalType": "address",
          "name": "user",
          "type": "address"
        },
        {
          "indexed": true,
          "internalType": "uint256",
          "name": "game",
          "type": "uint256"
        },
        {
          "indexed": false,
          "internalType": "uint256[]",
          "name": "ids",
          "type": "uint256[]"
        }
      ],
      "name": "CompanyAuctionsCancelled",
      "type": "event"
    },
    {
      "anonymous": false,
      "inputs": [
        {
          "indexed": true,
          "internalType": "address",
          "name": "user",
          "type": "address"
        },
        {
          "indexed": true,
          "internalType": "uint256",
          "name": "game",
          "type": "uint256"
        },
        {
          "indexed": false,
          "internalType": "uint256",
          "name": "server",
          "type": "uint256"
        },
        {
          "indexed": false,
          "internalType": "uint256",
          "name": "item",
          "type": "uint256"
        },
        {
          "indexed": false,
          "internalType": "uint256[4]",
          "name": "metadata",
          "type": "uint256[4]"
        }
      ],
      "name": "CompanyAuctionsCreated",
      "type": "event"
    },
    {
      "anonymous": false,
      "inputs": [
        {
          "indexed": true,
          "internalType": "address",
          "name": "user",
          "type": "address"
        },
        {
          "indexed": true,
          "internalType": "uint256",
          "name": "game",
          "type": "uint256"
        },
        {
          "indexed": false,
          "internalType": "uint256",
          "name": "server",
          "type": "uint256"
        },
        {
          "indexed": false,
          "internalType": "uint256",
          "name": "item",
          "type": "uint256"
        },
        {
          "indexed": true,
          "internalType": "uint256",
          "name": "id",
          "type": "uint256"
        }
      ],
      "name": "GiveItem",
      "type": "event"
    },
    {
      "anonymous": false,
      "inputs": [
        {
          "indexed": true,
          "internalType": "address",
          "name": "user",
          "type": "address"
        },
        {
          "indexed": true,
          "internalType": "uint256",
          "name": "game",
          "type": "uint256"
        },
        {
          "indexed": false,
          "internalType": "uint256",
          "name": "server",
          "type": "uint256"
        },
        {
          "indexed": false,
          "internalType": "uint256",
          "name": "item",
          "type": "uint256"
        },
        {
          "indexed": true,
          "internalType": "uint256",
          "name": "id",
          "type": "uint256"
        }
      ],
      "name": "ItemGiven",
      "type": "event"
    },
    {
      "anonymous": false,
      "inputs": [
        {
          "indexed": true,
          "internalType": "address",
          "name": "user",
          "type": "address"
        },
        {
          "indexed": true,
          "internalType": "uint256",
          "name": "game",
          "type": "uint256"
        },
        {
          "indexed": true,
          "internalType": "uint256",
          "name": "id",
          "type": "uint256"
        }
      ],
      "name": "ItemNotGiven",
      "type": "event"
    },
    {
      "anonymous": false,
      "inputs": [
        {
          "indexed": true,
          "internalType": "address",
          "name": "user",
          "type": "address"
        },
        {
          "indexed": false,
          "internalType": "uint256",
          "name": "price",
          "type": "uint256"
        },
        {
          "indexed": true,
          "internalType": "uint256",
          "name": "id",
          "type": "uint256"
        }
      ],
      "name": "NewHighPayer",
      "type": "event"
    },
    {
      "inputs": [
        {
          "internalType": "uint256",
          "name": "",
          "type": "uint256"
        }
      ],
      "name": "auctions",
      "outputs": [
        {
          "internalType": "address",
          "name": "owner",
          "type": "address"
        },
        {
          "internalType": "address",
          "name": "winner",
          "type": "address"
        },
        {
          "internalType": "uint256",
          "name": "game",
          "type": "uint256"
        },
        {
          "internalType": "uint256",
          "name": "item",
          "type": "uint256"
        },
        {
          "internalType": "uint256",
          "name": "price",
          "type": "uint256"
        },
        {
          "internalType": "uint256",
          "name": "toAdd",
          "type": "uint256"
        },
        {
          "internalType": "uint256",
          "name": "server",
          "type": "uint256"
        },
        {
          "internalType": "enum AUCTIONSCOMPANY.AuctionStatus",
          "name": "status",
          "type": "uint8"
        }
      ],
      "stateMutability": "view",
      "type": "function"
    },
    {
      "inputs": [
        {
          "internalType": "uint256[]",
          "name": "_auctions",
          "type": "uint256[]"
        }
      ],
      "name": "cancelAuctions",
      "outputs": [],
      "stateMutability": "nonpayable",
      "type": "function"
    },
    {
      "inputs": [
        {
          "internalType": "uint256",
          "name": "game",
          "type": "uint256"
        },
        {
          "internalType": "uint256",
          "name": "server",
          "type": "uint256"
        },
        {
          "internalType": "uint256",
          "name": "item",
          "type": "uint256"
        },
        {
          "internalType": "uint256",
          "name": "price",
          "type": "uint256"
        },
        {
          "internalType": "uint256",
          "name": "toAdd",
          "type": "uint256"
        },
        {
          "internalType": "uint256",
          "name": "qty",
          "type": "uint256"
        }
      ],
      "name": "createAuctions",
      "outputs": [],
      "stateMutability": "nonpayable",
      "type": "function"
    },
    {
      "inputs": [
        {
          "internalType": "uint256",
          "name": "auction",
          "type": "uint256"
        }
      ],
      "name": "finishAuction",
      "outputs": [],
      "stateMutability": "nonpayable",
      "type": "function"
    },
    {
      "inputs": [
        {
          "internalType": "uint256",
          "name": "auction",
          "type": "uint256"
        },
        {
          "internalType": "bool",
          "name": "companyValidation",
          "type": "bool"
        }
      ],
      "name": "finishedAuction",
      "outputs": [],
      "stateMutability": "nonpayable",
      "type": "function"
    },
    {
      "inputs": [],
      "name": "games",
      "outputs": [
        {
          "internalType": "contract IBMarketGames",
          "name": "",
          "type": "address"
        }
      ],
      "stateMutability": "view",
      "type": "function"
    },
    {
      "inputs": [],
      "name": "id",
      "outputs": [
        {
          "internalType": "uint256",
          "name": "",
          "type": "uint256"
        }
      ],
      "stateMutability": "view",
      "type": "function"
    },
    {
      "inputs": [],
      "name": "owner",
      "outputs": [
        {
          "internalType": "address",
          "name": "",
          "type": "address"
        }
      ],
      "stateMutability": "view",
      "type": "function"
    },
    {
      "inputs": [
        {
          "internalType": "uint256",
          "name": "auction",
          "type": "uint256"
        },
        {
          "internalType": "uint256",
          "name": "price",
          "type": "uint256"
        }
      ],
      "name": "payForAuction",
      "outputs": [],
      "stateMutability": "nonpayable",
      "type": "function"
    },
    {
      "inputs": [
        {
          "internalType": "address",
          "name": "busers",
          "type": "address"
        },
        {
          "internalType": "address",
          "name": "bgames",
          "type": "address"
        }
      ],
      "name": "setGlobalParams",
      "outputs": [],
      "stateMutability": "nonpayable",
      "type": "function"
    },
    {
      "inputs": [],
      "name": "users",
      "outputs": [
        {
          "internalType": "contract IBMarketUsers",
          "name": "",
          "type": "address"
        }
      ],
      "stateMutability": "view",
      "type": "function"
    }
  ],
  "bytecode": "0x6080604052600160035534801561001557600080fd5b5060405162001810380380620018108339810160408190526100369161008e565b600080546001600160a01b03199081163317909155600180546001600160a01b03948516908316179055600280549290931691161790556100c1565b80516001600160a01b038116811461008957600080fd5b919050565b600080604083850312156100a157600080fd5b6100aa83610072565b91506100b860208401610072565b90509250929050565b61173f80620000d16000396000f3fe608060405234801561001057600080fd5b50600436106100a95760003560e01c8063a288117d11610071578063a288117d14610192578063af640d0f146101a5578063cf266ed0146101bc578063d85b85f6146101cf578063de3c0fd4146101e2578063f2020275146101f557600080fd5b80633a2ebaec146100ae578063571a26a0146100c35780638da5cb5b1461014157806390845bf71461016c578063955a015b1461017f575b600080fd5b6100c16100bc3660046112a6565b610208565b005b6101246100d13660046112df565b6004602081905260009182526040909120805460018201546002830154600384015494840154600585015460068601546007909601546001600160a01b0395861697949095169592949192909160ff1688565b60405161013898979695949392919061130e565b60405180910390f35b600054610154906001600160a01b031681565b6040516001600160a01b039091168152602001610138565b6100c161017a36600461137b565b61024d565b600254610154906001600160a01b031681565b6100c16101a036600461139d565b61054e565b6101ae60035481565b604051908152602001610138565b6100c16101ca3660046112df565b610b67565b6100c16101dd3660046113c7565b610cda565b6100c16101f0366004611451565b610f65565b600154610154906001600160a01b031681565b6000546001600160a01b0316331461021f57600080fd5b600180546001600160a01b039384166001600160a01b03199182161790915560028054929093169116179055565b600160008381526004602081905260409091206007015460ff1690811115610277576102776112f8565b1461028157600080fd5b600082815260046020819052604090912060058101549101546102a4919061150d565b811015806102e6575060008281526004602081905260409091200154811480156102e657506000828152600460205260409020600101546001600160a01b0316155b6102ef57600080fd5b6002805460008481526004602081905260409182902093840154600685015460039095015492516320f1bf4160e01b81526001600160a01b03909416946320f1bf4194610340943394909101611526565b60006040518083038186803b15801561035857600080fd5b505afa15801561036c573d6000803e3d6000fd5b5050506000838152600460205260409020600101546001600160a01b031690506103f957600154604051631f22c54760e11b8152336004820152602481018390526001600160a01b0390911690633e458a8e90604401600060405180830381600087803b1580156103dc57600080fd5b505af11580156103f0573d6000803e3d6000fd5b505050506104e0565b600180546000848152600460208190526040918290209384015493810154915163b52d734360e01b81526001600160a01b0394851691810191909152602481019190915291169063b52d734390604401600060405180830381600087803b15801561046357600080fd5b505af1158015610477573d6000803e3d6000fd5b5050600154604051631f22c54760e11b8152336004820152602481018590526001600160a01b039091169250633e458a8e9150604401600060405180830381600087803b1580156104c757600080fd5b505af11580156104db573d6000803e3d6000fd5b505050505b60008281526004602081905260409182902090810183905560010180546001600160a01b0319163390811790915590518391907f464df8b5e5ccb635275930a8fb43f57c1dc1812e1c10a2d56582272fd952275b906105429085815260200190565b60405180910390a35050565b600160008381526004602081905260409091206007015460ff1690811115610578576105786112f8565b1461058257600080fd5b6002805460008481526004602081905260409182902093840154600685015460039095015492516332294f3960e11b81526001600160a01b03909416946364529e72946105d3943394909101611526565b60006040518083038186803b1580156105eb57600080fd5b505afa1580156105ff573d6000803e3d6000fd5b505050508015610b165760008281526004602081905260409091206007015460ff1681811115610631576106316112f8565b50506002805460008481526004602081905260408083209094015493516335681b5360e21b815291936001600160a01b039093169263d5a06d4c9261067a920190815260200190565b6040805180830381865afa158015610696573d6000803e3d6000fd5b505050506040513d601f19601f820116820180604052508101906106ba919061154c565b6001546000858152600460208190526040808320549051634a9fefc760e01b81526001600160a01b0391821692810192909252939450909290911690634a9fefc790602401602060405180830381865afa15801561071c573d6000803e3d6000fd5b505050506040513d601f19601f8201168201806040525081019061074091906115cc565b600154600080548551888352600460208190526040909320909201549394506001600160a01b039283169363b52d7343939091169161077e91611606565b6040516001600160e01b031960e085901b1681526001600160a01b0390921660048301526024820152604401600060405180830381600087803b1580156107c457600080fd5b505af11580156107d8573d6000803e3d6000fd5b5050506001600160a01b03821690506108a55760015460008581526004602081905260409091208054855191909201546001600160a01b039384169363b52d734393169161082591611606565b600088815260046020819052604090912001546108429190611628565b6040516001600160e01b031960e085901b1681526001600160a01b0390921660048301526024820152604401600060405180830381600087803b15801561088857600080fd5b505af115801561089c573d6000803e3d6000fd5b50505050610aa4565b60015460405163468c75a160e01b81526001600160a01b038381166004830152600092169063468c75a190602401602060405180830381865afa1580156108f0573d6000803e3d6000fd5b505050506040513d601f19601f82011682018060405250810190610914919061163b565b600154600087815260046020819052604090912001549192506001600160a01b03169063b52d734390849061094a908590611606565b600089815260046020819052604090912001546109679190611628565b6040516001600160e01b031960e085901b1681526001600160a01b0390921660048301526024820152604401600060405180830381600087803b1580156109ad57600080fd5b505af11580156109c1573d6000803e3d6000fd5b5050600154600088815260046020819052604090912080549101546001600160a01b03928316945063b52d734393509116906109fe908590611606565b865160008a81526004602081905260409091200154610a1d9190611606565b60008a81526004602081905260409091200154610a3a9190611628565b610a449190611628565b6040516001600160e01b031960e085901b1681526001600160a01b0390921660048301526024820152604401600060405180830381600087803b158015610a8a57600080fd5b505af1158015610a9e573d6000803e3d6000fd5b50505050505b600084815260046020908152604091829020600281015460018201546006830154600390930154855193845293830193909352879390926001600160a01b0316917ff8b1513a80efa44743c8fd203c5ea490eb045b980e712306aabf06142f3dd86a910160405180910390a450505050565b60008281526004602052604080822060028101546001909101549151859391926001600160a01b0316917faf6b3032f8e3492c4bb6b4c79dcc6083c222fa059953718fd64af48b99e021c291a45050565b6000818152600460205260409020600101546001600160a01b0316610b8b57600080fd5b600160008281526004602081905260409091206007015460ff1690811115610bb557610bb56112f8565b14610bbf57600080fd5b6000818152600460205260409020546001600160a01b03163314610be257600080fd5b6002805460008381526004602081905260409182902093840154600685015460039095015492516332294f3960e11b81526001600160a01b03909416946364529e7294610c33943394909101611526565b60006040518083038186803b158015610c4b57600080fd5b505afa158015610c5f573d6000803e3d6000fd5b50505060008281526004602052604090819020600281015460018201546006830154600390930154935186955091936001600160a01b03909116927f6a391651e6925699d21e05a7839a1cd477cf124d1392eb575fdeed1b1b9fd6d992610ccf9290918252602082015260400190565b60405180910390a450565b600086118015610cea5750600084115b8015610cf65750600085115b610cff57600080fd5b82610d0b836003611654565b108015610d19575060648310155b8015610d26575060648210155b610d2f57600080fd5b60198111158015610d405750600081115b610d4957600080fd5b6002546040516332294f3960e11b81526001600160a01b03909116906364529e7290610d7f9033908a908a908a90600401611526565b60006040518083038186803b158015610d9757600080fd5b505afa158015610dab573d6000803e3d6000fd5b5050505085336001600160a01b03167f9bd242d1f29a2a88aa7cbd4f98ab8333ca064b34e457bc14d693c71d56763d3e878760405180608001604052808981526020018881526020016003548152602001600188600354610e0c919061150d565b610e169190611628565b9052604051610e279392919061166b565b60405180910390a360005b81811015610f5c5760025460405163b3ecdfc360e01b8152600481018990526001600160a01b039091169063b3ecdfc390602401602060405180830381865afa158015610e83573d6000803e3d6000fd5b505050506040513d601f19601f82011682018060405250810190610ea791906115cc565b6001600160a01b0316336001600160a01b031614610ec457600080fd5b60038054600090815260046020819052604080832080546001600160a01b03191633179055835483528083206002018b9055835483528083206006018a90558354835280832084018990558354835280832090910187905582548252808220600501869055825482528120600701805460ff191660011790558154610f48906116ac565b90915550610f55816116ac565b9050610e32565b50505050505050565b60005b815181101561121857600160046000848481518110610f8957610f896115f0565b60209081029190910181015182528101919091526040016000206007015460ff166004811115610fbb57610fbb6112f8565b148015611026575060046000838381518110610fd957610fd96115f0565b6020026020010151815260200190815260200160002060020154600460008460008151811061100a5761100a6115f0565b6020026020010151815260200190815260200160002060020154145b61102f57600080fd5b60046000838381518110611045576110456115f0565b6020908102919091018101518252810191909152604001600020546001600160a01b0316331461107457600080fd5b60026004600084848151811061108c5761108c6115f0565b6020026020010151815260200190815260200160002060070160006101000a81548160ff021916908360048111156110c6576110c66112f8565b021790555060006001600160a01b0316600460008484815181106110ec576110ec6115f0565b6020908102919091018101518252810191909152604001600020600101546001600160a01b0316146112085760015482516001600160a01b039091169063b52d734390600490600090869086908110611147576111476115f0565b6020026020010151815260200190815260200160002060010160009054906101000a90046001600160a01b03166004600086868151811061118a5761118a6115f0565b60200260200101518152602001908152602001600020600401546040518363ffffffff1660e01b81526004016111d59291906001600160a01b03929092168252602082015260400190565b600060405180830381600087803b1580156111ef57600080fd5b505af1158015611203573d6000803e3d6000fd5b505050505b611211816116ac565b9050610f68565b506004600082600081518110611230576112306115f0565b6020026020010151815260200190815260200160002060020154336001600160a01b03167fd9e8b979ef0bae2d8d8f0e6b29bbf5477fe54199ba6494b4f4a27d5fd42ed3fd8360405161128391906116c5565b60405180910390a350565b6001600160a01b03811681146112a357600080fd5b50565b600080604083850312156112b957600080fd5b82356112c48161128e565b915060208301356112d48161128e565b809150509250929050565b6000602082840312156112f157600080fd5b5035919050565b634e487b7160e01b600052602160045260246000fd5b6001600160a01b0389811682528816602082015260408101879052606081018690526080810185905260a0810184905260c0810183905261010081016005831061136857634e487b7160e01b600052602160045260246000fd5b8260e08301529998505050505050505050565b6000806040838503121561138e57600080fd5b50508035926020909101359150565b600080604083850312156113b057600080fd5b82359150602083013580151581146112d457600080fd5b60008060008060008060c087890312156113e057600080fd5b505084359660208601359650604086013595606081013595506080810135945060a0013592509050565b634e487b7160e01b600052604160045260246000fd5b604051601f8201601f1916810167ffffffffffffffff811182821017156114495761144961140a565b604052919050565b6000602080838503121561146457600080fd5b823567ffffffffffffffff8082111561147c57600080fd5b818501915085601f83011261149057600080fd5b8135818111156114a2576114a261140a565b8060051b91506114b3848301611420565b81815291830184019184810190888411156114cd57600080fd5b938501935b838510156114eb578435825293850193908501906114d2565b98975050505050505050565b634e487b7160e01b600052601160045260246000fd5b80820180821115611520576115206114f7565b92915050565b6001600160a01b0394909416845260208401929092526040830152606082015260800190565b60006040828403121561155e57600080fd5b82601f83011261156d57600080fd5b6040516040810181811067ffffffffffffffff821117156115905761159061140a565b80604052508060408401858111156115a757600080fd5b845b818110156115c15780518352602092830192016115a9565b509195945050505050565b6000602082840312156115de57600080fd5b81516115e98161128e565b9392505050565b634e487b7160e01b600052603260045260246000fd5b60008261162357634e487b7160e01b600052601260045260246000fd5b500490565b81810381811115611520576115206114f7565b60006020828403121561164d57600080fd5b5051919050565b8082028115828204841417611520576115206114f7565b838152602080820184905260c0820190604083018460005b60048110156116a057815183529183019190830190600101611683565b50505050949350505050565b6000600182016116be576116be6114f7565b5060010190565b6020808252825182820181905260009190848201906040850190845b818110156116fd578351835292840192918401916001016116e1565b5090969550505050505056fea264697066735822122054c3ec7b524eb1e2f77791974bf5dc9587f64e1da5244b80bee1c9e06201c81264736f6c63430008110033",
  "linkReferences": {},
  "deployedLinkReferences": {}
}