{
  "_format": "hh-sol-artifact-1",
  "contractName": "SALESPARAMS",
  "sourceName": "contracts/sales/Params.sol",
  "abi": [
    {
      "anonymous": false,
      "inputs": [
        {
          "indexed": true,
          "internalType": "uint256",
          "name": "id",
          "type": "uint256"
        },
        {
          "components": [
            {
              "internalType": "address",
              "name": "seller",
              "type": "address"
            },
            {
              "internalType": "address",
              "name": "buyer",
              "type": "address"
            },
            {
              "internalType": "address",
              "name": "currency",
              "type": "address"
            },
            {
              "internalType": "address[]",
              "name": "nftAddresses",
              "type": "address[]"
            },
            {
              "internalType": "uint256[]",
              "name": "nftIds",
              "type": "uint256[]"
            },
            {
              "internalType": "uint256[]",
              "name": "nftAmounts",
              "type": "uint256[]"
            },
            {
              "internalType": "uint256[]",
              "name": "amounts",
              "type": "uint256[]"
            },
            {
              "internalType": "uint256",
              "name": "price",
              "type": "uint256"
            },
            {
              "internalType": "uint32[]",
              "name": "nftTypes",
              "type": "uint32[]"
            },
            {
              "internalType": "enum SALESPARAMS.Status",
              "name": "status",
              "type": "uint8"
            }
          ],
          "indexed": false,
          "internalType": "struct SALESPARAMS.Sale",
          "name": "sale",
          "type": "tuple"
        }
      ],
      "name": "Cancellation",
      "type": "event"
    },
    {
      "anonymous": false,
      "inputs": [
        {
          "indexed": false,
          "internalType": "address",
          "name": "from",
          "type": "address"
        },
        {
          "indexed": false,
          "internalType": "address",
          "name": "to",
          "type": "address"
        },
        {
          "indexed": false,
          "internalType": "address",
          "name": "currency",
          "type": "address"
        },
        {
          "indexed": false,
          "internalType": "uint256[]",
          "name": "ids",
          "type": "uint256[]"
        },
        {
          "indexed": false,
          "internalType": "uint256[]",
          "name": "amounts",
          "type": "uint256[]"
        },
        {
          "indexed": false,
          "internalType": "enum Payable.PaymentTypes",
          "name": "paymentType",
          "type": "uint8"
        }
      ],
      "name": "NewPayment",
      "type": "event"
    },
    {
      "anonymous": false,
      "inputs": [
        {
          "indexed": true,
          "internalType": "uint256",
          "name": "id",
          "type": "uint256"
        },
        {
          "components": [
            {
              "internalType": "address",
              "name": "seller",
              "type": "address"
            },
            {
              "internalType": "address",
              "name": "buyer",
              "type": "address"
            },
            {
              "internalType": "address",
              "name": "currency",
              "type": "address"
            },
            {
              "internalType": "address[]",
              "name": "nftAddresses",
              "type": "address[]"
            },
            {
              "internalType": "uint256[]",
              "name": "nftIds",
              "type": "uint256[]"
            },
            {
              "internalType": "uint256[]",
              "name": "nftAmounts",
              "type": "uint256[]"
            },
            {
              "internalType": "uint256[]",
              "name": "amounts",
              "type": "uint256[]"
            },
            {
              "internalType": "uint256",
              "name": "price",
              "type": "uint256"
            },
            {
              "internalType": "uint32[]",
              "name": "nftTypes",
              "type": "uint32[]"
            },
            {
              "internalType": "enum SALESPARAMS.Status",
              "name": "status",
              "type": "uint8"
            }
          ],
          "indexed": false,
          "internalType": "struct SALESPARAMS.Sale",
          "name": "sale",
          "type": "tuple"
        }
      ],
      "name": "NewSale",
      "type": "event"
    },
    {
      "anonymous": false,
      "inputs": [
        {
          "indexed": true,
          "internalType": "address",
          "name": "previousOwner",
          "type": "address"
        },
        {
          "indexed": true,
          "internalType": "address",
          "name": "newOwner",
          "type": "address"
        }
      ],
      "name": "OwnershipTransferred",
      "type": "event"
    },
    {
      "anonymous": false,
      "inputs": [
        {
          "indexed": true,
          "internalType": "uint256",
          "name": "id",
          "type": "uint256"
        },
        {
          "components": [
            {
              "internalType": "address",
              "name": "seller",
              "type": "address"
            },
            {
              "internalType": "address",
              "name": "buyer",
              "type": "address"
            },
            {
              "internalType": "address",
              "name": "currency",
              "type": "address"
            },
            {
              "internalType": "address[]",
              "name": "nftAddresses",
              "type": "address[]"
            },
            {
              "internalType": "uint256[]",
              "name": "nftIds",
              "type": "uint256[]"
            },
            {
              "internalType": "uint256[]",
              "name": "nftAmounts",
              "type": "uint256[]"
            },
            {
              "internalType": "uint256[]",
              "name": "amounts",
              "type": "uint256[]"
            },
            {
              "internalType": "uint256",
              "name": "price",
              "type": "uint256"
            },
            {
              "internalType": "uint32[]",
              "name": "nftTypes",
              "type": "uint32[]"
            },
            {
              "internalType": "enum SALESPARAMS.Status",
              "name": "status",
              "type": "uint8"
            }
          ],
          "indexed": false,
          "internalType": "struct SALESPARAMS.Sale",
          "name": "sale",
          "type": "tuple"
        }
      ],
      "name": "Purchase",
      "type": "event"
    },
    {
      "inputs": [
        {
          "internalType": "address",
          "name": "sender",
          "type": "address"
        },
        {
          "internalType": "address[]",
          "name": "nftAddressArray",
          "type": "address[]"
        },
        {
          "internalType": "uint256[]",
          "name": "nftTokenIdArray",
          "type": "uint256[]"
        },
        {
          "internalType": "uint32[]",
          "name": "nftTokenTypeArray",
          "type": "uint32[]"
        }
      ],
      "name": "checkItemsApproval",
      "outputs": [],
      "stateMutability": "view",
      "type": "function"
    },
    {
      "inputs": [
        {
          "internalType": "address",
          "name": "from",
          "type": "address"
        },
        {
          "internalType": "address",
          "name": "currency",
          "type": "address"
        }
      ],
      "name": "checkTokensApproval",
      "outputs": [
        {
          "internalType": "uint256",
          "name": "",
          "type": "uint256"
        }
      ],
      "stateMutability": "view",
      "type": "function"
    },
    {
      "inputs": [],
      "name": "discounts",
      "outputs": [
        {
          "internalType": "address",
          "name": "",
          "type": "address"
        }
      ],
      "stateMutability": "view",
      "type": "function"
    },
    {
      "inputs": [],
      "name": "fee",
      "outputs": [
        {
          "internalType": "uint256",
          "name": "",
          "type": "uint256"
        }
      ],
      "stateMutability": "view",
      "type": "function"
    },
    {
      "inputs": [],
      "name": "id",
      "outputs": [
        {
          "internalType": "uint256",
          "name": "",
          "type": "uint256"
        }
      ],
      "stateMutability": "view",
      "type": "function"
    },
    {
      "inputs": [],
      "name": "methods",
      "outputs": [
        {
          "internalType": "address",
          "name": "",
          "type": "address"
        }
      ],
      "stateMutability": "view",
      "type": "function"
    },
    {
      "inputs": [
        {
          "internalType": "address",
          "name": "",
          "type": "address"
        },
        {
          "internalType": "address",
          "name": "",
          "type": "address"
        },
        {
          "internalType": "uint256[]",
          "name": "",
          "type": "uint256[]"
        },
        {
          "internalType": "uint256[]",
          "name": "",
          "type": "uint256[]"
        },
        {
          "internalType": "bytes",
          "name": "",
          "type": "bytes"
        }
      ],
      "name": "onERC1155BatchReceived",
      "outputs": [
        {
          "internalType": "bytes4",
          "name": "",
          "type": "bytes4"
        }
      ],
      "stateMutability": "nonpayable",
      "type": "function"
    },
    {
      "inputs": [
        {
          "internalType": "address",
          "name": "",
          "type": "address"
        },
        {
          "internalType": "address",
          "name": "",
          "type": "address"
        },
        {
          "internalType": "uint256",
          "name": "",
          "type": "uint256"
        },
        {
          "internalType": "uint256",
          "name": "",
          "type": "uint256"
        },
        {
          "internalType": "bytes",
          "name": "",
          "type": "bytes"
        }
      ],
      "name": "onERC1155Received",
      "outputs": [
        {
          "internalType": "bytes4",
          "name": "",
          "type": "bytes4"
        }
      ],
      "stateMutability": "nonpayable",
      "type": "function"
    },
    {
      "inputs": [
        {
          "internalType": "address",
          "name": "",
          "type": "address"
        },
        {
          "internalType": "address",
          "name": "",
          "type": "address"
        },
        {
          "internalType": "uint256",
          "name": "",
          "type": "uint256"
        },
        {
          "internalType": "bytes",
          "name": "",
          "type": "bytes"
        }
      ],
      "name": "onERC721Received",
      "outputs": [
        {
          "internalType": "bytes4",
          "name": "",
          "type": "bytes4"
        }
      ],
      "stateMutability": "nonpayable",
      "type": "function"
    },
    {
      "inputs": [],
      "name": "owner",
      "outputs": [
        {
          "internalType": "address",
          "name": "",
          "type": "address"
        }
      ],
      "stateMutability": "view",
      "type": "function"
    },
    {
      "inputs": [
        {
          "internalType": "address",
          "name": "from",
          "type": "address"
        },
        {
          "internalType": "address",
          "name": "to",
          "type": "address"
        },
        {
          "internalType": "address",
          "name": "currency",
          "type": "address"
        },
        {
          "internalType": "uint256[]",
          "name": "ids",
          "type": "uint256[]"
        },
        {
          "internalType": "uint256[]",
          "name": "amounts",
          "type": "uint256[]"
        },
        {
          "internalType": "enum Payable.PaymentTypes",
          "name": "paymentType",
          "type": "uint8"
        }
      ],
      "name": "pay",
      "outputs": [],
      "stateMutability": "payable",
      "type": "function"
    },
    {
      "inputs": [],
      "name": "renounceOwnership",
      "outputs": [],
      "stateMutability": "nonpayable",
      "type": "function"
    },
    {
      "inputs": [
        {
          "internalType": "uint256",
          "name": "",
          "type": "uint256"
        }
      ],
      "name": "sales",
      "outputs": [
        {
          "internalType": "address",
          "name": "seller",
          "type": "address"
        },
        {
          "internalType": "address",
          "name": "buyer",
          "type": "address"
        },
        {
          "internalType": "address",
          "name": "currency",
          "type": "address"
        },
        {
          "internalType": "uint256",
          "name": "price",
          "type": "uint256"
        },
        {
          "internalType": "enum SALESPARAMS.Status",
          "name": "status",
          "type": "uint8"
        }
      ],
      "stateMutability": "view",
      "type": "function"
    },
    {
      "inputs": [
        {
          "internalType": "bytes4",
          "name": "interfaceId",
          "type": "bytes4"
        }
      ],
      "name": "supportsInterface",
      "outputs": [
        {
          "internalType": "bool",
          "name": "",
          "type": "bool"
        }
      ],
      "stateMutability": "view",
      "type": "function"
    },
    {
      "inputs": [
        {
          "internalType": "address",
          "name": "newOwner",
          "type": "address"
        }
      ],
      "name": "transferOwnership",
      "outputs": [],
      "stateMutability": "nonpayable",
      "type": "function"
    },
    {
      "inputs": [
        {
          "internalType": "address",
          "name": "from",
          "type": "address"
        },
        {
          "internalType": "address",
          "name": "to",
          "type": "address"
        },
        {
          "internalType": "address[]",
          "name": "nftAddresses",
          "type": "address[]"
        },
        {
          "internalType": "uint256[]",
          "name": "nftIds",
          "type": "uint256[]"
        },
        {
          "internalType": "uint256[]",
          "name": "nftAmounts",
          "type": "uint256[]"
        },
        {
          "internalType": "uint32[]",
          "name": "nftTypes",
          "type": "uint32[]"
        }
      ],
      "name": "transferTokens",
      "outputs": [],
      "stateMutability": "nonpayable",
      "type": "function"
    }
  ],
  "bytecode": "0x6080604052601460035534801561001557600080fd5b50600160005561002433610029565b61007b565b600180546001600160a01b038381166001600160a01b0319831681179093556040519116919082907f8be0079c531659141344cd1fd0a4f28419497f9722a3daafe3b4186f6b6457e090600090a35050565b6115a88061008a6000396000f3fe6080604052600436106100f35760003560e01c8063b5f522f71161008a578063c01f59c211610059578063c01f59c21461031a578063ddca3f431461032d578063f23a6e6114610343578063f2fde38b1461036f57600080fd5b8063b5f522f714610242578063bb9a581a146102ae578063bc197c81146102ce578063bdd3dc8e146102fa57600080fd5b806375af65d1116100c657806375af65d1146101c05780638da5cb5b146101e0578063a125ea04146101fe578063af640d0f1461021e57600080fd5b806301ffc9a7146100f8578063150b7a021461012d57806329907a9114610171578063715018a6146101a9575b600080fd5b34801561010457600080fd5b50610118610113366004610d18565b61038f565b60405190151581526020015b60405180910390f35b34801561013957600080fd5b50610158610148366004610e1e565b630a85bd0160e11b949350505050565b6040516001600160e01b03199091168152602001610124565b34801561017d57600080fd5b50600554610191906001600160a01b031681565b6040516001600160a01b039091168152602001610124565b3480156101b557600080fd5b506101be6103c6565b005b3480156101cc57600080fd5b50600454610191906001600160a01b031681565b3480156101ec57600080fd5b506001546001600160a01b0316610191565b34801561020a57600080fd5b506101be610219366004610feb565b6103da565b34801561022a57600080fd5b5061023460025481565b604051908152602001610124565b34801561024e57600080fd5b5061029d61025d36600461107a565b600660205260009081526040902080546001820154600283015460078401546009909401546001600160a01b039384169492841693909116919060ff1685565b6040516101249594939291906110a9565b3480156102ba57600080fd5b506101be6102c93660046110f0565b61057e565b3480156102da57600080fd5b506101586102e93660046111bd565b63bc197c8160e01b95945050505050565b34801561030657600080fd5b5061023461031536600461126b565b610788565b6101be6103283660046112a4565b610803565b34801561033957600080fd5b5061023460035481565b34801561034f57600080fd5b5061015861035e366004611357565b63f23a6e6160e01b95945050505050565b34801561037b57600080fd5b506101be61038a3660046113c0565b610b95565b60006001600160e01b03198216630271189760e51b14806103c057506301ffc9a760e01b6001600160e01b03198316145b92915050565b6103ce610c13565b6103d86000610c6d565b565b60005b8351811015610577578181815181106103f8576103f86113dd565b602002602001015163ffffffff166000036104d057306001600160a01b0316848281518110610429576104296113dd565b60200260200101516001600160a01b031663081812fc858481518110610451576104516113dd565b60200260200101516040518263ffffffff1660e01b815260040161047791815260200190565b602060405180830381865afa158015610494573d6000803e3d6000fd5b505050506040513d601f19601f820116820180604052508101906104b891906113f3565b6001600160a01b0316146104cb57600080fd5b610567565b8381815181106104e2576104e26113dd565b602090810291909101015160405163e985e9c560e01b81526001600160a01b0387811660048301523060248301529091169063e985e9c590604401602060405180830381865afa15801561053a573d6000803e3d6000fd5b505050506040513d601f19601f8201168201806040525081019061055e9190611410565b61056757600080fd5b61057081611432565b90506103dd565b5050505050565b83518351811480156105905750808251145b61059957600080fd5b60005b8181101561077e578281815181106105b6576105b66113dd565b602002602001015163ffffffff1660000361067e578581815181106105dd576105dd6113dd565b60200260200101516001600160a01b03166342842e0e8989888581518110610607576106076113dd565b60209081029190910101516040516001600160e01b031960e086901b1681526001600160a01b0393841660048201529290911660248301526044820152606401600060405180830381600087803b15801561066157600080fd5b505af1158015610675573d6000803e3d6000fd5b5050505061076e565b858181518110610690576106906113dd565b60200260200101516001600160a01b031663f242432a89898885815181106106ba576106ba6113dd565b60200260200101518886815181106106d4576106d46113dd565b60200260200101516040518563ffffffff1660e01b815260040161073b94939291906001600160a01b0394851681529290931660208301526040820152606081019190915260a060808201819052600490820152630307830360e41b60c082015260e00190565b600060405180830381600087803b15801561075557600080fd5b505af1158015610769573d6000803e3d6000fd5b505050505b61077781611432565b905061059c565b5050505050505050565b604051636eb1769f60e11b81526001600160a01b0383811660048301523060248301526000919083169063dd62ed3e90604401602060405180830381865afa1580156107d8573d6000803e3d6000fd5b505050506040513d601f19601f820116820180604052508101906107fc9190611459565b9392505050565b61080b610cbf565b610813610c13565b600081600381111561082757610827611093565b036108c857836001600160a01b03166342842e0e878786600081518110610850576108506113dd565b60209081029190910101516040516001600160e01b031960e086901b1681526001600160a01b03938416600482015292909116602483015260448201526064015b600060405180830381600087803b1580156108ab57600080fd5b505af11580156108bf573d6000803e3d6000fd5b50505050610b42565b60018160038111156108dc576108dc611093565b0361091357604051631759616b60e11b81526001600160a01b03851690632eb2c2d6906108919089908990889088906004016114ad565b600281600381111561092757610927611093565b03610a4e576001600160a01b03861630146109f257836001600160a01b03166323b872dd878785600081518110610960576109606113dd565b60209081029190910101516040516001600160e01b031960e086901b1681526001600160a01b03938416600482015292909116602483015260448201526064015b6020604051808303816000875af11580156109c0573d6000803e3d6000fd5b505050506040513d601f19601f820116820180604052508101906109e49190611410565b6109ed57600080fd5b610b42565b836001600160a01b031663a9059cbb8684600081518110610a1557610a156113dd565b60200260200101516040518363ffffffff1660e01b81526004016109a19291906001600160a01b03929092168252602082015260400190565b6003816003811115610a6257610a62611093565b03610b42576001600160a01b0385163b15610af7576000856001600160a01b031683600081518110610a9657610a966113dd565b602002602001015160405160006040518083038185875af1925050503d8060008114610ade576040519150601f19603f3d011682016040523d82523d6000602084013e610ae3565b606091505b5050905080610af157600080fd5b50610b42565b846001600160a01b03166108fc83600081518110610b1757610b176113dd565b60200260200101519081150290604051600060405180830381858888f19350505050610b4257600080fd5b7f4f74c37cf0470b045087a8c6291e730e0623175419cdc46c332bb8a15f8de99e868686868686604051610b7b96959493929190611508565b60405180910390a1610b8d6001600055565b505050505050565b610b9d610c13565b6001600160a01b038116610c075760405162461bcd60e51b815260206004820152602660248201527f4f776e61626c653a206e6577206f776e657220697320746865207a65726f206160448201526564647265737360d01b60648201526084015b60405180910390fd5b610c1081610c6d565b50565b6001546001600160a01b031633146103d85760405162461bcd60e51b815260206004820181905260248201527f4f776e61626c653a2063616c6c6572206973206e6f7420746865206f776e65726044820152606401610bfe565b600180546001600160a01b038381166001600160a01b0319831681179093556040519116919082907f8be0079c531659141344cd1fd0a4f28419497f9722a3daafe3b4186f6b6457e090600090a35050565b600260005403610d115760405162461bcd60e51b815260206004820152601f60248201527f5265656e7472616e637947756172643a207265656e7472616e742063616c6c006044820152606401610bfe565b6002600055565b600060208284031215610d2a57600080fd5b81356001600160e01b0319811681146107fc57600080fd5b6001600160a01b0381168114610c1057600080fd5b8035610d6281610d42565b919050565b634e487b7160e01b600052604160045260246000fd5b604051601f8201601f1916810167ffffffffffffffff81118282101715610da657610da6610d67565b604052919050565b600082601f830112610dbf57600080fd5b813567ffffffffffffffff811115610dd957610dd9610d67565b610dec601f8201601f1916602001610d7d565b818152846020838601011115610e0157600080fd5b816020850160208301376000918101602001919091529392505050565b60008060008060808587031215610e3457600080fd5b8435610e3f81610d42565b93506020850135610e4f81610d42565b925060408501359150606085013567ffffffffffffffff811115610e7257600080fd5b610e7e87828801610dae565b91505092959194509250565b600067ffffffffffffffff821115610ea457610ea4610d67565b5060051b60200190565b600082601f830112610ebf57600080fd5b81356020610ed4610ecf83610e8a565b610d7d565b82815260059290921b84018101918181019086841115610ef357600080fd5b8286015b84811015610f17578035610f0a81610d42565b8352918301918301610ef7565b509695505050505050565b600082601f830112610f3357600080fd5b81356020610f43610ecf83610e8a565b82815260059290921b84018101918181019086841115610f6257600080fd5b8286015b84811015610f175780358352918301918301610f66565b600082601f830112610f8e57600080fd5b81356020610f9e610ecf83610e8a565b82815260059290921b84018101918181019086841115610fbd57600080fd5b8286015b84811015610f1757803563ffffffff81168114610fde5760008081fd5b8352918301918301610fc1565b6000806000806080858703121561100157600080fd5b843561100c81610d42565b9350602085013567ffffffffffffffff8082111561102957600080fd5b61103588838901610eae565b9450604087013591508082111561104b57600080fd5b61105788838901610f22565b9350606087013591508082111561106d57600080fd5b50610e7e87828801610f7d565b60006020828403121561108c57600080fd5b5035919050565b634e487b7160e01b600052602160045260246000fd5b6001600160a01b0386811682528581166020830152841660408201526060810183905260a08101600383106110e0576110e0611093565b8260808301529695505050505050565b60008060008060008060c0878903121561110957600080fd5b61111287610d57565b955061112060208801610d57565b9450604087013567ffffffffffffffff8082111561113d57600080fd5b6111498a838b01610eae565b9550606089013591508082111561115f57600080fd5b61116b8a838b01610f22565b9450608089013591508082111561118157600080fd5b61118d8a838b01610f22565b935060a08901359150808211156111a357600080fd5b506111b089828a01610f7d565b9150509295509295509295565b600080600080600060a086880312156111d557600080fd5b85356111e081610d42565b945060208601356111f081610d42565b9350604086013567ffffffffffffffff8082111561120d57600080fd5b61121989838a01610f22565b9450606088013591508082111561122f57600080fd5b61123b89838a01610f22565b9350608088013591508082111561125157600080fd5b5061125e88828901610dae565b9150509295509295909350565b6000806040838503121561127e57600080fd5b823561128981610d42565b9150602083013561129981610d42565b809150509250929050565b60008060008060008060c087890312156112bd57600080fd5b86356112c881610d42565b955060208701356112d881610d42565b945060408701356112e881610d42565b9350606087013567ffffffffffffffff8082111561130557600080fd5b6113118a838b01610f22565b9450608089013591508082111561132757600080fd5b5061133489828a01610f22565b92505060a08701356004811061134957600080fd5b809150509295509295509295565b600080600080600060a0868803121561136f57600080fd5b853561137a81610d42565b9450602086013561138a81610d42565b93506040860135925060608601359150608086013567ffffffffffffffff8111156113b457600080fd5b61125e88828901610dae565b6000602082840312156113d257600080fd5b81356107fc81610d42565b634e487b7160e01b600052603260045260246000fd5b60006020828403121561140557600080fd5b81516107fc81610d42565b60006020828403121561142257600080fd5b815180151581146107fc57600080fd5b60006001820161145257634e487b7160e01b600052601160045260246000fd5b5060010190565b60006020828403121561146b57600080fd5b5051919050565b600081518084526020808501945080840160005b838110156114a257815187529582019590820190600101611486565b509495945050505050565b6001600160a01b0385811682528416602082015260a0604082018190526000906114d990830185611472565b82810360608401526114eb8185611472565b838103608090940193909352505060008152602001949350505050565b6001600160a01b03878116825286811660208301528516604082015260c06060820181905260009061153c90830186611472565b828103608084015261154e8186611472565b9150506004831061156157611561611093565b8260a083015297965050505050505056fea2646970667358221220d3c36b2961d0d2f3c81fa10b2972084fbb215daa0e55951ba63cb9c80992b9ac64736f6c63430008110033",
  "linkReferences": {},
  "deployedLinkReferences": {}
}